:020000040800F2
:102000005007002095210008112600080D26000821
:1020100000000000000000000000000000000000C0
:10202000000000000000000000000000B3260008CF
:10203000000000000000000013260008A927000887
:10204000C5210008000000008D260008C5210008F9
:10205000C521000835250008C5210008C521000854
:1020600000000000C5210008C5210008C5210008A6
:10207000B7240008C5210008C521000800000000A1
:10208000612800080000000000000000452800084A
:10209000C5210008C5210008C5210008C521000888
:1020A000C5210008C5210008B1260008F528000850
:1020B000C521000800F002F800F041F80CA030C87B
:1020C000083824182D18A246671EAB4654465D46B4
:1020D000AC4201D100F033F87E460F3E0FCCB6463D
:1020E0000126334200D0FB1AA246AB4633431847C1
:1020F0002C0B00004C0B0000103A02D378C878C1BA
:10210000FAD8520701D330C830C101D504680C6039
:10211000704700000023002400250026103A01D358
:1021200078C1FBD8520700D330C100D50B6070478F
:1021300010B5002010BD1FB51FBD10B510BD00F0BB
:1021400087F91146FFF7F7FF00F058FD00F09FF9FF
:1021500003B4FFF7F2FF03BC00F0A6F970B5054623
:102160000C46164602E00FCC0FC5103E102EFAD2D8
:10217000082E02D303CC03C5083E042E07D301CC9E
:1021800001C5361F03E021782970641C6D1C761E82
:10219000F9D270BD0F4880F308880F480168090E16
:1021A0000E4A914205D10E480E4901600E480F4972
:1021B00001600F4880470F480047FEE7FEE7FEE753
:1021C000FEE7FEE7FEE700000B480C490C4A0D4B0A
:1021D0007047000050070020040000001F000000AE
:1021E0001810024001000000000001400000000043
:1021F000C9270008B5200008500100205007002022
:1022000050030020500300200FB4054910B503AA65
:10221000029800F0EDF810BC08BC04B018470000AC
:10222000C8000020F8B50E46044600202062204673
:10223000E1688847002829D0252802D06268A16873
:1022400020E0E16820460027884705001ED0284688
:102250004138192802D80127FF022035324620468E
:1022600027602946FFF764FF002808D0012804D022
:10227000F61DF608F6000836D9E7361DD7E762687E
:102280002846A1689047206A401CCFE7206AF8BD25
:10229000F8B5042A2CD3830712D00B78491C03709D
:1022A000401C521E83070BD00B78491C0370401C46
:1022B000521E830704D00B78491C0370401C521E29
:1022C0008B079B0F05D0C91ADF002023DE1B08C92E
:1022D0000AE0FFF743FFF8BD1D4608C9FD401C4654
:1022E000B4402C4310C0121F042AF5D2F308C91AB7
:1022F000521EF0D40B78491C0370401C521EEAD4C5
:102300000B78491C0370401C012AE4D40978017041
:10231000F8BD431A70B593421BD28918801804E0A7
:10232000491E401E0B78521E03709307F8D106E039
:102330001039103878C9103978C01038103A102A7E
:10234000F6D203E0091F001F0B680360121FF9D5C6
:1023500070BDFFF703FF70BDF8B50646144608438D
:10236000800707D0751AA54219D20819102D13D26B
:10237000311907E03046FFF7CCFFF8BD401E491E7B
:1023800002780A70641EF9D2F8BD471B2A46394606
:10239000FFF77EFF641B3846A542F6D3011B224699
:1023A0003046FFF775FFF8BD01E004C0091F04299E
:1023B000FBD28B0701D50280801CC90700D00270B8
:1023C000704700290BD0C30702D00270401C491E81
:1023D000022904D3830702D50280801C891EE3E70B
:1023E0000022EEE70022DFE77047704770470000E9
:1023F000084B70B50D467B4400F013F804462846A0
:1024000000F022F8002802D00020C04370BD204612
:1024100070BD0000DB07000001694A1C02610878FA
:10242000704700B58FB002910021059105490193D5
:1024300079440391114604906846FFF7F3FE0FB00C
:1024400000BD0000E5FFFFFFC06880210840704725
:10245000754600F025F8AE46050069465346C008AB
:10246000C000854618B020B5FFF7AEFE60BC00275F
:102470004908B6460026C0C5C0C5C0C5C0C5C0C550
:10248000C0C5C0C5C0C5403D49008D46704710B5A8
:102490000446C046C0462046FFF75AFE10BD000065
:1024A00000487047EC00002001491820ABBEFEE751
:1024B00026000200704770470121090701400029EA
:1024C00002D00349486001E00249486070470000BB
:1024D0000004024000000240002904D002680123E9
:1024E0001A43026003E00268014B1A400260704721
:1024F000FEFF00000146486880B270470146002098
:10250000002201231B070B40002B02D0064B1A6848
:1025100001E0064B1A6813460B40002B01D0012046
:1025200000E000207047000000040240000002406C
:102530004160704710B5012000F00CF8002802D06F
:10254000012000F001F810BD01494861704700000A
:102550000004014001460020044A52690A40002A52
:1025600001D0012000E0002070470000000401407D
:10257000F0B50A4600210023002400BF3DE00125FC
:102580008D402B4615681D402C469C4234D1157950
:10259000012D02D01579022D16D185684F00032632
:1025A000BE40B543856055794E00B54086683543D9
:1025B0008560858801268E40B5438580858896791B
:1025C0008E40B6B23543858005684F000326BE4075
:1025D000B543056015794E00B54006683543056082
:1025E000C5684F000326BE40B543C560D5794E008F
:1025F000B540C6683543C560491C1029BFD3F0BD3E
:10260000002A01D0816100E00185704700BFFEE72C
:10261000704770471948006801210843174908604E
:102620000846406816490840144948600846006852
:1026300014490840114908600846006801218904CE
:1026400088430E490860084640683F2109048843D2
:102650000A4948600846C06A00090001C862084685
:10266000006B09490840054908630846406B40086B
:10267000400048630020886070470000001002405E
:102680000CB8FF08FFFFF6FEACFEF0FF10B502A08D
:10269000FFF7BAFD10BD000052544320414C415297
:1026A0004D20494E544552525550540D0A000000D9
:1026B0007047704701460020044A10688008800077
:1026C00002460A431046014A10607047000001406C
:1026D0000CB50020019000903148006801210904E8
:1026E00008432F49086000BF2D48006801214904B4
:1026F000084000900198401C01900098002804D1E7
:102700000521090301988842EED12548006801217E
:1027100049040840002802D00120009001E0002078
:1027200000900098012839D111201E4908601C48EA
:1027300040681B4948600846406848600846406851
:102740007F21C90388431649486008464068112123
:102750000904084312494860084600680121090637
:1027600008430F49086000BF0D4800680121490671
:1027700008400028F8D00A484068800880000849CE
:10278000486008464068022108430549486000BF88
:10279000034840680C2108400828F9D10CBD00000E
:1027A000001002400020024005480068401C044917
:1027B000086004480068401C024908607047000037
:1027C000B4000020B800002010B51B4800680121AB
:1027D00008431949086008464068184908401649E6
:1027E00048600846006816490840134908600846D2
:1027F00000680121890488430F4908600846406841
:102800003F21090488430C4948600846C06A000912
:102810000001C8620846006BFF2154318843064915
:1028200008630846406B4008400048630020886009
:10283000FFF74EFF10BD0000001002400CB8FF086B
:10284000FFFFF6FE10B50121044800F040F8002813
:1028500003D00121014800F037F810BD00200040EE
:1028600010B50121154800F032F8002825D00121CB
:10287000124800F029F812480068401C104908600E
:1028800008460068642801D1002008600D480068EF
:10289000002809D101200B4908600022C10309204A
:1028A000C006FFF7ADFE08E00020064908600122DF
:1028B000D1030920C006FFF7A3FE10BD00040040AD
:1028C000BC000020C4000020CA430282704730B51B
:1028D0000246002000230024158A0D402B469589CE
:1028E0000D402C46002B03D0002C01D0012000E02D
:1028F000002030BD70B5002400251849184800F0AC
:102900003BF8002804D0164800F05DF8154908800F
:102910001549134800F030F800281ED01021104847
:1029200000F028F81148FFF7E5FD1021081A84B2DD
:10293000002C12DD0E480578457800210B48FFF782
:10294000CBFD10210A48FFF74BFD10210748FFF788
:10295000EFFD01210548FFF7BFFD70BD0501050032
:1029600000380140C0000020040104003000024093
:10297000DC0000200162704770B502460B4600245F
:102980000021002500201E04350ED9B201268E40FC
:102990003146012D02D11668314006E0022D02D1E8
:1029A0005668314001E0966831401C0C0126A64073
:1029B0003446D6693440002903D0002C01D00120D0
:1029C00000E0002070BD0146888CC005C00D704736
:1029D00070B504460D462020FFF790FD012813D165
:1029E0002020FFF769FD2A4621460848FFF7B4FC7E
:1029F00000210748FFF770FD29460548FFF798FDBD
:102A000001210348FFF768FD70BD0000CC000020E5
:102A10001C00024010B5FFF7FDFD224800680121AF
:102A200008432049086000E000BF1E4800680221FA
:102A300008400028F8D011201B4908601948406858
:102A40000F218904884317494860084640680521DA
:102A5000C904084313494860084600680121090673
:102A600008431049086000E000BF0E4800680121DB
:102A7000490608400028F7D00A4840680221084368
:102A80000849486000E000BF064840680821084047
:102A90000028F8D000F00AF800F03EF800F070F8D6
:102AA00010BD00000010024000200240194840699B
:102AB000012149040843174948610920C0060068FC
:102AC000800080080921C906086008460068C9001E
:102AD00008430921C90608600846C06880008008CC
:102AE000C8600846C068C90008430921C906C86013
:102AF0000846808A0121C90308430921C906888242
:102B00000846808A0121C90388430921C9068882B1
:102B100070470000001002401CB515488069012173
:102B2000084313498861134800682021084311496C
:102B3000086001200090002168460171C17169465A
:102B40000920C006FFF714FD0B488068000900014A
:102B5000094988600948806801210843074988605D
:102B60000846006801210843044908601CBD0000B4
:102B70000010024000E100E00000014000040140BC
:102B80001048C069022108430E49C8610E48006818
:102B90000121090408430C4908600C4800881021F1
:102BA00008430A4908800A4848620846808901218A
:102BB00008430649888108460088012108430349E3
:102BC000088070470010024000E100E0000400406F
:102BD0003075000038B504460D4600200090694667
:102BE0000C7001216846FFF7F3FE00E000BF2020D3
:102BF000FFF784FC0028F9D0204638BDB4220649EE
:102C00000804FFF7ABFA0320FFF754FDFFF702FFBC
:102C100062B600E000BFFDE7002000083C2C000881
:102C2000B400002028000000F8200008642C0008F0
:102C3000DC000020740600001421000800000000E1
:102C40000000000000000000000000000000000084
:102C50000000000011000000000000000000000063
:042C60000000000070
:04000005080020B51A
:00000001FF
