:020000040800F2
:10200000600700205D21000805270008012700085F
:1020100000000000000000000000000000000000C0
:102020000000000000000000000000004B2C000831
:102030000000000000000000F1270008A92D0008A2
:102040008D21000800000000252C00088D210008CB
:102050008D210008812400088D2100088D210008B1
:10206000000000008D2100088D2100088D2100084E
:102070007F2400088D2100088D2100080000000049
:10208000612E00080000000000000000452E00083E
:102090008D2100088D2100088D2100088D21000868
:1020A0008D2100088D210008492C0008412F0008CF
:1020B0008D21000800F002F800F041F80CA030C8B3
:1020C000083824182D18A246671EAB4654465D46B4
:1020D000AC4201D100F033F87E460F3E0FCCB6463D
:1020E0000126334200D0FB1AA246AB4633431847C1
:1020F0002011000050110000103A02D378C878C1B6
:10210000FAD8520701D330C830C101D504680C6039
:10211000704700000023002400250026103A01D358
:1021200078C1FBD8520700D330C100D50B6070478F
:1021300010B5002010BD1FB51FBD10B510BD00F0BB
:102140006BF91146FFF7F7FF01F03EF800F083F955
:1021500003B4FFF7F2FF03BC00F08AF90F4880F3E5
:1021600008880F480168090E0E4A914205D10E48B1
:102170000E4901600E480F4901600F4880470F4823
:102180000047FEE7FEE7FEE7FEE7FEE7FEE70000AA
:102190000B480C490C4A0D4B7047000060070020AB
:1021A000040000001F0000001810024001000000A1
:1021B0000000014000000000C92D0008B520000803
:1021C0006001002060070020600300206003002001
:1021D0000FB4054910B503AA029800F0EDF810BC41
:1021E00008BC04B018470000FC000020F8B50E46FB
:1021F0000446002020622046E1688847002829D054
:10220000252802D06268A16820E0E1682046002706
:10221000884705001ED028464138192802D80127D2
:10222000FF0220353246204627602946FFF780FF0F
:10223000002808D0012804D0F61DF608F60008365C
:10224000D9E7361DD7E762682846A1689047206A1B
:10225000401CCFE7206AF8BD002203098B422CD333
:10226000030A8B4211D300239C464EE003460B43E6
:102270003CD4002243088B4231D303098B421CD348
:10228000030A8B4201D394463FE0C3098B4201D33A
:10229000CB01C01A524183098B4201D38B01C01A72
:1022A000524143098B4201D34B01C01A52410309E9
:1022B0008B4201D30B01C01A5241C3088B4201D398
:1022C000CB00C01A524183088B4201D38B00C01A45
:1022D000524143088B4201D34B00C01A5241411A6C
:1022E00000D201465241104670475DE0CA0F00D04F
:1022F0004942031000D34042534000229C46030948
:102300008B422DD3030A8B4212D3FC22890112BACD
:10231000030A8B420CD3890192118B4208D38901A5
:1023200092118B4204D389013AD0921100E08909BD
:10233000C3098B4201D3CB01C01A524183098B429E
:1023400001D38B01C01A524143098B4201D34B0187
:10235000C01A524103098B4201D30B01C01A5241EA
:10236000C3088B4201D3CB00C01A524183088B4271
:1023700001D38B00C01A5241D9D243088B4201D3FA
:102380004B00C01A5241411A00D2014663465241E5
:102390005B10104601D34042002B00D549427047E4
:1023A00063465B1000D3404201B50020C046C046E2
:1023B00002BD704770477047084B70B50D467B44AF
:1023C00000F013F80446284600F022F8002802D056
:1023D0000020C04370BD204670BD0000EB0D000022
:1023E00001694A1C02610878704700B58FB00291FC
:1023F0000021059105490193794403911146049008
:102400006846FFF7F3FE0FB000BD0000E5FFFFFFD9
:10241000C068802108407047754600F025F8AE4638
:10242000050069465346C008C000854618B020B56F
:10243000FFF7AEFE60BC00274908B6460026C0C5BF
:10244000C0C5C0C5C0C5C0C5C0C5C0C5C0C5403D6C
:1024500049008D46704710B50446C046C046204628
:10246000FFF776FE10BD0000004870470001002015
:1024700001491820ABBEFEE72600020070477047F6
:1024800010B5022000F00CF8002802D0022000F065
:1024900001F810BD01494861704700000004014087
:1024A00001460020044A52690A40002A01D0012056
:1024B00000E000207047000000040140F0B50A462B
:1024C00000210023002400BF3DE001258D402B4664
:1024D00015681D402C469C4234D11579012D02D03F
:1024E0001579022D16D185684F000326BE40B543ED
:1024F000856055794E00B54086683543856085888E
:1025000001268E40B5438580858896798E40B6B287
:102510003543858005684F000326BE40B5430560FE
:1025200015794E00B540066835430560C5684F0013
:102530000326BE40B543C560D5794E00B540C66898
:102540003543C560491C1029BFD3F0BDF0B5002349
:1025500000244D07EE0E1546B5402B46CD10AE00BB
:1025600005462035AD594E07F70E0F26BE40B54340
:10257000CE10B60007462037BD51CD10AE003D4607
:10258000AD591D432C46CD10AD003E467451F0BDF3
:10259000002A01D0816100E0018570471CB500214F
:1025A000684681710121C171417101710803009078
:1025B00069464B48FFF782FF012211034848FFF7A5
:1025C000E7FF0021684681710121C17141710171EC
:1025D0000420009069464248FFF770FF00216846DA
:1025E00081710121C17141710021017101200090AF
:1025F00069460920C006FFF761FF00216846817126
:102600000121C171417100210171012000906946D1
:102610003348FFF753FF0021684681710121C171E2
:1026200041710021017101208002009069462C480F
:10263000FFF744FF0021684681710121C17141719A
:10264000022101710803009069462548FFF736FF13
:1026500000220D212248FFF779FF00216846817191
:102660000121C17141710221017188030090694605
:102670001B48FFF723FF00220F211948FFF766FFD1
:102680000021684681710121C171417102210171EE
:102690004803009069461248FFF710FF00220E2100
:1026A0000F48FFF753FF0021684681710121C17176
:1026B000417101710220009069460948FFF7FEFE52
:1026C0000021684681710121C17141710171C80306
:1026D000009069460920C006FFF7F0FE1CBD00000F
:1026E0000004004810B500F02BFB00F003FC00F0E4
:1026F000B1F8FFF753FF4B20C00100F00BFD10BDF8
:1027000000BFFEE77047000000218278002A27D032
:10271000184A03231B02D21803789B109B00D15840
:1027200002789207D30EFF229A400B469343194634
:1027300042789207120E03789B07DB0E9A401143F2
:102740000C4A03231B02D21803789B109B00D15024
:102750000278D306DB0E01229A40064B1A6007E08E
:102760000278D306DB0E01229A40024B80331A60B6
:102770007047000000E100E010B5002819DA1A4A9D
:1027800003071B0F083B9B089B00D2588307DC0EF6
:10279000FF23A3409A438B071B0E8407E40EA3403C
:1027A0001A43114B0407240F083CA408A4001A5133
:1027B00018E00E4A03231B02D21883089B00D2584C
:1027C0008307DC0EFF23A3409A438B071B0E84076D
:1027D000E40EA3401A43054B032424021B1984086A
:1027E000A4001A5110BD00001CED00E000E100E063
:1027F00070470000002905D0054A52690243044B86
:102800005A6104E0024A52698243014B5A6170479F
:1028100000100240002905D0054AD2690243044B4A
:10282000DA6104E0024AD2698243014BDA617047FF
:1028300000100240002905D0054A92690243044B6A
:102840009A6104E0024A92698243014B9A6170479F
:102850000010024010B5012127204004FFF7CAFFF5
:1028600001210448FFF7D6FF01210348FFF7E2FFEB
:1028700010BD000000400010014000001948006831
:102880000121084317490860084640681649084076
:102890001449486008460068144908401149086016
:1028A000084600680121890488430E4908600846EB
:1028B00040683F21090488430A4948600846C06AC5
:1028C00000090001C8620846006B09490840054933
:1028D00008630846406B4008400048630020886059
:1028E00070470000001002400CB8FF08FFFFF6FE22
:1028F000ACFEF0FFFEB50446002500260020029045
:10290000019000900027864840680C210840054649
:10291000002D06D0042D07D0082D08D00C2D2CD169
:1029200028E0804820602BE07F48206028E07C4839
:1029300040680F2189040840064679484068032111
:10294000C90308400290B00C861C0298002803D1ED
:102950007648374647430BE07148C06A0007000FCE
:10296000401C019070480199FFF776FC70430746C0
:10297000276005E06E48206002E06A48206000BFE2
:1029800000BF67484068F021084005462D096948A6
:10299000405D009020680099C840606060484068D1
:1029A00007210902084005462D0A6248405D009053
:1029B00061680098C140A1605948006BFF21013156
:1029C0000840884202D05C48E0600DE0544840680E
:1029D000012189030840884203D0A0684008E060D4
:1029E00002E0A0688008E0604D48006B402108408C
:1029F000402802D05148206102E00120C00320613C
:102A00004748006B10210840102802D045486061FB
:102A100001E0206860614248006B8007800F002859
:102A200002D1A068A06119E03D48006B8007800FCB
:102A3000012802D12068A06110E03948006B8007AE
:102A4000800F022802D18003A06107E03448006BA8
:102A50008007800F032801D13248A0613048006B05
:102A6000032109040840002802D1A068E06120E0A9
:102A70002B48006B03210904084001210904884206
:102A800002D12068E06114E02548006B03210904AD
:102A9000084001214904884202D18010E06108E029
:102AA0001F48006B032109040840884201D11D48DA
:102AB000E0611B48006B032189040840002802D113
:102AC000A068206220E01648006B032189040840BA
:102AD00001218904884202D12068206214E0104854
:102AE000006B0321890408400121C904884202D1F6
:102AF0000011206208E00A48006B032189040840A5
:102B0000884201D1074820620548006B80210840B7
:102B1000802802D00648606200E06762FEBD0000C7
:102B20000010024000127A00001BB70000093D00AF
:102B3000006CDC02D8000020809FD50012800000CD
:102B400010B502460021002300205111002902D1B6
:102B50000C4C23680BE0012902D10A4C236A06E0E1
:102B6000022902D1074C636A01E0064C636BD1066F
:102B7000C90E01248C401C40002C01D0012000E033
:102B8000002010BD00100240024840680C2108409F
:102B90007047000000100240002806D0064909686E
:102BA00001221143044A116005E0034909684908FC
:102BB0004900014A1160704700100240002807D008
:102BC00007490968012212061143054A116006E00F
:102BD00003490968012212069143014A11607047B6
:102BE00000100240074A52687B23DB039A43054BDF
:102BF0005A601A46526803460B431A43014B5A6007
:102C0000704700000010024001460020044A50684E
:102C10008008800002460A431046014A506070470F
:102C20000010024010B502A0FFF7D2FA10BD00005C
:102C300052544320414C41524D20494E544552522A
:102C40005550540D0A00000070477047014600209F
:102C5000044A10688008800002460A431046014A70
:102C600010607047000001400CB5002001900090FA
:102C7000314800680121090408432F49086000BF5A
:102C80002D48006801214904084000900198401C2B
:102C900001900098002804D1052109030198884279
:102CA000EED125480068012149040840002802D0DF
:102CB0000120009001E0002000900098012839D107
:102CC00011201E4908601C4840681B49486008469E
:102CD00040684860084640687F21C9038843164918
:102CE00048600846406811210904084312494860B9
:102CF000084600680121090608430F49086000BF23
:102D00000D4800680121490608400028F8D00A480B
:102D100040688008800008494860084640680221F1
:102D200008430549486000BF034840680C2108403B
:102D30000828F9D10CBD000000100240002002401C
:102D400010B5FFF79BFD0120FFF726FF00E000BF55
:102D50000120FFF7F5FE0028F9D011201049086086
:102D6000104840680F49486008464068486005219F
:102D7000C9040020FFF736FF0120FFF71FFF00E026
:102D800000BF1920FFF7DCFE0028F9D00220FFF772
:102D90003BFF00E000BFFFF7F7FE0828FAD110BDA7
:102DA000002002400010024005480068401C044911
:102DB000086004480068401C024908607047000031
:102DC000E8000020EC00002010B51B48006801213D
:102DD00008431949086008464068184908401649E0
:102DE00048600846006816490840134908600846CC
:102DF00000680121890488430F490860084640683B
:102E00003F21090488430C4948600846C06A00090C
:102E10000001C8620846006BFF215431884306490F
:102E200008630846406B4008400048630020886003
:102E3000FFF71AFF10BD0000001002400CB8FF0899
:102E4000FFFFF6FE10B50121044800F040F800280D
:102E500003D00121014800F037F810BD00200040E8
:102E600010B50121154800F032F8002825D00121C5
:102E7000124800F029F812480068401C1049086008
:102E800008460068642801D1002008600D480068E9
:102E9000002809D101200B4908600022C103092044
:102EA000C006FFF775FB08E0002006490860012214
:102EB000D1030920C006FFF76BFB10BD00040040E2
:102EC000F0000020F8000020CA430282704730B5AD
:102ED0000246002000230024158A0D402B469589C8
:102EE0000D402C46002B03D0002C01D0012000E027
:102EF000002030BD10B57D21C9000E480068FFF7E5
:102F0000ABF90446601E0C49884201D901200CE04F
:102F1000601E0A4948610321081FFFF72DFC0020AD
:102F200006498861072008610020002801D000BF01
:102F3000FEE710BDC4000020FFFFFF0000E000E03E
:102F400010B500240549064800F01AF8002804D0FE
:102F5000034800F0D9F80349088010BD05010500B9
:102F600000380140F4000020002904D00268012349
:102F70001A43026003E00268520852000260704780
:102F800070B502460B4600240021002500201E04D7
:102F9000350ED9B201268E403146012D02D1166878
:102FA000314006E0022D02D15668314001E09668BA
:102FB00031401C0C0126A6403446D6693440002915
:102FC00003D0002C01D0012000E0002070BDF8B536
:102FD00003460024002600960025002018460E0413
:102FE000340ECEB200960127009EB7403D46022C1B
:102FF00001D1001D02E0032C00D10830002A03D0CB
:1030000006682E43066002E00668AE430660F8BD1F
:10301000F0B58BB004460D46002700200A9000262C
:10302000206840084000206066680321090330469C
:1030300088430646A8680643666026682D48064011
:10304000E968686808432969084306432660A6685A
:103050000321090230468843064668690643A66094
:103060006846FFF747FC2448844202D106980A903C
:103070000DE02248844202D107980A9007E02048D8
:10308000844202D108980A9001E002980A902068D0
:103090000121C903084000280CD029680A9A500071
:1030A000FFF7DAF8074629680A9A5000FFF7D4F8C4
:1030B0000E4609E029680A98FFF7CEF80746296806
:1030C0000A98FFF7C9F80E4628684008B04200D8B1
:1030D0007F1C20680121C9030840002806D038075A
:1030E000460F38460749084030430746A7810BB0D2
:1030F000F0BD0000F3E9FFFF00380140004400404C
:1031000000480040F0FF00000146888CC005C00D5B
:103110007047000010B58AB0044601214804FFF74B
:1031200069FB01218803FFF785FB01220921C806FD
:10313000FFF70CFA01220A210920C006FFF706FA60
:10314000032040020890022108A80171002181712A
:103150000121C1710321417108A90920C006FFF7AF
:10316000ADF90294002003900490059007900C2084
:10317000069002A90B48FFF74BFF01220A490948B4
:10318000FFF725FF01210748FFF7EEFE1B216846E8
:103190000171022141710121817101A8FFF7B4FA87
:1031A0000AB010BD003801400501050000BF054A06
:1031B000D26940231A40002AF9D0C2B2014B203311
:1031C0001A81704700380140002407E0A0000C4934
:1031D00040180068A1000B4A5050641C302CF5D3F5
:1031E0000320FFF733FDFFF77DFA08E006A0FEF7A6
:1031F000EFFF0122D1030920C006FFF7C9F9F5E767
:103200000020000800000020777564616E0A00004D
:1032100040320008C40000203C000000F8200008F4
:103220004032000800000020C00000001421000807
:103230007C32000800010020600600001421000814
:10324000006CDC020000000000000000010203042A
:10325000060708090000000001020304010203043C
:103260000607080900000000000000000000000040
:0C32700000000000000000000000000052
:04000005080020B51A
:00000001FF
