:020000040800F2
:10000000B0060020C1390008093900080B39000882
:1000100000000000000000000000000000000000E0
:100020000000000000000000000000000F39000880
:10003000000000000000000011390008133900081A
:10004000EB15000800000000D71B00080B28000873
:10005000FF280008553900089B3900089F3A00081E
:1000600000000000AB3A0008F53A0008F73A000833
:100070002B390008F93A0008FB3A0008000000009C
:10008000FD3A000800000000000000002F390008C1
:10009000FF3A0008013B0008033B0008053B00084D
:1000A000073B0008093B00082D39000829390008E2
:1000B0000B3B000800B5002801D11F2000BD002126
:1000C00000E0491CC9B2152915D2314AC9B208232A
:1000D0004B43D2589042F4D32D4AC9B208234B4324
:1000E000D21892689042ECD22948C9B208225143F2
:1000F0004018007BE2E7FEE780B526490860264805
:1001000000F0E6FC002000F08CFD012000F01FFE56
:100110000021002001F036F80421002000F0F0FE5C
:10012000002300221D491D4800F066FE0020B04952
:10013000087001BD80B500F0DAFC032807D008D3B1
:10014000052802D005D2022004E0012002E00320AD
:1001500000E0002002BD80B5C0B2012806D000201A
:1001600000F0BEFE0020A349487010E0012000F01E
:10017000B7FEA04840789F490978884207D09D483B
:1001800000789C4948709B48407800F0A9FB01BD6D
:10019000583800089402002041090008FFFF0000C1
:1001A00080B500F062FE01BD38B50C000125C0B27B
:1001B000FFF7D1FF2000FFF7F3FF002000F010FB56
:1001C000012001F08BF800F0F5FA2800C0B232BD32
:1001D00038B500250120FFF7BEFF002000F047FDE5
:1001E00000240BE0012001F079F800F0D6FF0100B7
:1001F000C907C90FA14029430D00641CE4B2202C9B
:10020000F0DB00F0D7FA280032BDFAB583B0170052
:100210001399794A11700D9CE4B2002C03D00E9909
:10022000764A117002E0FF21744A11700B9D0F9EF7
:10023000C0B2002802D0012878D0D6E0002000F01B
:1002400078FD00206E4908706E48C7620B206E4929
:1002500008700398FFF72EFF6C4908700020694969
:100260000870E80067494880042066490871182032
:1002700064494871002063498871E4B2002C03D0BE
:1002800000206049C87102E001205E49C8715B48E6
:1002900000785C490872F6B2002E03D0F22059496A
:1002A000487202E00120574948720020554988727F
:1002B00000F091FA52480078002801D1002000E0B7
:1002C0000120C0B2FFF747FF4D4800F06BFE4D48DC
:1002D00000F0E8FE68464E490CC90CC008390838E1
:1002E000684600F042FC4B4800F06EFC6846008E09
:1002F00001F00AF804000D00380001F005F80200D2
:100300000B000020444901F00FF80022434B01F09C
:100310006CF822002B0001F068F80022404B01F03D
:1003200064F801F04BF99D4908605EE0002000F0A0
:1003300000FD6846008EC0B200F002FD0120304989
:10034000087038009649087096480399405C9649B1
:1003500008706846007C954908700398002803D10E
:100360000B2F06D00C2F04D00398012805D10C2F99
:1003700003D101208E49087002E000208C490870EA
:1003800001202049087086480078052803D0844859
:100390000078062809D1ADB20C2D03DA0C201949DA
:1003A000888104E01748858101E016488581154859
:1003B0008473124800781349C8731248067412985F
:1003C000104948740E480078002801D1002000E050
:1003D0000120C0B2FFF7BFFE094800F0E3FD094865
:1003E00000F060FE73486D49086005B0F0BD000084
:1003F000A902002090020020A80200209B000020FB
:10040000440200201C020020500200205102002063
:10041000DC3A0008FF0100000000F03F000020402F
:1004200000408F40F2B582B0170008990A9C0B9DDE
:100430000C9EC0B2002802D0012854D0A5E00020B4
:100440005D4A10705D48C1620B205D49087018005C
:10045000FFF730FE5B490870584807630020574992
:100460000870E0005549488004205449087118205C
:1004700052494871002051498871EDB2002D03D0D6
:1004800000204E49C87102E001204C49C871F6B203
:10049000002E03D0F2204949487202E0012047496A
:1004A000487201204549887200F095F94248007869
:1004B000002801D1002000E00120C0B2FFF74BFE70
:1004C0003D4800F06FFD3D4800F0ECFD6846A9494D
:1004D0000CC90CC008390838684600F046FBA6482D
:1004E00000F072FB51E00120334A107008002C4AE2
:1004F00010702C48C05C2C4A107009982B4A107060
:10050000002B03D10B2905D00C2903D0012B05D1D9
:100510000C2903D101202649087002E0002024495B
:1005200008700120254908701D480078052803D06F
:100530001B480078062809D1A4B20C2C03DA0C2041
:100540001E49888104E01D48848101E01B488481A4
:100550001A488573AC4800781849C8731748067460
:100560000F981649487400F036F9134800780028AF
:1005700001D1002000E00120C0B2FFF7ECFD0E48E1
:1005800000F010FD0D4800F08DFD6946082008566A
:1005900001F076F91098A7490860F7BD8C02002099
:1005A00054020020EC3A00085502002056020020B8
:1005B00057020020FFFF0000440200201C02002020
:1005C000500200205102002001207047F2B586B091
:1005D00001000020C9B2002902D0012948D0C7E09B
:1005E0009548C079002802D10024002501E00024AC
:1005F000924D9148407A022803D100268027FF05BA
:1006000001E0002600278C4840888B494979C9B20F
:10061000C908C9B2401800F06DFE22002B0001F09D
:1006200039F904000D006846007E00F06DFE2200DE
:100630002B0001F02FF932003B0001F02BF90022D2
:10064000B84B00F0D2FE04000D007B48C06A00F0F9
:100650005BFE02000B002000290000F065FE002276
:100660009E4B00F0C2FE01F0EFF900F0A7FF7FE023
:10067000AD48AE490978302251434018AD49097858
:100680004A4208214A438018603803C804AA03C2BA
:10069000083A6948808900F037FE0022A64B01F035
:1006A000F9F804AA0CCA00F0A0FE06000F00624888
:1006B000807B012801D1142400E000249F480078A9
:1006C000002801D0022500E000259F480078042181
:1006D00001F0E2F90800001D00F00CFE0290039109
:1006E0006846017E082041430A00924800780421B0
:1006F000484311000A1A5048017C10204143501809
:100700001C30001B00F0F6FD009001918948007834
:10071000401B0421484300F0EDFD02000B0000984F
:10072000019900F001FE01F011FA029A039B00F01A
:100730005CFE0022002301F035FA01D300200021E5
:100740000022784B01F0A6F802000B0004A803C8B1
:1007500000F04BFE32003B0001F09CF802000B0061
:100760007DA003C801F096F801F036FA00F026FFEC
:1007700007B0F0BDE43A0008FF01000038B50500FD
:100780000C00002300227149704800F035FB00F096
:10079000B2FB012802D12848C47301E02648047244
:1007A000254800F07FFC00222100C9B2280000F09B
:1007B000D3F931BD80B56A48006800906846694643
:1007C000097804220A430270009800F01EFA022001
:1007D00000F084FD01BD80B5002000F022FA01BDCB
:1007E00010B50400002300225949594800F004FBC9
:1007F00058480078002803D05A4800F038FA02E040
:10080000A00100F034FA10BD9B00002010B50400D8
:10081000002300224E494E4800F0EEFA4D48007881
:10082000002803D04F4800F036FA02E0A00100F0A3
:1008300032FA10BD880200201C0200200000F03FA8
:1008400080B500F042FA01BD80B500F05DFA01BD4F
:1008500010B50C0000F009FB200040B201F010F8C8
:1008600000F060FA10BD80B500F097FC00B202BD48
:1008700080B5C9B280B200F069FF01BD80B580B219
:1008800000F09CFF02BD80B5D2B292B280B200F0FF
:1008900030FF01BD80B5D2B292B280B200F05DFFF0
:1008A00001BD80B5C0B2012809D1804801707F48E0
:1008B00000787F49C8737E4800F0F4FB0CE07C4868
:1008C000C079012808D179480170784800787849C2
:1008D0000872774800F0E6FB01BD000000408F4041
:1008E00010B504007348047072480078714948706C
:1008F0000120FFF730FCE4B2002C09D03421E820BD
:10090000C00000F023FF44216B4800F01FFF08E007
:100910001421E820C00000F019FF2421664800F0EF
:1009200015FF10BD000020400000002055020020EF
:10093000032070475402002000001140570200209D
:1009400001205F4908707047560200200102000034
:10095000FFFF0000A80200202B8716D9CEF7EF3F3B
:10096000F03A0008FFFFFF0038B501219020C005D4
:1009700001F0AEF9012800D097E00020504908703E
:1009800000F05EFA04004F4800F09AFCA4B2E007C1
:100990000CD54A480068002808D04848006800681C
:1009A000002803D04548006800688047A4B2A0072B
:1009B0001FD5FF226946444800F0B4F8434800F0D0
:1009C0001FFC3E480068002813D03C48006880683F
:1009D00000280ED03D480D2143563C480C2142567C
:1009E00012B26846017889B23748344D2D68AD6837
:1009F000A847A4B260060CD530480068002808D08B
:100A00002E4800680069002803D02C48006800695F
:100A10008047A4B2200612D52848006800280ED0CE
:100A2000264800688069002809D0210089B2090A97
:100A30000800C007C00F2149096889698847A4B226
:100A4000A00522D500F053F804280DD11B480068FA
:100A500000281AD0194800684068002815D01748A7
:100A600000684068804710E000F041F805280CD18C
:100A700012480068002808D010480068C0680028A4
:100A800003D00E480068C0688047A4B2A0060CD509
:100A90000A480068002808D008480068C068002894
:100AA00003D006480068C068804731BD9B00002025
:100AB0001C02002090020020410700009402002048
:100AC000A9020020FFFF00009C000020740200200B
:100AD00080B500F08BFD00F0A7FD002000F0A1F82C
:100AE000012000F0BBF901208D49087001BD8C4840
:100AF0000078704780B5FFF7FAFF002803D0FFF7B2
:100B0000F6FF062803D100F08FFD00F0C1FE00F0D3
:100B100082FD01BD80B50A00D2B20100002000F0C4
:100B200056FE01BD70B582B006000C001500002015
:100B3000694608706946200000F03DFB2078EDB260
:100B4000854201D2012006E0227831006846007813
:100B500000F066FE002076BD10B51400C9B2FFF7A4
:100B6000D9FF200000F06FF810BD80B50822010009
:100B7000D820C00000F0BDFD002002BD80B50100FE
:100B800089B2090A6A4611706946487000F0B3F9E3
:100B9000002805D1022269468C4800F0AAFDFFE733
:100BA00001BD80B5010089B2090A6A461170694623
:100BB000487000F0A0F9002805D102226946844857
:100BC00000F097FDFFE701BD10B50400002100F023
:100BD00092F9002818D1D720C00000F0EFFDFE21C7
:100BE00001400A00A4B2200000120100C907C90F89
:100BF0001143C9B2D720C00000F0A8FD2100C9B23E
:100C0000744800F0A3FDFFE710BD01B500F041FE00
:100C100001226946842000F01DFD0020B7490870BC
:100C200001BD01B501226946802000F013FD684630
:100C30000078002803D101203949087002E0022021
:100C40003749087001BD80B50421AC4A117001001C
:100C5000090C6A4611700100090A6A46517069461A
:100C6000887003226946832000F0F4FC01BD80B542
:100C70000521A24A11700100090C6A461170010099
:100C8000090A6A46517069468870032269468220C3
:100C900000F0E0FC01BD10B582B004000520204941
:100CA00008709621BB4800F051FD2000000C6946F9
:100CB00008702000000A6946487068468470032264
:100CC0006946822000F0C6FC13BD00B583B0020067
:100CD000120C6B461A700200120A6B465A706A4672
:100CE00090700800000C6A46D0700800000A6A463E
:100CF00010716846417106226946942000F0AAFCF2
:100D000006207E49087007BD80B500220021C5205D
:100D100000F0A0FC07207949087001BD0000000028
:100D2000AA02002080B500220021D12000F092FC10
:100D300001BD01B5012269469F2000F08BFC01BD79
:100D400001B501226946A02000F084FC01BD01B577
:100D500001226946962000F07DFC01BD80B58E49D8
:100D6000884206D3E12069460870E9206946487048
:100D700026E08A49884206D3D72069460870D820E1
:100D8000694648701CE08649884206D3C1206946FE
:100D90000870C5206946487012E0C049884206D3F1
:100DA00075206946087081206946487008E0BC4992
:100DB000884205D36B20694608706F2069464870E9
:100DC00002226946982000F045FC01BDBC060000E7
:100DD000BE060000B906000010B582B06C46207057
:100DE00068464170684682706846C370042269464E
:100DF000952000F02FFC13BD30B583B00400A4B2E1
:100E0000240A6D462C706C466070080080B2000A9F
:100E10006C46A0706846C170100080B2000A694636
:100E2000087168464271180080B2000A69468871EC
:100E30006846C37108226946082000F00BFC37BDE4
:100E400080B502226946122000F02BFC684600782B
:100E5000000269464978084380B202BD01B501220B
:100E600069469D2000F0F6FB01BD38B50400002066
:100E7000C0480078002805D12000FFF76FFF01204F
:100E8000BC490870200000F03FFA04000D00002269
:100E9000B94B00208021C90501F0CAF902000B00FE
:100EA0000020B64900F040FA02000B0020002900A3
:100EB00000F03AFA00F082FB0100090E6A46117058
:100EC0000100090C6A4651700100090A6A469170D6
:100ED0006946C87004226946862000F0BBFB31BD1C
:100EE00001B568460078A6490870012269468A2043
:100EF00000F0B0FB01BDC04800787047AA02002096
:100F000038B504000D00002000F0C0FC012820D1FD
:100F100064B20F2C06D10123012200210620FFF725
:100F20005BFF05E00123012200210420FFF754FFAD
:100F300064B20E2C01DB0E2406E064B20220C04332
:100F4000844201DA0224E4431821AC4800F0FEFB9D
:100F500015E00123002207210420FFF73DFF64B2C2
:100F6000172C01DB162406E064B20220C043844241
:100F700001DA0224E4433821A04800F0E7FB684688
:100F8000047068464570022269468E2000F062FBBC
:100F900031BD0000AC08000001E9A43581F8A93298
:100FA0008144E52DF0B585B00400002002A80021A1
:100FB000002206C00838724800782178884202D0A2
:100FC0002078FFF78DFF2078002802D001284FD02D
:100FD00063E00825606800F097F902000B0000202C
:100FE000664900F0A1F90022AD4B00F0FEF900F0D7
:100FF000E5FA0100090C6A4611720100090A02AA09
:10100000517002A98870207B02A9C870607B02A978
:1010100008710022584B00208021C90501F008F911
:1010200006000F00A06800F06FF900900191002009
:10103000524932003B0000F077F902000B000098A3
:10104000019900F071F900F0B9FA0100090C02AA47
:1010500051710100090A02AA917102A9C871EDB289
:101060002A0092B202A98B2000F0F4FA05B0F0BD7C
:101070000425207C69460872607C02A94870A07C27
:1010800002A98870E07C02A9C870EDB22A0092B271
:1010900002A98B2000F0DEFAE8E7E7E7010B6B1B03
:1010A00041FC541910B584B00400002068460C219E
:1010B00001F0FEFA324800782178884202D0207888
:1010C000FFF70EFF2078002802D001283BD050E027
:1010D000607AF12807D17348FFF750FD7248FFF797
:1010E00060FD02200BE0607AF22807D16F48FFF71D
:1010F00045FD6F48FFF755FD062000E0607A0922A4
:10110000618889B2090A6B46197061886B4659700B
:1011100021796B46997061796B46D970A1796B46DC
:101120001971E1796B465971217A6B46997169465B
:10113000C871A07A69460872D2B292B269468C2010
:1011400000F088FA1FBD0622A08980B2000A694615
:101150000870A08969464870A07B69468870E07B6A
:101160006946C870207C69460871607C6946487190
:10117000E2E7E7E7AC0200200000394080847E41CE
:10118000AB02002080B56A461070684641700222AA
:1011900069468F2000F05EFA01BD80B50020012273
:1011A0006946152000F07DFA684600784142080043
:1011B000401040B202BD38B504000D00022269465D
:1011C000132000F06EFAFFF796FE01280CD1394883
:1011D00000F0F4FAC0B2C009C0B2002804D036480A
:1011E00000F0ECFA207002E0684600782070684653
:1011F0004078287031BD0000AB020020E7080000F5
:1012000010B582B0040003226946142000F049FAA8
:10121000FFF771FE20702078002802D0012812D03C
:1012200036E0684600782071684640784142080000
:101230004010A071684680784142080040106071FB
:101240000020A0602BE06846007841420800401072
:10125000207368464078802807DA68464078C0B234
:10126000800860730D20205608E068464078FF2112
:10127000C9434018801060730D202056684680785E
:10128000414208004010A0730C480068206106E04D
:1012900014210022200001F0E3F90F20207013BD7B
:1012A00000004040FFFF0000058000000F1D00000F
:1012B000211000000407000002070000A002002027
:1012C00080B5010089B2090A6A4611706946487002
:1012D00002226946022000F0BDF901BD00B50021DF
:1012E00003490968024A1268521A8242FAD300BDC1
:1012F00098020020010009D5F446404200F006F8AB
:101300000122D20711436047010000BF42221201AF
:10131000D21E004207D002D4521E0018FCD5C10ACA
:101320004005120589187047F0B40E005E40012593
:10133000ED072E40B446AE0ADF184C18F4423BD2FB
:10134000F74241D2640D43D07F0D38D0E41BC9026F
:10135000DB0229432B43CF0ADB0A0600B61A9F4162
:1013600004D2641EB6197F41B6185F416812800D21
:1013700024180018844222DAE80C0021B6197F41B3
:10138000B61A9F4102D2B6185F413F1C4041494105
:10139000F4D3241C21DD2405B6197F41B61A9F41E0
:1013A00005D33743C60737430026012F70416141FB
:1013B00066463143F0BC7047FCD1F74205D20020AD
:1013C000C14349054908F3E704D00020C143F1E7D0
:1013D0007F0DFAD000206146ECE72442FAD1401C90
:1013E00061410F03F6D30020E2E7F0B50E005E4046
:1013F0000125ED072E40B446AE0ADF184C18F44222
:1014000008D2F7420ED2640D01D07F0D12D1002018
:101410006146F0BD05D1F74201D87F0D05D100200E
:10142000C143F0BDFBD1640DF9D00020C143490593
:1014300049088FE0E419C902DB0229432B43DB0A88
:10144000460DC00231438E4630B487B295B27D431B
:101450002E0CADB2140C7C43A419260C2404254395
:101460009CB27C43A419190C7943270CC919A4B266
:101470000F043C43090C000C97B247432E0CBE19D5
:101480003543ADB2170C4743360CBF19A6B2BF198E
:101490003E043543240C3E0C36199FB24743BF1916
:1014A000BCB23E0C89191F0C47437F183E043443DD
:1014B000390C704680B297B247432E0CBE193543A3
:1014C000ADB2170C4743360CBF19A6B2BF193E0484
:1014D0003543240C3E0C36199FB24743BF19BCB2AA
:1014E0003E0C89191F0C47437F183E043443390CC6
:1014F00077463F0C90B278432E0C80190604ADB2AB
:101500002E43050CA0B22D18120C7A435019020C70
:1015100080B2240CA4189AB27A43121914042043FE
:10152000120C89181B0C7B43C91830BCEF0A3942D6
:1015300003D1B61940414941641E6F12BF0DE41B2F
:101540000BDBFF19BC4211DA240500274208AE412B
:101550007841614166463143F0BD641C05D1401CB1
:101560006141CF0201D34908F4E750E75DE730B4A9
:10157000012100220368001D002B0BD00468001D10
:101580000C4202D04D466D1E64192260241D1B1FA3
:10159000F0D0FAE730BC7047F4464A1805D200F0A4
:1015A0000FF801D580174008604700F009F80121C5
:1015B000C907884200D90800404260474A1812D241
:1015C000400DC90208430121C9070843520D4021BB
:1015D0000901521A521C06D452421F3201D4D04083
:1015E0007047C017704700207047FEE780B50A209B
:1015F000FFF774FE00220421A04800F076FB1420BF
:10160000FFF76CFE012204219C4800F06EFB0A20CB
:10161000FFF764FE01BD80B58021C900974800F046
:1016200057FB0128F8D001BD80B500228021490177
:10163000924800F05AFBC02001F06BF8002001F046
:1016400068F80122802149018C4800F04EFBFFF729
:10165000E2FF01BDF8B504000F001500FFF74AFADC
:10166000002280214901854800F03FFB2000C0B2E4
:1016700001F04FF8002604E0B6B2B85D01F049F879
:10168000761CB6B2ADB2AE42F6D30122802149013A
:101690007A4800F02AFBE4B2842C01D0FFF7BBFFAC
:1016A000F1BD70B506000D001400FFF723FA00220B
:1016B00080214901714800F018FB3000C0B201F0F0
:1016C00028F8002001F025F8002605E0002001F0B0
:1016D00020F8B6B2A855761CB6B2A4B2A642F5D38D
:1016E000012280214901654800F0FFFAFFF793FFCE
:1016F00070BD70B504000E001500FFF7FBF9002265
:10170000802149015D4800F0F0FA0D2001F001F858
:10171000200080B2000AC0B200F0FBFF2000C0B27F
:1017200000F0F7FF002404E0A4B2305D00F0F1FF08
:10173000641CA4B2ADB2AC42F6D3012280214901AF
:101740004E4800F0D2FAFFF766FF70BD02B50122E5
:10175000694680B2FFF7CDFF01BD70B504000E00F1
:101760001500FFF7C7F9002280214901434800F026
:10177000BCFA1D2000F0CDFF200080B2000AC0B2EC
:1017800000F0C7FF2000C0B200F0C3FF002000F04F
:10179000C0FF002405E0002000F0BBFFA4B23055DC
:1017A000641CA4B2ADB2AC42F5D301228021490140
:1017B000324800F09AFAFFF72EFF70BD80B5012283
:1017C000694680B2FFF7C9FF6846007802BD70B570
:1017D00006000D001400FFF78DF900228021490159
:1017E000264800F082FA0E2000F093FF3000C0B2CD
:1017F00000F08FFF002604E0B6B2A85D00F089FF7C
:10180000761C2000C0B2B6B280B28642F4D3012268
:1018100080214901194800F068FAFFF7FCFE70BD0D
:1018200070B506000D001400FFF764F90022802156
:101830004901124800F059FA1E2000F06AFF3000FA
:10184000C0B200F066FF002000F063FF002605E054
:10185000002000F05EFFB6B2A855761C2000C0B292
:10186000B6B280B28642F3D30122802149010348F7
:1018700000F03BFAFFF7CFFE70BD00000004004807
:1018800080B5022140B2FFF73BFB01BD022070474B
:1018900070477047F0B40125ED070F005F404FD44B
:1018A0008B4200D1824205D98446100062468C46A4
:1018B00019006346DF184C18640D7F0D3AD0661C82
:1018C000760537D0E61B352E34DCDB022B43DB0AF2
:1018D0000C0DC9022943C912202E0DDB1700203E32
:1018E00006D01F00F741F3405F400026012A7741F0
:1018F000C01871410DD217E01700F741F240574070
:10190000F3415A40B340F3405A40002680185941F1
:101910000AD3A21C52050FD0C207012F7241170033
:101920004008CB0718434908641C24054208AF410E
:1019300070416141F0BC7047641C21050020F9E74B
:101940006B4010E06B40ABE7F742F3D1E943F1E7BE
:101950002442EFD100200021ECE7F0B40125ED078F
:101960000F005F40EED40C00871A9C4105D2C01BCB
:10197000A141D219634169406B40AE0ADF184C188F
:10198000F442E1D2640D7F0DE2D0E61B362ED1DCAD
:10199000DB022B43DB0AA4460C0DC9022943C90A0A
:1019A000012E28DC04D1D6075208DF073A435B0832
:1019B000EF0A76429041994114D039423BD1B61991
:1019C00040414941761C394204D1761C00184941F6
:1019D0003942FAD0B9436746B74208D9A41B240557
:1019E0002143A7E70042EAD13642E8D1A2E7E40A60
:1019F000E10700209EE7202E0BDD203E1F00F34074
:101A0000F7415F40012A002257417E4298419141AF
:101A10000BE01700F741F2405740F3415A40B34002
:101A2000F3405A407E42904199410A0303D2641E1A
:101A3000B619404149410027641E24054208AE41C1
:101A400078416141F0BC704738B504004A00520D3E
:101A5000054DAA4207D0002A03D10A03120B1443F2
:101A600001D000F06FFE34BDFF070000F4460028EF
:101A700004D4494200F013F8404260474042002934
:101A800005D45FD000F00BF840424942604749421C
:101A900000F005F84942604703460B43E6D40022B4
:101AA000030A8B420BD203098B4219D243088B42A3
:101AB0002ED2411A00D20146524110467047FF22F1
:101AC00009023FD012068B4205D3121209028B4243
:101AD00001D31212090203098B4219D300E0090A4B
:101AE000C3098B4201D3CB01C01A524183098B42F7
:101AF00001D38B01C01A524143098B4201D34B01E0
:101B0000C01A524103098B4201D30B01C01A524142
:101B1000C3088B4201D3CB00C01A524183088B42C9
:101B200001D38B00C01A524143088B4201D34B00B2
:101B3000C01A5241884200D3401A5241CFD20146C6
:101B40001046704708B500F03DFE08BD4A00520D32
:101B5000FF239B009B1CD21A19DD35239B1A1EDD27
:101B60001300153B09DA9B41DB0AD340094201D43B
:101B7000401E59410020994370470022D243DA4069
:101B8000094202D4002380185941904370470B0D3D
:101B90005B0500D0024901D30121C907002070472D
:101BA0000000F03F30B4012464054D00EC420BD836
:101BB0005D00EC4208D80C001C436400044314434D
:101BC00004D28B4200D1824230BC7047FCD0994293
:101BD000FAD19042F8E7FEE74A00520DFF239B003E
:101BE0009B1CD21A19DD35239B1A1DDD1300153BF2
:101BF00009DA9B41DB0AD340094201D5401E594115
:101C00000020994370470022D243DA40094202D5AE
:101C1000002380185941904370474B00034300D084
:101C2000024900D200210020704700000000F0BFF0
:101C300070B5002200230024002246E001239340D7
:101C40000C681C409C423FD10B79012B02D00B79D0
:101C5000022B19D183680324150002267543AC407A
:101C6000A343836083684C79150002267543AC401A
:101C70001C438460838801249440A3438380838829
:101C80008C7994401C438480036803241500022649
:101C90007543AC40A343036003680C79150002262A
:101CA0007543AC401C430460C3680324150002263E
:101CB0007543AC40A343C360C368CC7915000226CA
:101CC0007543AC401C43C460521C102AB6D370BD8F
:101CD00000B502000020108A89B20140002901D01D
:101CE000012000E00020C0B200BD00B5D2B2002A41
:101CF00002D089B2816100E0018500BDF0B400230B
:101D00000023D2B20B005B075B0F042463439A40AD
:101D1000130089B20A00D21004246243821889B2E7
:101D20000C00E41004256C430419246A0F250E00EE
:101D30007607760F04277E43B540AC43146289B220
:101D40000A00D210042462438218126A134389B233
:101D5000C9100422514340180362F0BC70470000D0
:101D6000F90000083501000857010008A10100082A
:101D7000A9010008D10100080B0200082504000891
:101D8000C9050008CD0500087D070008B507000853
:101D9000D7070008E10700084908000851080008B3
:101DA00067080008710800087D0800088708000817
:101DB00095080008A3080008E10800083109000898
:101DC000690900080D08000841080008000000002B
:101DD000F8B50FB48AB00CA803C804AA03C20B98C4
:101DE0004000400D784988420CD1002069460880A7
:101DF0000B98000304D10A98002801D1012518E0AE
:101E0000022516E0012808DA0AA800F0DCFC012807
:101E100003DB002569460D800BE00B99BE4A0A40A2
:101E2000C34911430B916946BC4A801A08800025BA
:101E3000ED43002104A800F0E9FC040014980028F8
:101E400002D0002014990880002C06D10CA80CC8E0
:101E50000020002100F020FD15D0002D16D5009E99
:101E600036B2012E16D10AA803C80022B04B00F0EA
:101E700013FD08D0012C0DD10AA80CC80020A849D8
:101E800000F00AFD2ED10020A649B9E1022D03D1B0
:101E90000AA804E0012C5CDB022C02D10CA803C8C8
:101EA000AEE1012D1CD10B9800280D9802D400281A
:101EB0004CD535E0002809D4002C47D10021C94376
:101EC00004A800F0A3FC002840D53CE0002C27D15A
:101ED0000021C94304A800F099FC002820D51BE08C
:101EE000012C0AD1009E36B20D98002802D4012E92
:101EF0002CDA15E0012E13DA28E00D98002812D410
:101F0000002C0DD10021C94304A800F07FFC00285B
:101F100006D50B98002803D50020802109066FE123
:101F2000002000216CE100F0C9FC22210160002C9E
:101F30000CD10021C94304A800F068FC002805D595
:101F40000B98002802D50020AE4959E10020B7497E
:101F500056E10B98002809D5002C07D500F0AEFCFF
:101F6000212101600020C043410849E10AA803C8BB
:101F700000220023FFF716FE02D269468A800DE098
:101F80000AA803C88022120651400AAA03C20021EF
:101F9000C94304A800F03AFC69468880012E15D197
:101FA0000AA803C898A20CCA00F090FC0ED2002424
:101FB00000265C4F0AA80CC800208021C905FFF745
:101FC00014FA0AAA03C21CE0FF0700000AA80CC802
:101FD00000208F49FFF709FA0022554BFFF75AFC02
:101FE000FFF7DAFA0400203C2000FFF783F9002213
:101FF000884BFFF7FAF900224D4BFFF74BFC060028
:102000000F0000BF8EA06101401806900AA803C807
:1020100032003B00FFF7A1FC04000D000AA803C832
:1020200032003B00FFF736FC02000B0020002900C5
:10203000FFF77AF904AA03C204A803C804AA0CCAC9
:10204000FFF7D3F908AA03C20AA830C008A803C83A
:1020500000F056FC08AA0CCAFFF7C7F90AAA0CCA76
:10206000FFF77BFC04000D0000202E4932003B00EE
:10207000FFF773FC00228023DB05FFF7B6F922008F
:102080002B00FFF707FC04AA0CCAFFF7AEF9020009
:102090000B000AA803C8FFF7FDFB08AA03C208A8A3
:1020A00003C85FA20CCAFFF73FF904AA03C2009855
:1020B00000B2FFF71FF906000F00069803C83200B0
:1020C0003B00FFF7E7FB04AA0CCAFFF7E3FB04AAF7
:1020D00003C20CA80CC804A803C8FFF786F902AA1B
:1020E00003C202A803C800224B4B00F0EFFB73D3DE
:1020F00002A803C80122494BFFF754FD6FD902A87B
:1021000003C80022002300F0E1FB02A80CC80BD298
:10211000002003490EE000BFFFFF0F80FE03000018
:102120000000E0BF0000F03F0020014902E000BFD6
:102130000000E03FFFF7AEFBFFF72EFA040008A80F
:1021400003C80CAA0CCAFFF750F902AA03C20698EA
:10215000083003C8069A10320CCAFFF79BFB0CAA82
:102160000CCAFFF742F92EA20CCAFFF73EF902AAE9
:102170000CCAFFF78FFB02AA03C2069803C83200FD
:102180003B00FFF787FB0CAA0CCAFFF72EF90600ED
:102190000F002000FFF7AEF802000B0030003900FE
:1021A000FFF7DBFB1EA20CCAFFF71FF902AA0CCA3D
:1021B000FFF770FB02AA03C21498002801D0048024
:1021C000002400940022184B02A800F0EBFB00282A
:1021D00002D0012803D00AE00020002101E0002005
:1021E000124902AA03C200F069FB22210160019892
:1021F00000B2002802A803C802D080221206514073
:102200000FB0F0BD0000F0FFCD3B7F669EA0E63F23
:10221000000050400000903F0000E0C00000E0409F
:10222000EF39FAFE422EE63F0000F03F0000F07F5B
:1022300010B582B000240094FFF7CAFD1CBD000059
:10224000000000000000F0BF00000000000000805F
:1022500000000000000000800000000000000000FE
:10226000000000C05294EEBF00000048204E51BE56
:10227000000000F86467BCBC000000000000000023
:10228000000000208133EDBF00000080B3DB14BEEE
:10229000000000506706A3BC000000000000000022
:1022A000000000D0E9DCEBBF00000008C39259BE7B
:1022B00000000080B0D3B8BC0000000000000000A7
:1022C00000000070F98FEABF000000C0A51028BE12
:1022D000000000E8BFC0B0BC00000000000000002B
:1022E00000000070284CE9BF00000060134B42BEA4
:1022F000000000C03D20B8BC00000000000000004D
:1023000000000050FA10E8BF000000C05FF62BBECE
:10231000000000905C71A7BC0000000000000000FD
:1023200000000020FCDDE6BF000000C0F8F154BE54
:1023300000000018E9F6B9BC000000000000000031
:10234000000000D0C3B2E5BF00000070E43254BE0C
:1023500000000050DB06B4BC0000000000000000DC
:1023600000000010EF8EE4BF00000020F36252BEB8
:10237000000000C02A879ABC000000000000000096
:10238000000000B02272E3BF000000F0E8E056BE9B
:1023900000000028352DBDBC00000000000000003A
:1023A000000000000A5CE2BF000000B0FA8E41BEEF
:1023B00000000040AE6FBDBC000000000000000047
:1023C00000000000564CE1BF000000F015CD5FBEDC
:1023D00000000000141C90BC000000000000000081
:1023E00000000040BD42E0BF00000030F93457BE9D
:1023F000000000E06C1E93BC000000000000000024
:10240000000000E0F57DDEBF000000B08A535EBE34
:1024100000000080DA77AABC000000000000000085
:10242000000000C09D81DCBF00000000FFA226BEAE
:102430000000006057E2B0BC000000000000000097
:1024400000000060F98FDABF000000580A8151BE19
:10245000000000F05F60B8BC000000000000000059
:102460000000000098A8D8BF000000607A7F45BE39
:10247000000000D05433A3BC0000000000000000A6
:10248000000000600FCBD6BF000000D091CB40BE53
:10249000000000406D1BA0BC000000000000000018
:1024A000000000A0FBF6D4BF00000098C5CE52BECD
:1024B000000000003A397EBC00000000000000006F
:1024C000000000E0FE2BD3BF0000004073872BBE4E
:1024D00000000000926879BC0000000000000000CD
:1024E00000000040C069D1BF00000058F16353BE36
:1024F00000000080438D7CBC000000000000000054
:1025000000000080D85FCFBF000000181F8354BEBA
:10251000000000B03F42A2BC00000000000000002C
:102520000000008067FCCBBF00000060FAFF53BED4
:1025300000000050E00DB8BC0000000000000000EA
:102540000000000098A8C8BF000000607A7F35BE78
:10255000000000C0543393BC0000000000000000E5
:1025600000000000DC63C5BF00000058D6FF54BE69
:1025700000000000396490BC000000000000000072
:10258000000000C0AD2DC2BF00000080A45915BEE0
:10259000000000E0484BABBC000000000000000061
:1025A000000000801A0BBEBF00000050BF3C5ABEA6
:1025B000000000A0B364B6BC0000000000000000F2
:1025C0000000008004D6B7BF00000040BBCF36BE7D
:1025D0000000008076CEA8BC0000000000000000D3
:1025E0000000008032BBB1BF000000402A0043BEA3
:1025F00000000028C60CBDBC000000000000000068
:10260000000000009473A7BF000000182B3B59BEC8
:10261000000000C0E55DA5BC000000000000000057
:1026200000000000EE4397BF000000A0E6C340BEDC
:1026300000000020958DB5BC0000000000000000E7
:10264000000000000000008000000000000000808A
:1026500000000000000000800000000000000000FA
:102660001206130A1A43130C1A4300BF094205D07D
:10267000830705D00270401C491EF9D17047000045
:10268000130030B414001500103902D310393CC0C7
:10269000FCD2490700D30CC000D504C0890002D386
:1026A0000280801C002900D5027030BC70470000F9
:1026B0000022E5E700B585B0002069460880822049
:1026C000400069464880E020C000694688800020BC
:1026D0006946088100206946C880802080006946DC
:1026E000488118206946888100206946C8810720F2
:1026F000694608826946124800F0B0FA8021490113
:102700000F4800F0E6FA01210D4800F0D4FA05B0B8
:1027100000BD10B504000221094800F0F7FA0028B6
:10272000F9D02100C9B2064800F0DBFA01210448C3
:1027300000F0ECFA0028F9D0014800F0D7FA10BDFB
:102740000038004000B583B06A4603C201216846E4
:1027500000F05CF8002819D10021684600F056F816
:10276000002827D00021C943684600F04FF8002810
:1027700020D00198002868460CC803D50020C0214D
:10278000090613E000208021C9050FE000216846FA
:1027900000F03CF800280DD00198002868460CC8CD
:1027A00002D50020054901E000200549FFF772F835
:1027B0006A4603C2684603C803B000BD0000F0BF0C
:1027C0000000F03F704730B401004B6880221206D1
:1027D0001A4001201B031B0B4B600BD10B68002B15
:1027E00008D10DE00B686400DD0F25434D605B00F0
:1027F0000B60401E4C68E302F4D523031B0B4B60B7
:102800004B681A434A6030BC7047FEE7426852008A
:10281000520D1F4B9A4209D14168090304D1006847
:10282000002801D1012070470220704743685B00F7
:1028300002D10368002B28D0164B9A1A521A012A8B
:1028400023DB352A07DB41688022120611404160F4
:102850000021016016E00121D306DB0E9940491EDC
:10286000920608D542680A404168514041600368B9
:102870001343002103E003680B40016859400160E5
:10288000002B02D00020C04370470020704700BFDB
:10289000FF0700003304000090420ED1A4460C0054
:1028A0001C430128644107D0994205D14C006415AE
:1028B000641C644000D30C036446704780B5024832
:1028C00000F02FFA02BD00009400002030B4012473
:1028D00064054D00EC420BD85D00EC4208D80C00BA
:1028E0001C4364000443144304D2994200D1904233
:1028F00030BC7047FCD08B42FAD18242F8E7FEE749
:1029000038B504000D0019A003C822002B00FEF703
:102910006CFD18A20CCAFEF7BDFF22002B00FEF7CB
:1029200064FD16A20CCAFEF7B5FF22002B00FEF7CD
:102930005CFD14A20CCAFEF7ADFF22002B00FEF7CF
:1029400054FD12A20CCAFEF7A5FF22002B00FEF7D1
:102950004CFD10A20CCAFEF79DFF22002B00FEF7D3
:1029600044FD0EA20CCAFEF795FF34BDF7DE29BF69
:10297000D8F8C23FF4B3FECC1A99C33F62CB68D9F2
:102980006F46C73FC6C912DAC471CC3F4AE98A9480
:102990002449D23FF75F97999999D93FBC5555552E
:1029A0005555E53FF1B586B014001D00C0C8300094
:1029B000390000F0B7F9694608802000290000F0CE
:1029C000B1F9009909B2002906D500284DD4022892
:1029D00005D1069830C024E00229F8D121E0002872
:1029E0000AD10022894B30003900FFF755FF0FD084
:1029F000069830C00020FFE0012814D10022804B4F
:102A000030003900FFF748FF02D0069830C04DE093
:102A1000FFF754FF212101600020C0434108069ABE
:102A200003C20220E8E0009800B200280FD1069807
:102A300030C00C99069800F093F9040002D0012CE4
:102A400000D0D8E0FFF73AFF22210160D3E0002256
:102A50006E4B30003900FFF71FFF0DD12000290019
:102A6000FEF7C3FC069A03C220E0300039000022C2
:102A7000644BFFF72BFF08D2002320002900FEF74C
:102A8000B4FC069A03C20020B6E001225E4BFFF7B9
:102A900089F80DD800225D4B20002900FEF7A5FC27
:102AA000069A03C2FFF70AFF222101600120A3E07A
:102AB00057A20CCAFEF799FC00220023FFF706FF7D
:102AC00001D2554B00E0644BFEF7E4FEFEF764FDD7
:102AD0000290FEF70FFC6A4603C2684603C84FA285
:102AE0000CCAFEF782FC02000B0030003900FEF732
:102AF00034FF06000F00684603C84AA20CCAFEF75E
:102B000074FC02000B0030003900FEF726FF0600BF
:102B10000F0046A20CCAFFF745F807D80022454B24
:102B2000FFF7D4FE02D22000290054E032003B001F
:102B3000FEF75BFC6A4603C2684603C83EA20CCAA5
:102B4000FEF753FC3EA20CCAFEF7A4FE02000B00E7
:102B5000684603C8FEF749FC04AA03C2684603C8D6
:102B600039A20CCAFEF741FC39A20CCAFEF792FE4C
:102B700002000B00684603C8FEF737FC0022364B04
:102B8000FEF788FE02000B0030003900FEF72DFC36
:102B900006000F0004A80CC83000FEF77BFE0022E0
:102BA000164BFEF777FE0090019104A803C832008F
:102BB0003B00FEF7D2FE0022104BFEF76BFE020038
:102BC0000B0000980199FEF7AFFB02000B002000FC
:102BD0002900FEF70AFC069A03C202980C994118D4
:102BE000069800F0BDF8040001D0012C03D1FFF7D6
:102BF00065FE22210160200007B0F0BD0000F03F1B
:102C00000000F0FF00C89CC000C89C400000F07F9E
:102C1000FE822B654715F73F0000E0BF000000F87B
:102C2000422EE63FF2E4D5BCE7E84B3EFEFFFFFF55
:102C3000FFFF8FBC0000903C112E5781A03F503FFA
:102C40005843128C8F71BC3F4BE8A541B752013FEE
:102C50000BBDF3DAE8708C3F0000E03F30B4002396
:102C600003881A00C1239B0113401A000B88CC89EA
:102C70001C43CB8823430C891C434D8925438B89F6
:102C80002B431343038083881A001B4B13401A0005
:102C90008B88134383800A8A028203881A00174BA9
:102CA00013401A004B8813430380818B144A0A4057
:102CB000828330BC704700B5C9B2002904D00188B6
:102CC00040220A43028003E001880E4A0A40028043
:102CD00000BD82880C4B1340838082881143818021
:102CE0007047002202000C32117070470021010071
:102CF0000C31087870470000FFF00000FBFF000077
:102D0000FFF70000BFFF0000FFEF000000B502006A
:102D100000201089084201D0012000E00020C0B24C
:102D200000BD704702004800400D0C4B98420CD08B
:102D3000002801D0002004E00803000B024302D069
:102D40000120C0437047002070470803000B024376
:102D500001D0022070470120704700BFFF0700002C
:102D600070B504000D0060684000400D3F4EB04259
:102D700007D16068000302D12068002816D0022025
:102D800070BD002804D12000FFF71DFD01286BDA7B
:102D9000012D0DDB311A8D420AD36068002802D55F
:102DA0000020334901E00020310503C4012070BD3B
:102DB0004142A942616806DA2E4A0A4028180005F5
:102DC0001043606047E080221206114062681203DF
:102DD000120B80235B0313436360401E2D180020F9
:102DE0002A003532352A02D36160206070BD00228E
:102DF0001E23DB439D4204DA20352268636823608A
:102E00006060684211D0521E9241D243D20F2023FB
:102E10001B1A25689D402A432568C54066689E4068
:102E20002E4326606368C340636060680843606047
:102E30001148824206D28020000682420ED12078BC
:102E4000C0070BD52068401C20602068002805D1F1
:102E50006068401C60600020C04370BD60688842AC
:102E6000F9D120680028F6D1002070BDFF070000CE
:102E70000000F0FFFFFF0F8001000080F0B540B2BE
:102E8000002821D5974B40B20207120F083A92084A
:102E900004246243934C40B205072D0F083DAD0852
:102EA000042675436459FF258607B60F08277E431D
:102EB000B540AC438901C9B28007800F082568433B
:102EC0008140214399501BE0C34A40B203009B0854
:102ED00004246343D258FF238407A40F08256C43BE
:102EE000A3409A438901C9B283079B0F0824634317
:102EF00099401143B84A40B2800804235843115006
:102F0000F0BD80B5411E80225204914201D30120C0
:102F10000EE0401E7449086003210020C043FFF703
:102F2000ADFF0020AD4908600720C74908600020B8
:102F300002BD80B5002000F0F0F9A0218903002037
:102F400000F0DEF9012000F0E8F9192000F03AFA6B
:102F50000028FAD0022000F0F3F901BD80B5BB488B
:102F60000068FA218900FEF79AFDFFF7CAFF0028E2
:102F700000D0FEE701BD80B501219C20C00300F018
:102F8000F1F90121964800F00DFA0121CF4800F037
:102F9000F9F901BD80B5FFF7CCFFFFF7DFFFFFF7C1
:102FA000EAFF00F043FAFFF785FB01BD80B5002280
:102FB000802109029020C005FEF797FE0A20FEF747
:102FC0008DF90122802109029020C005FEF78DFEB7
:102FD00001BD10B58AB0FFF7DDFF9D489D4908602F
:102FE0009D489C4988609D489A4948609C489949F9
:102FF000C8609C48974908619648B5490968884760
:10300000B448B349C9688847B3480890002007907E
:1030100000200690002005900120049000200390DD
:103020000820029004200190092000900023002233
:1030300016210120A64CE469A04700200990002039
:1030400008900020079000200690012005900020A5
:10305000049000200390002002900820019000209E
:1030600000900423092200210120994CA469A04763
:103070009A480078002822D05020994908704920A9
:10308000974948704E209649887047209449C870E7
:1030900001220421924800F0B8FA92490880914830
:1030A000008880B2000A8E4908718E4800888C49D9
:1030B000487106218A48864A926A904704E0FA20BD
:1030C00080008349496B88478148006E8047FBE751
:1030D00080B57F48006B8047FA2080007C49496BAF
:1030E000884701BD1CED00E014E000E070B514005D
:1030F0001D007D4A11807C490A887C4E0100300009
:1031000000F0B6FA7A4804707A4805707048006B8F
:1031100080477248007800282BD0042276497348F3
:1031200000F0D4FA002801D1FFF740FF50206C498D
:10313000087049206A4948704E20694988704720C4
:103140006749C87001220421654800F05EFA6549AC
:1031500008806448008880B2000A614908716148AB
:1031600000885F49487106215D48594A926A904734
:1031700030E0042261495D4800F0A8FA002824D11B
:10318000FFF714FF5020564908704F2054494870EB
:103190004E205349887047205149C87001220421AC
:1031A0004F4800F032FA4F4908804E48008880B2FC
:1031B000000A4B4908714B4800884949487106216B
:1031C0004748434A926A904704E0FA208000404909
:1031D000496B884770BD000000E400E018E000E0A3
:1031E00000400010704780B53948006B80473B486D
:1031F0000078002822D050203949087049203849E9
:1032000048704E203649887047203549C8700122E1
:103210000421334800F0F9F9324908803148008828
:1032200080B2000A2E4908712E4800882C49487146
:1032300006212B48264A926A904704E0FA20800033
:103240002349496B884701BD10E000E09000002051
:10325000D130000858020020ED300008E5310008A8
:10326000E73100086932000880B51948006B8047D3
:103270001A480078002822D05020194908704920A7
:10328000174948704E201649887047201449C87065
:1032900001220421124800F0B8F9124908801148AF
:1032A000008880B2000A0E4908710E4800880C4957
:1032B000487106210A48064A926A904704E0FA20BB
:1032C00080000349496B884701BD000001400000B0
:1032D000601D0008400ECF19B80B00009A000020B6
:1032E0009C010020A402002098000020DC010020A6
:1032F000A6020020A7020020D43A0008CC3A000819
:10330000154A1268154B1340134A1360124A12688B
:103310000143114310480160704700B5C0B2002856
:1033200007D00C4800688021490401430948016026
:1033300005E0084800680A4901400648016000BDF0
:10334000002105490968032291430843010002480E
:10335000016070470010024004100240FF7FC2FF6E
:10336000FFFFFFFE00B5C9B2002905D02949096851
:1033700008432849086004E0264909688143254834
:10338000016000BD00B5C9B2002905D02249096815
:1033900008432149086004E01F49096881431E4829
:1033A000016000BD00B5C9B2002905D01B490968FC
:1033B00008431A49086004E018490968814317481E
:1033C000016000BD00B50021002200210100C9B24A
:1033D0004909C9B2002902D111490A680BE0012943
:1033E00002D10B490A6806E0022902D10D490A6898
:1033F00001E00D490A68C0B2C106C90ECA40D00733
:1034000001D5012100E000210800C0B200BD00008C
:103410002010024014100240181002401C100240FC
:1034200000100240241002403410024000B583B066
:1034300000206946887101206946C87101206946EB
:10344000487101206946087180204001009069465A
:103450006048FEF7EDFB0122802149015D48FEF73F
:1034600044FC00206946887101206946C87101202A
:103470006946487101206946087104200090694638
:103480005448FEF7D5FB0020694688710120694643
:10349000C871012069464871002069460871012001
:1034A000009069469020C005FEF7C2FB00206946E7
:1034B000887101206946C871012069464871002061
:1034C000694608710120009069464248FEF7B0FB4A
:1034D00000206946887101206946C871012069464B
:1034E00048710020694608718020C000009069463C
:1034F0003848FEF79DFB0020694688710120694627
:10350000C87101206946487102206946087180200F
:103510008001009069462F48FEF78AFB00220D21AA
:103520002C48FEF7EBFB00206946887101206946B4
:10353000C8710120694648710220694608718020DF
:103540000002009069462348FEF772FB00220F211B
:103550002048FEF7D3FB00206946887101206946A8
:10356000C8710120694648710220694608718020AF
:10357000C001009069461748FEF75AFB00220E2151
:103580001448FEF7BBFB002069468871012069469C
:10359000C8710120694648710120694608710220FE
:1035A000009069460B48FEF743FB0020694688718E
:1035B00001206946C87101206946487101206946A9
:1035C000087180200002009069469020C005FEF737
:1035D0002FFB07BD0004004830B5002302E0400087
:1035E00049005B1CDBB2082B0DDA80B20400241208
:1035F00080252C40C9B280250D406540002DEED0BD
:1036000040005040ECE780B230BDF1B50F0016002D
:10361000002400200025F6B2012E01D1104D00E05B
:10362000104DF6B2012E01D10F4800E00F480024E2
:1036300008E02A0092B20099E4B2095D80B2FFF777
:10364000CBFF641CE4B2FFB2BC42F2D3F6B2012E4F
:1036500001D180B203E080B2C143080080B2F2BD64
:103660000580000021100000FFFF00000F1D00007A
:10367000124207D08B0706D00B78491C0370401C00
:10368000521EF7D87047830706D00B78491C037089
:10369000401C521EF9D1704770B4103A03D378C958
:1036A000103A78C0FBD2530701D318C918C001D50E
:1036B00008C908C0D20704D30B880380891C801C6A
:1036C000002A01D50B78037070BC704710B402E07B
:1036D000401C491C521E002A09D00B7804789C42D9
:1036E000F6D002D20020C04302E0012000E000201A
:1036F00010BC704780B54B48006801210143494820
:10370000016049480068494901404748016045480F
:103710000068474901404348016042480068454904
:1037200001404048016040480068434901403E482C
:103730000160424800680F218843404908604048C2
:103740000068404901403E4801603F48006801214F
:1037500088433D49086000203C49086000F001F8BA
:1037600001BDC0B500200190002000902D480068E8
:103770008021490201432B4801602A4800688021CA
:103780008902084000900198401C01900098002890
:1037900004D10198A021C9018842EED121480068D6
:1037A000800302D50120009001E0002000900098E5
:1037B000012834D11120264908601B4800681A49A5
:1037C00008601948006818490860174800682149CE
:1037D0000140154801601448006890210903014325
:1037E000114801600F4800688021490401430D48D9
:1037F00001600C4800688001FBD50B48006803217C
:1038000088430949086008480068022101430648C6
:103810000160054800680C2101400829F9D103BD69
:103820000000000000100240041002400CB8FF0825
:10383000FFFFF6FEFFFFFBFFFFFFC0FF2C10024063
:1038400030100240ACFEFFFF34100240081002406E
:1038500000200240FF7FC0FFC01200001F000000D8
:10386000A816000017000000841C00000F000000D4
:10387000E42500001E000000B42D0000160000002A
:10388000083900000E0000002C4C00001D00000054
:10389000685B000015000000747200000D0000005D
:1038A000589800001C00000034B70000140000000D
:1038B000E8E400000C000000783101001B0000006B
:1038C000686E01001300000034CA01000B00000004
:1038D000286202001A00000040DB02001200000013
:1038E0003C9303000A000000C0C20400190000005D
:1038F00060B3050011000000382007000900000037
:1039000020A1070000000000704700B5FEE77047E7
:1039100070470D480068401C0B4908600B48006860
:10392000401C0A490860704770477047704780B56F
:103930000121074800F018F8002803D001210448AD
:1039400000F027F801BD0000980200209C02002032
:103950000020004080B5022000F020F8002802D0AE
:10396000022000F028F801BD00B502000020002070
:103970000023108A0840928911400B0080B2002871
:1039800004D09BB2002B01D0012000E00020C0B287
:1039900000BD89B2CA4302827047FEE700B501004C
:1039A0000020064800680140002901D0012000E005
:1039B0000020C0B200BD01490860704714040140F6
:1039C000094880F3088804200168090E1F229142EB
:1039D00005D1064801210160054800210160054824
:1039E0008047054800470000B0060020181002403C
:1039F00000000140F5360008C13A000830B401214A
:103A00000268001D002A0FD00368C31844680830FC
:103A10000C4202D04D466D1E64191D6825601B1DA9
:103A2000241D121FECD0F8E730BC704710B50749D1
:103A300079441831064C7C44163404E0081D0A68A9
:103A4000891888470100A142F8D110BD0800000084
:103A5000280000001BDBFFFF140200009C00002078
:103A60000000000099FFFFFF9C000000A000000084
:103A7000000000200000000000F00BF8002801D03A
:103A8000FFF7D4FF0020C046C046FFF7A2FA00F0BF
:103A900002F80120704780B500F002F801BDFEE792
:103AA0000746384600F002F8FBE7FEE780B5C0465F
:103AB000C046024A11001820ABBEFBE726000200F8
:103AC000C046C046C046C046FFF7D6FF50494E47E5
:103AD00000000000504F4E4700000000C194C1009C
:103AE00000000000C194C1000000000004050600B1
:103AF00000000000FEE7FEE7FEE7FEE7FEE7FEE768
:103B0000FEE7FEE7FEE7FEE7FEE7FEE7FCA9F1D2EF
:103B10004D624040FCA9F1D24D623040FCA9F1D287
:103B20004D622040FCA9F1D24D621040FCA9F1D2B7
:103B30004D620040FCA9F1D24D62F03FFCA9F1D2E8
:103B40004D623040FCA9F1D24D622040FCA9F1D277
:103B50004D621040FCA9F1D24D620040FCA9F1D2A7
:103B60004D62F03FFCA9F1D24D62E03FFCA9F1D2D9
:103B70004D622040FCA9F1D24D621040FCA9F1D267
:103B80004D620040FCA9F1D24D62F03FFCA9F1D298
:103B90004D62E03FFCA9F1D24D62D03F006CDC02E7
:083BA00000000000400001FFDD
:0400000508003AC1F4
:00000001FF
