:020000040800F2
:10000000600600203D0100084902000827020008A0
:1000100000000000000000000000000000000000E0
:10002000000000000000000000000000FF020008C7
:1000300000000000000000004B020008050400085A
:100040006D010008000000006D0100086D0100084E
:100050006D0100081D0200086D0100086D01000817
:10006000000000006D0100086D0100086D0100082E
:100070001B0200086D0100086D010008000000006F
:10008000870400080000000000000000850400084C
:100090006D0100086D0100086D0100086D01000888
:1000A0006D0100086D010008FD02000889040008C8
:1000B0006D01000800F002F800F030F80CA030C824
:1000C000083824182D18A246671EAB4654465D46D4
:1000D000AC4201D100F022F87E460F3E0FCCB6466E
:1000E0000126334200D0FB1AA246AB4633431847E1
:1000F000AC030000BC030000002300240025002600
:10010000103A01D378C1FBD8520700D330C100D5D3
:100110000B6070471FB51FBD10B510BD00F04BF848
:100120001146FFF7F7FF00F0B0F900F063F803B4F1
:10013000FFF7F2FF03BC00F069F800000F4880F3FE
:1001400008880F480168090E0E4A914205D10E48F1
:100150000E4901600E480F4901600F4880470F4863
:100160000047FEE7FEE7FEE7FEE7FEE7FEE70000EA
:100170000B480C490C4A0D4B7047000060060020EC
:10018000040000001F0000001810024001000000E1
:10019000000001400000000009040008B50000084C
:1001A0006000002060060020600200206002002045
:1001B000704770477047754600F024F8AE4605005A
:1001C00069465346C008C000854618B020B5FFF701
:1001D000CFFF60BC00274908B6460026C0C5C0C591
:1001E000C0C5C0C5C0C5C0C5C0C5C0C5403D49002B
:1001F0008D46704710B50446C046C0462046FFF7FE
:1002000096FF10BD004870470000002001491820EB
:10021000ABBEFEE72600020070477047704710B57E
:1002200000F0DAF810BD00BFFEE7000070B5054829
:10023000446825460146086880F3088800BFA8473F
:1002400070BD0000002000087047704710B50246DE
:100250000021002300205111002902D10C4C2368F9
:100260000BE0012902D10A4C236A06E0022902D1DF
:10027000074C636A01E0064C636BD106C90E01248A
:100280008C401C40002C01D0012000E0002010BD5B
:1002900000100240002807D0074909680122120611
:1002A0001143054A116006E003490968012212065C
:1002B0009143014A1160704700100240074A52689A
:1002C0007B23DB039A43054B5A601A465268034668
:1002D0000B431A43014B5A60704700000010024064
:1002E00001460020044A50688008800002460A4304
:1002F0001046014A50607047001002407047704736
:100300000CB50020019000903148006801210904DB
:1003100008432F49086000BF2D48006801214904A7
:10032000084000900198401C01900098002804D1DA
:100330000521090301988842EED125480068012172
:1003400049040840002802D00120009001E000206C
:1003500000900098012839D111201E4908601C48DE
:1003600040681B4948600846406848600846406845
:100370007F21C90388431649486008464068112117
:10038000090408431249486008460068012109062B
:1003900008430F49086000BF0D4800680121490665
:1003A00008400028F8D00A484068800880000849C2
:1003B000486008464068022108430549486000BF7C
:1003C000034840680C2108400828F9D10CBD000002
:1003D000001002400020024010B50020FFF75AFF35
:1003E0000521C9040020FFF769FF0120FFF752FF34
:1003F00000BF1920FFF72AFF0028FAD00220FFF7DC
:100400006FFF10BD7047000010B51B480068012148
:1004100008431949086008464068184908401649C9
:1004200048600846006816490840134908600846B5
:1004300000680121890488430F4908600846406824
:100440003F21090488430C4948600846C06A0009F6
:100450000001C8620846006BFF21543188430649F9
:1004600008630846406B40084000486300208860ED
:10047000FFF746FF10BD0000001002400CB8FF0857
:10048000FFFFF6FE70477047704710B5FFF7C7FED5
:1004900072B6FFF7CBFE002010BD0000AC040008D0
:0C04A0000000002060060000F8000008CA
:04000005080000B53A
:00000001FF
