:020000040800F2
:10000000E0060020C900000867090008650900082B
:1000100000000000000000000000000000000000E0
:10002000000000000000000000000000151700089C
:100030000000000000000000E30A0008252100087D
:10004000F900000800000000F9000008F9000008AD
:10005000F90000089D070008F9000008F9000008F1
:1000600000000000F9000008F9000008F90000088D
:1000700071070008F9000008F900000800000000FE
:100080009B210008000000000000000099210008EA
:10009000F9000008F9000008F9000008F90000085C
:1000A000F9000008F90000087D160008E9210008A1
:1000B000F90000080348854600F048FB0048004767
:1000C00051250008E00600200C4880F308880C4801
:1000D0000168090E0B4A914205D10B480B4901609A
:1000E0000B480C4901600C4880470C480047FEE76C
:1000F000FEE7FEE7FEE7FEE7FEE70000E006002081
:10010000040000001F000000181002400100000061
:10011000000001400000000039210008B50000087F
:1001200030B50B46014600202022012409E00D468F
:10013000D5409D4205D31D469540491B2546954017
:1001400040191546521E002DF1DC30BD03460B430D
:100150009B0703D009E008C9121F08C0042AFAD27D
:1001600003E00B780370401C491C521EF9D2704703
:10017000D2B201E00270401C491EFBD2704700223F
:10018000F6E710B513460A4604461946FFF7F0FF96
:10019000204610BD30B504460020034600E05B1C3D
:1001A000934203D2E05CCD5C401BF8D030BD000030
:1001B000F0B507460846584087B0C00F0490480085
:1001C0000E46590040084908BC1A884105D23846F5
:1001D00031461E4617460B4602465800400810435B
:1001E0004CD0300D039040055900400D490D05904D
:1001F000401A0290402872DA18030121000B090509
:100200000843019004980092002805D001995242B9
:100210000020884100920190029840210A1A019919
:10022000009800F0C1F905460C466B4607CB00F07C
:10023000DCF9C0197141039A0E0D0023D7175640FF
:100240001A467A40164344D0049A002A2DD0029AC6
:10025000012A039A15DC1205C01A914101263605C0
:10026000001C7141D20F059ED207009301920296A5
:100270002A46234600F0D9F907B0F0BD384631468A
:10028000FAE71605224A0F46B218C01AB7410121F3
:100290000905001C4F4100187F411146181879418B
:1002A000E20F10436D19644113E0E2076D08154336
:1002B0006408C2071443039A01261205C01A91412B
:1002C0003605001C7141CE07400830434908C0186C
:1002D00051412A46234600F09BF9CDE7FFE70498F9
:1002E00001224000C117121A00238B4104983146A5
:1002F000C417381AA141EEE730B40124E407634083
:1003000030BC55E730B40124E407614030BC4FE70E
:100310000000E0FFF0B51FB488B00B9909980024E5
:1003200048400999C00F490049080991C0070B9935
:100330000090490049080B9109990898A64608437E
:100340001CD00B990A98084318D009980124400042
:10035000420D4800410D099824050003000B20437D
:1003600009900B980003000B20430B9050181C4978
:100370004018002201901446104605E00020014676
:100380000DB0F0BD032801DA034600E003239C46CC
:10039000C11A0AAE0AE05F0008ADED5B4F00F75BE3
:1003A0007D430027AA187C41491C5B1E6145F2DD94
:1003B000410004AB5A522104120C0A43240C401C85
:1003C0000828DFDB019802900099704601910090A7
:1003D000059B049A0799069800F027F9D0E70000DA
:1003E0000DFCFFFFF0B50C465C4085B0E40FE40760
:1003F00003944C00002664085900944649080246BC
:100400000296224321D062460A431ED06200570D55
:100410004A000E032303550D012402462C492405EE
:10042000781B1B0B360B4018234326436146009074
:100430001C46501AB44103D30098401C009002E0BF
:10044000921800985B41002803DA0020014605B0AD
:10045000F0BD0020012109050746864611E06446EB
:100460001D46141BB54106D36546521BB341744665
:1004700007430C43A646CD07400849082843921875
:100480005B4105460D43EAD11046184313D0604640
:10049000194650407140084306D06046101AB341D7
:1004A00006D20122002306E000220123DB0702E03E
:1004B0000122D2435310009874460105381C614153
:1004C000029C039D0019694100F0A2F8BFE70000FB
:1004D000FD03000070B54B005B0803430BD04B00DD
:1004E0005C0D002633466542B341D417AD1AA341D3
:1004F00002DB0020014670BD12053018514170BD6D
:100500000EB5C217C10F5040CA0740180021054B55
:100510000293019200910A460B4600F086F803B060
:1005200000BD0000330400000EB505490291002112
:1005300000910A460B46019100F077F803B000BD28
:10054000330400004A0009030123090B1B0519436A
:10055000094B10B5520D9A4201DA002010BD064B2E
:1005600034339A4203DC9A1A00F02EF810BD034986
:100570005118884010BD0000FF030000CDFBFFFFB5
:1005800010B5002904DB0124E40740428C412146D8
:10059000002B04DB1C460123DB075242A341994296
:1005A00000D1904210BD000010B5202A04DB0146A6
:1005B000203A9140002010BD914020239C1A034610
:1005C000E3401943904010BD10B5202A04DB0846D3
:1005D000203AD040002110BD0B46D340D04020240B
:1005E000A21A91400843194610BD10B5202A06DB17
:1005F000CB170846203A1041C1170B4306E00B46C3
:100600001341D0402024A21A91400843194610BD3E
:1006100010B5002B08DA0024401C614192185B41A0
:100620001A4301D14008400010BDF0B51FB482B09C
:1006300005460C0003D0084601F080FE02E001F000
:100640007DFE20300246009021462846FFF7ACFF91
:10065000049B059A04460F4618431143084314D0DF
:10066000184610431BD0009840210A1A18460599D5
:10067000FFF7AAFF05460E46009A05990498FFF772
:1006800093FF084305D0012004E02046394607B017
:10069000F0BD0020C11705430E432C43374300999A
:1006A0000E986305401A7905E40A00220C43FD0AFE
:1006B0000A3002D500200146E9E701051019694119
:1006C0000C9C0D9D00196941FFF7A2FFDFE70000B8
:1006D000F8B50546480040080C46284304D06000A1
:1006E000184A400D904201DD2846F8BD15493539BC
:1006F000884210DC88420BDB290D200308432903C4
:10070000014305D0E00F1049C00741180020F8BD93
:1007100000200146F8BD161A4020821B28462146BB
:10072000FFF742FF07460091284621463246FFF771
:100730004BFF3A46009BFFF76BFF3246FFF734FF53
:10074000F8BD0000330400000000F03F064C012516
:10075000064E05E0E36807CC2B430C3C9847103469
:10076000B442F7D3FFF7AAFCB0270008D02700084F
:10077000704730B50023C40BCD09E401ED01AC4254
:1007800003D04004000C504001E04004000C490636
:10079000090E5B1CDBB2082BEDD330BD7047F0B502
:1007A00000220325012393400C681C409C422AD15F
:1007B0000C79012C01D0022C12D1876854002E46EE
:1007C000A640B74387604E79A6408468264386607A
:1007D00084889C43848084888B7993401C438480E4
:1007E000066853002C469C40A64306600E790768B5
:1007F0009E403E430660C668A643C660CC799C40D6
:10080000C3681C43C460521C102ACBD3F0BD10B582
:100810004B07DB0E9A40C90889000818016A0F24AB
:100820009C40A1430162016A1143016210BD02466E
:100830000020128A0A4200D001207047002A01D00D
:100840008161704701857047FEB500256846857156
:100850000124C47144710471102000900927FF061F
:1008600069463846FFF79BFF012210213846FFF703
:10087000E5FF68468571C4714471047102260096D3
:1008800069462948FFF78BFF68468571C47144713A
:100890000571009469463846FFF781FF6846857107
:1008A000C47144710571009669463846FFF777FFB9
:1008B00068468571C47144710571009669461B488C
:1008C000FFF76DFF68468571C47144710671202081
:1008D000009069463846FFF762FF0022052138463E
:1008E000FFF795FF68468571C471447106718020D9
:1008F000009069463846FFF752FF0022072138462C
:10090000FFF785FF68468571C47144710671402008
:10091000009069463846FFF742FF0022062138461C
:10092000FFF775FFFEBD00000014004800040048FA
:1009300003490A680B689B1A8342FBD37047000087
:100940003000002010B501F0D5FB4B20C00101F0B4
:10095000B1FC01F023FC00F0E1F8FFF775FF00F0B7
:1009600067FE10BDFEE77047F8B514461D46284ED9
:10097000B1800A4601462748FFF7E8FB7470B5705E
:10098000254D286B8047234C30785027403C002869
:1009900019D0042221491F48FFF7FCFB277049208A
:1009A00060704E20A0704720E07001220421204694
:1009B00000F002FA3081010A21716071AA6A0621F1
:1009C00020469047F8BD15490422491F1148FFF7FA
:1009D000E1FB002804D07D20696BC0008847F8BD8A
:1009E00027704F2060704E20A0704720E0700948AB
:1009F00001220421403800F0DFF93081010A217121
:100A0000607104480621AA6A40389047F8BD00008A
:100A1000240000204C0100209026000889260008B0
:100A200070B5114D286B8047104E3078002816D0D5
:100A30000F4C50202070492060704E20A07047203D
:100A4000E07001220421204600F0B6F93081010A4D
:100A500021716071AA6A06212046904770BD7D20F1
:100A6000696BC000884770BD9026000824000020F4
:100A70000C01002070B5114D286B8047104E307866
:100A8000002816D00F4C50202070492060704E2056
:100A9000A0704720E07001220421204600F08CF96C
:100AA0003081010A21716071AA6A062120469047AF
:100AB00070BD7D20696BC000884770BD902600081E
:100AC000240000200C01002010B5044C206B80474E
:100AD0007D20616BC000884710BD00009026000893
:100AE00070477047054A002903D05169014351619D
:100AF0007047516981435161704700000010024006
:100B0000054A002903D091690143916170479169B9
:100B100081439161704700000010024010B527200A
:100B200001214004FFF7DEFF01210248FFF7E8FF43
:100B300010BD00000110000012480168012211439D
:100B400001604168104A1140416001680F4A11403C
:100B500001600168012292049143016041683F22D3
:100B6000120491434160C16A09090901C162016B24
:100B7000074A11400163416B490849004163002164
:100B800081607047001002400CB8FF08FFFFF6FEBE
:100B9000ACFEF0FFF8B5044600215C4E70680C22F4
:100BA00010405B4D002821D05A4A042820D0082844
:100BB00020D00C2839D025607068F0221040000940
:100BC000554B1F5C20680246FA409446626072688A
:100BD00007273F023A40120A9B5C6246DA40A26055
:100BE000336BDB0524D44D4BE36029E02560E3E75C
:100BF0002260E1E771680F208004014070680323E0
:100C0000DB0318408F0CBF1C00280AD0F06A0107D4
:100C1000090F491C1046FFF783FA7843014621600B
:100C2000CAE73F4839464143F9E73E482060C3E7F9
:100C300073685B0402D45308E36001E09308E36047
:100C4000336B5F06384B03D4374F1237276100E010
:100C50002361376BFF0601D4656100E06061376B8B
:100C6000BF070ED0376BBF07BF0F012F0BD0376BFD
:100C7000BF07BF0F022F08D0376BFF43BF0706D057
:100C800006E0A26104E0A06102E0A36100E0A561CA
:100C9000376BBF03BF0F0FD0376BBF03BF0F012FE1
:100CA0000CD0376BBF03BF0F022F09D0376BBF03C8
:100CB000BF0F032F06D006E0E26104E0E06102E02E
:100CC000E36100E0E561376B3F03BF0F0FD0326B8C
:100CD0001203920F012A0CD0306B0003800F022800
:100CE00009D0306B0003800F032806D006E0226293
:100CF00004E0206202E0236200E02562306B00061F
:100D000002D408486062F8BD6162F8BD001002407C
:100D100000127A00001BB70014000020809FD5004D
:100D200000093D00006CDC0200800000034600204A
:100D300059090B4A00290CD001290CD002290CD0EA
:100D4000516BDA06D20E012393400B4200D00120F2
:100D500070471168F5E7116AF3E7516AF1E700009F
:100D600000100240012206491206002803D008683C
:100D7000104308607047086890430860704700009F
:100D80000010024010B5054A53687B24E403A343D6
:100D90005360536808430343536010BD0010024082
:100DA000034A516889088900014351607047000077
:100DB0000010024001207047F8B506460F46154660
:100DC0000024012D05D00B480090012D03D00A48C6
:100DD00009E00A48F8E70A4805E0315D009AFFF7A4
:100DE000C8FC641CE4B2BC42F7D3012D01D0C0435F
:100DF00080B2F8BD211000000F1D0000058000002A
:100E0000FFFF000000280FD000210B4ACB00D35871
:100E100083420BD84B1CDB00D358834206D9491CB4
:100E2000C8008018007970471F207047491CC9B25C
:100E30001529EBD3FEE700000027000810B500F0ED
:100E4000D3FC032809D0042803D0052803D00020B0
:100E500010BD022010BD012010BD032010BD0320D5
:100E60007047000010B50E4C20610E4800F04CFD9C
:100E7000002000F0A9FF012000F023FF0021084618
:100E800000F0F4FD0421002000F0DCFF0648002300
:100E90001A46014600F02BFE0020A07010BD000095
:100EA00040000020BD0F0008FFFF0000F8B509203A
:100EB0000121C006FFF7BBFC012865D1334D00209E
:100EC000A87000F084FC0446314800F075FCE0078F
:100ED00006D02869002803D00068002800D0804789
:100EE000A00718D5FF2269462A4800F0CBFC294804
:100EF000143800F081FC286900280CD08668002E88
:100F000009D024480D2314380C22C3568256684653
:100F100001782048B047600606D52869002803D02C
:100F20000069002800D0804720060AD528690028DB
:100F300007D08169002904D0E043C005C017401CD8
:100F40008847A00517D500F04FFC042804D000F016
:100F50004BFC052808D00EE0286900280BD040681B
:100F6000002808D0804706E02869002803D0C06820
:100F7000002800D08047A00606D52869002803D0A5
:100F8000C068002800D08047F8BD00004000002065
:100F9000FFFF0000A001002070B50D46012400F005
:100FA000A7F8284600F088F8002000F033F8012068
:100FB000FFF7BEFC00F04EFA204670BD014901204B
:100FC000887070474000002070B50025012000F0B7
:100FD0008FF8002000F0A8FE00240120FFF7A8FCF5
:100FE00000F066FCC007C00FA0400543641CE4B2DB
:100FF000202CF2D300F02EFA284670BD10B500F078
:10100000E2FC10BD10B500F0E6FC10BD10B500F01C
:101010004FFC10BD10B50446084800231A4601468F
:1010200000F065FD06484078002803D0054800F030
:101030007BFE10BDA00100F077FE10BDFFFF000099
:1010400040000020FFFFFF0010B5044608480023C1
:101050001A46014600F04BFD06484078002803D0B0
:10106000054800F073FE10BDA00100F06FFE10BD3A
:10107000FFFF000040000020FFFFFF0070B50546A5
:101080000C460B4800231A46014600F030FD00F0E4
:10109000F3FB0849012809D00C72064800F0A2FDB4
:1010A00000222146284600F0D9FC70BDCC73F4E73D
:1010B00001020000A002002010B500F009FE10BDE2
:1010C00010B5094B094A012808D0D079012804D16C
:1010D00019701172104600F085FD10BD1970D173A2
:1010E000024800F07FFD10BD40000020A00200205B
:1010F00010B50A4C012805D0002000F0CDFD0020DD
:10110000607010BD012000F0C7FD61782078814239
:10111000F7D0607000F004F810BD0000430000201C
:1011200070B504460D48047044700120FFF7E0FFDD
:101130001D208001451C002C07D0342100F045FF04
:101140004421284600F041FF70BD142100F03DFF0E
:101150002421284600F039FF70BD00004300002024
:10116000FFB583B01546159B109A0F465B494B702F
:101170000F99002902D059490A7002E05749FF220D
:101180000A70574E314628313446203402910028E7
:1011900014D001286FD1002000F02AFE0E98C0B2B2
:1011A00000F0B9FC01212172E8B220764D4AD25DEF
:1011B0006276069AA276002F5FD062E0002000F0EF
:1011C00017FE00202072F5620B2020753846FFF7CD
:1011D00019FE6075002030700D98C00070800420EA
:1011E0003071182070710020B0710F9801214840B3
:1011F000F0713A4F387830721198002802D0F220FE
:10120000707200E071720020B07200F032F9207A42
:10121000002801D0012000E00020FFF769FF0298BC
:1012200000F080FC2E4800F0DDFC2FA003C80191E7
:101230000090684600F0E3FD2D4800F045FE28468A
:10124000FFF772F902460B4600202A49FFF7CAF859
:101250000322FFF73FF904460D460E98FFF764F9A5
:1012600022462B46FFF756F80022234BFFF752F891
:10127000FFF768F9F86007B0F0BD0B2D23D00C2DF7
:1012800021D0012F01D10C2D1DD00022E27631702A
:1012900005281AD0062818D00D98B0810F98B07381
:1012A0000E4C2078F07311983074149870740120EB
:1012B000FFF71EFF029800F035FC094800F092FC91
:1012C0000E48E060D7E7E176E1E70D980C2802D2FE
:1012D0000C20B081E2E70D98B081DFE740000020EC
:1012E000A0020020FC260008C194C10000000000FC
:1012F000FF0100000000F03F00408F40FFFF0000B2
:1013000010B500F03BFD10BDFFB583B007460E9E43
:101310000C98454D294628312C4620340291002F47
:1013200002D0012F77D139E000272772E8620B2025
:1013300020751846FFF766FD6075059828632F70C5
:10134000F00068800420287118206871AF710F992F
:1013500001204140E9711099002902D0F2216972FF
:1013600000E06872A87200F084F8207A002801D0AA
:10137000012000E00020FFF7BBFE029800F0D2FB46
:10138000294800F02FFC29A003C80191009068466D
:1013900000F035FD274800F097FD3CE00122227265
:1013A000C1B22176244FFF5C67760D9FA776002B94
:1013B00003D10B281DD00C281BD0012B01D10C28E8
:1013C00017D00020E0762A70052914D0062912D003
:1013D000AE810F98A87319480078E87310982874A4
:1013E0001398687400F045F8207A00280AD001208C
:1013F00009E0E276E7E70C2E02D20C20A881E8E7AC
:10140000AE81E6E70020FFF773FE029800F08AFB4A
:10141000054800F0E7FB049800F080FC07491498A9
:10142000886007B0F0BD0000A0020020C194C10098
:1014300000000000FF010000FC2600084000002022
:1014400010B50C4600F044FC204600F067FC00F0AC
:10145000F1FC10BD08B50020009069460878042111
:1014600008430090009800F0A1FC0220FFF760FA0A
:1014700008BD10B5002000F0A7FC10BD10B500F0AD
:10148000FFFA10BDF3B585B002460020002A2CD02B
:10149000012A63D15A4C3022607E0C23001F504336
:1014A000584A8218207E0490181AC0001018C0C82C
:1014B000204620388089FFF737F80022524BFEF78C
:1014C00077FE32463B46FEF725FF03910290A07E51
:1014D0008007800F001DFFF727F801910090E17E43
:1014E0000498002943D0022142E045482038C06AD0
:1014F000FFF71AF806460F460698FFF715F8044658
:101500003F480D46203841884079C0080818FFF749
:101510000BF83B4A203AD279002A21D000223B4BDB
:10152000FEF746FE22462B46FEF742FE344A203A9C
:10153000527A022A17D000221346FEF739FE032200
:10154000FEF7C8FF32463B46FEF74CFF0022304B09
:10155000FEF7E0FE01F092F8FEF7F4FF07B0F0BDF1
:1015600000221346DCE7002201239B07E5E7002168
:10157000401A8000FEF7C4FF044606980D46C100DD
:1015800004988000091A1E482038027C807B1201D2
:10159000891801281AD00020081A1C30FEF7B0FF65
:1015A00022462B46FEF71EFF00F0FEFE019B009A2E
:1015B000FEF7B0FE04460D4600221346204629469B
:1015C000FEF7DEFF04D22046294603E01420E3E7BD
:1015D0000020014600220F4BFEF7EAFD32463B4653
:1015E000FEF798FE039B029AFEF7E2FD0A4A0B4BB8
:1015F000FEF7DEFD00F03CFFFEF7A4FFAEE70000C3
:10160000C002002058000020000011400000F03F00
:1016100000408F40000020402B8716D9CEF7EF3FC7
:1016200010B500F0D2FC10BD10B500F0D4FC10BD18
:1016300010B586B000206A469080FF210531D18028
:101640000721090211819081508101214902D18134
:1016500018211182508207209082074C01A9204650
:1016600000F020F8A114204600F048F8012120469F
:1016700000F005F806B010BD003001407047402270
:10168000002903D0018811430180704701889143EC
:10169000018070470246002012890A4200D00120D2
:1016A0007047000030B50388C122920113400A88B8
:1016B000CC890D892243CC882C4322434C89224378
:1016C0008C8922431A4302808288094B1A408B88F6
:1016D000134383800A8A0282028804239A4349883A
:1016E00011430180818B034A1140818330BD00008A
:1016F000FFF00000FFF70000007B70478288034B7B
:101700001A40828082880A4382807047FFEF00007F
:1017100001737047704770477047000008B519495A
:10172000884205D9E12069460870E920487022E026
:101730001549884205D9D72069460870D8204870D5
:1017400019E01249884205D9C12069460870C520B0
:10175000487010E00E49884205D975206946087026
:101760008120487007E00B49884204D96B20694604
:1017700008706F20487002226946982000F002FC31
:1017800008BD000000E9A43580F8A9328044E52DA9
:10179000000B6B1B40FC541910B500F025F8002815
:1017A00003D000F021F8062803D100F0B1FBFFF7C9
:1017B000B3FF00F0A1FB10BD08B5010A6A46117025
:1017C000507002226946104600F0DCFB08BD08B5E7
:1017D00002226946122000F0D1F86946087849785B
:1017E0000002084308BD000001484078704700002F
:1017F000E80000200220704738B5044603226946FD
:10180000142000F0BBF800F037F82070002808D052
:10181000012816D014212046FEF7B1FC0F202070BD
:1018200038BD6846007820716846407840424010D4
:10183000A071684680784042401060710020A0602E
:1018400038BD6846007840424010207368464078B2
:10185000802802D28008607303E0FF3801388010CE
:1018600060736846807840424010A0730148406829
:10187000206138BDE80000200148807870470000F2
:10188000E8000020F8B505460E46144600200090FA
:101890006946304600F018F83278A24201D901209A
:1018A000F8BD68462946007800F040F80020F8BDF1
:1018B00008B501226946152000F060F868460078F6
:1018C0004042401040B208BD38B504460D460222E1
:1018D0006946132000F052F8FFF7CEFF01280AD125
:1018E000084800F070F8C00905D00648801E00F0D6
:1018F0006AF8207002E068460078207068464078F8
:10190000287038BD0407000010B500F08FF800F013
:10191000FFFA002000F058FA012000F0E1F8024937
:101920000120487010BD0000E8000020F8B5044612
:101930000D461646FFF730FF0927FF06002210214B
:101940003846FEF77BFF1E2000F0BAFB204600F071
:10195000B7FB002000F0B4FB002405E0002000F0FD
:10196000AFFB2855641CA4B2B442F7D30122102166
:101970003846FEF763FF00F0BFFAF8BDF8B504463D
:101980000D461646FFF708FF0927FF060022102123
:101990003846FEF753FF204600F092FB002000F08F
:1019A0008FFB002405E0002000F08AFB2855641C12
:1019B000A4B2B442F7D3012210213846FEF73EFF0D
:1019C00000F09AFAF8BD08B50122694600F003F864
:1019D0006846007808BDF8B504460D461646FFF780
:1019E000DBFE0927FF06002210213846FEF726FFFE
:1019F0001D2000F065FB200A00F062FBE0B200F061
:101A00005FFB002000F05CFB002405E0002000F0FC
:101A100057FB2855641CA4B2B442F7D3012210210D
:101A20003846FEF70BFF00F067FAF8BD10B50A2044
:101A3000FEF77EFF084C002202212046FEF7FEFE44
:101A40001420FEF775FF012202212046FEF7F6FE64
:101A50000A20FEF76DFF10BD0014004810B51446B3
:101A600000F028F9204600F0D3F910BD08B56A4609
:101A700010705170022269468F2000F083FA08BD71
:101A800010B500221146C52000F07CFA014907205C
:101A9000487010BDE800002008B5010A6A461170C0
:101AA0005070FFF7E9FE002804D10222694602487F
:101AB00000F091FA08BD0000BE06000008B5010A5A
:101AC0006A4611705070FFF7D7FE002804D1022239
:101AD0006946024800F07FFA08BD0000BC0600001D
:101AE00001B5012269469D2000F04CFA08BD7CB585
:101AF000050A6C4625706070080AA070E170100A33
:101B000020716271180AA071E371082269461046BB
:101B100000F038FA7CBD01B501226946A02000F032
:101B200031FA08BD7CB5044600200090019024499C
:101B300020788978884201D000F0AEF8207800281B
:101B40000FD001280CD10422207C69460870607CEB
:101B50004870A07C8870E07CC8708B2000F012FA7E
:101B60007CBD08256068FEF7DFFC02460B460020BE
:101B70001449FEF737FC0522FEF7ACFCFEF7E2FC49
:101B8000010C6A461170010A51709070207BD07070
:101B9000607B1071A068FEF7C7FC00220A4BFEF7BD
:101BA00021FCFEF7CFFC010C6A465171010A9171CC
:101BB000D0712A4669468B2000F0E4F97CBD000014
:101BC000E800002080847E418084EE3F38B56C467A
:101BD00020706170A270E37004226946952000F0C5
:101BE000D1F938BD3EB50446002000900190029026
:101BF000244920788978884201D000F04DF8207877
:101C0000002814D0012811D10622A0896B46010AB0
:101C100019705870A07B9870E07BD870207C187188
:101C2000607C587169468C2000F0ACF93EBD607A4A
:101C3000F12802D0F22808D00EE01348FFF73EFF4B
:101C40001248FFF729FF022006E01148FFF736FF90
:101C50001048FFF721FF0620092261886B46090A18
:101C60001970A1785970217999706179D970A17929
:101C70001971E1795971217A9971D871A07A187224
:101C8000D0E70000E8000020FFFF00000580000012
:101C90000F1D00002110000001B5684604490078BE
:101CA0008870012269468A2000F06CF908BD0000A6
:101CB000E800002010B50A460146002000F03EF979
:101CC00010BD01B501226946962000F05BF908BD00
:101CD00038B505460F4C2078002804D12846FFF778
:101CE0001DFD012121702846FEF71EFC00220A4B33
:101CF000FEF778FBFEF726FC010E6A461170010C18
:101D00005170010A9170D07004226946862000F05B
:101D100039F938BDE80000208084EE3F10B502217B
:101D200000F090F810BD000008B5074A0521517079
:101D3000010C6A461170010A5170907003226946C5
:101D4000822000F01FF908BDE800002038B50446E5
:101D50000849052048709621074800F036F9200C04
:101D600069460870200A48708C700322822000F0B7
:101D700009F938BDE8000020AC0800001CB5020CD1
:101D80006B461A70020A5A709870080CD870080ACC
:101D90001871597106226946942000F0F3F802493F
:101DA000062048701CBD0000E800002001B5FFF7C8
:101DB000B2FC01226946842000F0E4F801490020C9
:101DC000487008BDE800002001B501226946802066
:101DD00000F0D8F8684601780448002902D00221B2
:101DE000417008BD0121417008BD0000E8000020DD
:101DF00001B5012269469F2000F0C4F808BD10B566
:101E000001461B200822800100F0E5F8002010BDEB
:101E100008B5074A04215170010C6A461170010A85
:101E20005170907003226946832000F0ABF808BD22
:101E3000E800002010B500221146D12000F0A2F8E1
:101E400010BD0000F8B504460D460020FFF7D2FC97
:101E500002271C4EFF43012809D00123002207213D
:101E60000420FFF7B3FE162C1CDD16241DE00F2CFA
:101E700009D001231A4600210420FFF7A7FE0E2CEB
:101E800008DB0E2409E001231A4600210620FFF793
:101E90009DFEF4E7BC4200DA3C461821304600F0D3
:101EA00094F806E0BC4200DA3C463821304600F0A7
:101EB0008CF8684604704570022269468E2000F056
:101EC00061F8F8BDE708000070B50446FFF7D4FCE0
:101ED000002810D1D725ED002846FFF774FD4008F3
:101EE0004000E105C90F0143284600F06EF8E1B259
:101EF000681C00F06AF870BD10B5044C0221204641
:101F0000FEF795FC0128F9D010BD00000004004840
:101F100010B50924E406002210212046FEF78EFCAD
:101F2000C02000F0CDF8002000F0CAF801221021F6
:101F30002046FEF783FCFFF7DFFF10BDF8B504462F
:101F40000D461646FFF728FC0927FF060022102140
:101F50003846FEF773FC0E2000F0B2F8204600F081
:101F6000AFF8002404E0285D00F0AAF8641CA4B2D5
:101F7000B442F8D3012210213846FEF75FFCFFF788
:101F8000BBFFF8BDF8B507460D461646FFF704FC43
:101F9000092000221021C006FEF750FC384600F050
:101FA0008FF8002404E0285D00F08AF8641CA4B2D5
:101FB000B442F8D3092001221021C006FEF73EFCEE
:101FC000842F01D0FFF798FFF8BD13B5012201A9B6
:101FD00000F001F81CBDF8B504460D461646FFF7A3
:101FE000DBFB0927FF06002210213846FEF726FCFE
:101FF0000D2000F065F8200A00F062F8E0B200F071
:102000005FF8002404E0285D00F05AF8641CA4B2D4
:10201000B442F8D3012210213846FEF70FFCFFF737
:102020006BFFF8BD1CB500230193009322480168A3
:1020300001221204114301605100052424030268A7
:102040000A400092019A521C0192009A002A02D181
:10205000019AA242F3D10168890302D501210091BE
:1020600000E000930099012925D1144911220A604A
:10207000416841604168416041687F22D2039143D9
:10208000416041681122120411434160016801223C
:1020900012061143016001688901FCD54168890875
:1020A000890041604168022211434160416809078B
:1020B000890F0229FAD11CBD001002400020024005
:1020C00070B505460A4C02212046FFF7E3FA0028C6
:1020D000F9D029462046FFF71BFB01212046FFF7D8
:1020E000D9FA0028F9D02046FFF706FB70BD0000A2
:1020F0000030014010B5FEF71FFD0020FEF732FE54
:102100000521C9040020FEF73DFE0120FEF72AFE4E
:102110001920FEF70BFE0028FAD00220FEF740FE41
:1021200010BD000003480168491C01604168491C5A
:10213000416070473000002010B51448016801224A
:10214000114301604168124A114041600168114A1F
:1021500011400160016801229204914301604168CD
:102160003F22120491434160C16A09090901C16219
:10217000016BFF22543291430163416B49084900CE
:10218000416300218160FFF74DFF10BD0010024048
:102190000CB8FF08FFFFF6FE7047704710B50E48F9
:1021A0007D21C9000068FDF7BBFF0C49401E884235
:1021B00001D901200CE00A4948610A480722C36995
:1021C0001B021B0A4C042343C361002088610A617F
:1021D000002800D0FEE710BD00000020FFFFFF0038
:1021E00000E000E004ED00E07047002904D0016841
:1021F00001221143016070470168490849000160EC
:102200007047000030B58BB004460D46206840088A
:10221000400020606068032109038843A9680143E6
:10222000616020681E490840EA68696811432A69AC
:10223000024311432160A0680321090288436969B0
:102240000143A16001A8FEF7A5FC1648844201D114
:1022500007980AE01448844201D1089805E0134821
:10226000844201D1099800E003982168090404D54B
:1022700040002968FDF754FF02E02968FDF750FF90
:102280002A6852088A4200D8401C2168090404D5F3
:102290000107490F064A10400843A0810BB030BD2A
:1022A000F3E9FFFF003801400044004000480040CF
:1022B000F0FF0000F0B589B0074601214804FEF7A1
:1022C00011FC01218803FEF71BFC0926F6060122FA
:1022D00002213046FEF79BFA012203213046FEF729
:1022E00096FA0C250795022008A9087000248C7026
:1022F0000120C8700320487007A93046FEF74FFA46
:10230000019702940394049406940595054C01A941
:102310002046FFF777FF01212046FFF766FF09B04F
:10232000F0BD00000038014010B5024A024900F03B
:102330002BF810BD39250008380000202021020CA0
:1023400001D010211046020A01D0104608390209B6
:1023500001D01046091F820801D01046891E42088C
:1023600001D0881E7047081A704702E008C8121F83
:1023700008C1002AFAD170477047002001E001C16E
:10238000121F002AFBD17047F8B516460F460446C7
:10239000002503E03946B047641C6D1C20780028F6
:1023A000F8D12846F8BD0000F8B54A002B4B520D75
:1023B000D6182B4A0C460546142E2BDA002E12DABC
:1023C000284BFDF7F5FE00221346FEF7D9F840D260
:1023D000002C03DA0124E40700253AE020462843D4
:1023E00037D0214C14E0214F0B46F7403B402B43A4
:1023F00031D01C4BFDF7DCFE00221346FEF7C0F87F
:1024000027D2002C03DD01200005F0400419BC4355
:1024100000251EE0332E1EDC33460027143BFF430D
:10242000DF40384217D00F4BFDF76CFF00221346F8
:10243000FEF7A6F80DD2002C0ADD142E0CD03420A5
:10244000811B012088404019A84200D2641C054627
:10245000BD4321462846F8BD641CF9E701FCFFFF97
:102460009C7500883CE4377E0000F03FFFFF0F00C2
:10247000F8B54A002B4B520DD6182B4A0C46054690
:10248000142E2BDA002E12DA284BFDF791FE0022D3
:102490001346FEF775F840D2002C02DB00242546D7
:1024A0003BE060004008284337D0214C14E0214F26
:1024B0000B46F7403B402B4331D01C4BFDF778FED9
:1024C00000221346FEF75CF827D2002C03DA012025
:1024D0000005F0400419BC4300251EE0332E1EDC2D
:1024E00033460027143BFF43DF40384217D00F4BE1
:1024F000FDF708FF00221346FEF742F80DD2002C2C
:102500000ADA142E0CD03420811B01208840401997
:10251000A84200D2641C0546BD4321462846F8BDAA
:10252000641CF9E701FCFFFF9C7500883CE4377EE2
:102530000000F0BFFFFF0F000449CA695206FCD536
:10254000024AC1B2203211817047000000380140B8
:102550008CB038A000680B90FEF7F4F936A0FFF7B6
:10256000E3FE3B48394901603A4981603A4941609C
:102570003A49C1603A4901613A4D29688847E9689A
:102580003948884702221B24A401EB6C0BA9204682
:1025900098472B6D0222354920469847002434483D
:1025A00008900594069401270794082002AA91C276
:1025B0000920042101910090EE692346224616214C
:1025C0003846B04706940794089409940820059764
:1025D000029403940494009401900423092200219E
:1025E000AC690120A047214EB61F3078002817D0D3
:1025F000174C50201C342070492060704E20A07071
:102600004720E070012204212046FEF7D5FB3081EF
:10261000010A21716071AA6A06212046904703E0F1
:102620007D20696BC0008847286E804711A0FFF7A6
:102630007BFEF9E7123400006D61696E2A2A2A2AAE
:102640002A2A2A2A2A2A2A2A0A000000C90A000855
:10265000F000002069090008E10A0008750A000876
:10266000210A000890260008400ECF192A000020F9
:10267000B80B0000777564616E0A000010B5FEF7B4
:1026800027F810BD50494E4700504F4E47000000FC
:10269000650E00083D0E0008F1100008B910000892
:1026A000990F0008C90F00086111000809130008FC
:1026B000B50D0008851400087D10000855140008A9
:1026C00073140008151000087D1400084114000858
:1026D0000D10000821160008FD0F0008291600083B
:1026E00005100008C1100008211100085F0E000845
:1026F000AD0E00084910000801130008040506008B
:10270000C01200001F000000A81600001700000003
:10271000841C00000F000000E42500001E000000E3
:10272000B42D000016000000083900000E00000063
:102730002C4C00001D000000685B0000150000002C
:10274000747200000D000000589800001C0000008A
:1027500034B7000014000000E8E400000C000000A2
:10276000783101001B000000686E010013000000BA
:1027700034CA01000B000000286202001A000000A9
:1027800040DB0200120000003C9303000A0000003E
:10279000C0C204001900000060B305001100000071
:1027A000382007000900000020A1070000000000F9
:1027B000D027000800000020F00000006A23000875
:1027C000C0280008F0000020F00500007A2300086F
:1027D000006CDC02000000000000000001020304A5
:1027E00006070809000000000102030401020304B7
:1027F000060708090100000040000000000000007A
:1028000000000000000000000000000000000000C8
:10281000FF000000000000000000000000000000B9
:102820000000000000000000FCA9F1D24D62404011
:10283000FCA9F1D24D623040FCA9F1D24D6220409A
:10284000FCA9F1D24D621040FCA9F1D24D620040CA
:10285000FCA9F1D24D62F03FFCA9F1D24D623040AB
:10286000FCA9F1D24D622040FCA9F1D24D6210408A
:10287000FCA9F1D24D620040FCA9F1D24D62F03FBB
:10288000FCA9F1D24D62E03FFCA9F1D24D6220409B
:10289000FCA9F1D24D621040FCA9F1D24D6200407A
:1028A000FCA9F1D24D62F03FFCA9F1D24D62E03FAC
:1028B000FCA9F1D24D62D03F0000000000000000F2
:04000005080000B53A
:00000001FF
