:020000040800F2
:10000000A0060020C90000088F0A00088D0A000819
:1000100000000000000000000000000000000000E0
:100020000000000000000000000000001D1A000891
:100030000000000000000000110B00085D24000813
:10004000F900000800000000F9000008F9000008AD
:10005000F9000008D5070008F9000008F9000008B9
:1000600000000000F9000008F9000008F90000088D
:10007000B5070008F9000008F900000800000000BA
:10008000D32400080000000000000000D124000874
:10009000F9000008F9000008F9000008F90000085C
:1000A000F9000008F900000885190008212500085A
:1000B000F90000080348854600F06AFB0048004745
:1000C0000D340008A00600200C4880F308880C4876
:1000D0000168090E0B4A914205D10B480B4901609A
:1000E0000B480C4901600C4880470C480047FEE76C
:1000F000FEE7FEE7FEE7FEE7FEE70000A0060020C1
:10010000040000001F000000181002400100000061
:10011000000001400000000071240008B500000844
:1001200030B50B46014600202022012409E00D468F
:10013000D5409D4205D31D469540491B2546954017
:1001400040191546521E002DF1DC30BD03460B430D
:100150009B0703D009E008C9121F08C0042AFAD27D
:1001600003E00B780370401C491C521EF9D2704703
:10017000D2B201E00270401C491EFBD2704700223F
:10018000F6E710B513460A4604461946FFF7F0FF96
:10019000204610BDF0B507460846584087B0C00F4E
:1001A000049048000E46590040084908BC1A88418E
:1001B00005D2384631461E4617460B4602465800C1
:1001C000400810434CD0300D039040055900400DBD
:1001D000490D0590401A0290402872DA1803012157
:1001E000000B09050843019004980092002805D0EF
:1001F00001995242002088410092019002984021CA
:100200000A1A0199009800F0F1F905460C466B4670
:1002100007CB00F00CFAC0197141039A0E0D0023B0
:10022000D71756401A467A40164344D0049A002AFB
:100230002DD0029A012A039A15DC1205C01A9141A9
:1002400001263605001C7141D20F059ED20700938E
:10025000019202962A46234600F009FA07B0F0BD43
:1002600038463146FAE71605224A0F46B218C01A38
:10027000B74101210905001C4F4100187F4111467B
:1002800018187941E20F10436D19644113E0E20739
:100290006D0815436408C2071443039A012612052A
:1002A000C01A91413605001C7141CE074008304309
:1002B0004908C01851412A46234600F0CBF9CDE742
:1002C000FFE7049801224000C117121A00238B4156
:1002D00004983146C417381AA141EEE730B401241E
:1002E000E407634030BC55E730B40124E4076140C3
:1002F00030BC4FE70000E0FFF0B51FB488B00B99A9
:100300000998002448400999C00F490049080991FB
:10031000C0070B990090490049080B91099908986A
:10032000A64608431CD00B990A98084318D0099890
:1003300001244000420D4800410D099824050003A6
:10034000000B204309900B980003000B20430B90F7
:1003500050181C494018002201901446104605E030
:10036000002001460DB0F0BD032801DA034600E08D
:1003700003239C46C11A0AAE0AE05F0008ADED5B9C
:100380004F00F75B7D430027AA187C41491C5B1E88
:100390006145F2DD410004AB5A522104120C0A43BC
:1003A000240C401C0828DFDB01980290009970465D
:1003B00001910090059B049A0799069800F057F95F
:1003C000D0E700000DFCFFFFF0B50C465C4085B0A7
:1003D000E40FE40703944C00002664085900944697
:1003E000490802460296224321D062460A431ED0A3
:1003F0006200570D4A000E032303550D01240246E7
:100400002C492405781B1B0B360B4018234326432D
:10041000614600901C46501AB44103D30098401C1A
:10042000009002E0921800985B41002803DA002057
:10043000014605B0F0BD00200121090507468646AA
:1004400011E064461D46141BB54106D36546521B98
:10045000B341744607430C43A646CD0740084908FC
:10046000284392185B4105460D43EAD110461843D4
:1004700013D06046194650407140084306D060468C
:10048000101AB34106D20122002306E00022012304
:10049000DB0702E00122D2435310009874460105A5
:1004A000381C6141029C039D0019694100F0D2F89B
:1004B000BFE70000FD03000070B54B005B0803437D
:1004C0000BD04B005C0D002633466542B341D41778
:1004D000AD1AA34102DB0020014670BD12053018A1
:1004E000514170BD0EB5C217C10F5040CA07401828
:1004F0000021054B0293019200910A460B4600F041
:10050000B6F803B000BD0000330400000EB5054985
:100510000291002100910A460B46019100F0A7F8D4
:1005200003B000BD330400004A0009030123090B96
:100530001B051943094B10B5520D9A4201DA0020F0
:1005400010BD064B34339A4203DC9A1A00F05EF871
:1005500010BD03495118884010BD0000FF03000082
:10056000CDFBFFFF10B5002904DB0124E407404266
:100570008C412146002B04DB1C460123DB07524241
:10058000A341994200D1904210BD0000F0B51FB4C4
:100590000646002082B005464024019100901BE0F1
:1005A000019922460F46304600F030F8049A059B28
:1005B000801A994110D310461946224600F016F8C9
:1005C000361A8F410197224601200021009F00F03A
:1005D0000DF838184D4100902046641E0028DFDCDD
:1005E000019B00982946324607B0F0BD10B5202A7D
:1005F00004DB0146203A9140002010BD91402023A9
:100600009C1A0346E3401943904010BD10B5202AC0
:1006100004DB0846203AD040002110BD0B46D340F1
:10062000D0402024A21A91400843194610BD10B5AD
:10063000202A06DBCB170846203A1041C1170B438E
:1006400006E00B461341D0402024A21A91400843F3
:10065000194610BD10B5002B08DA0024401C61417A
:1006600092185B411A4301D14008400010BDF0B51B
:100670001FB482B005460C0003D0084602F0D6F83D
:1006800002E002F0D3F820300246009021462846CE
:10069000FFF7ACFF049B059A04460F46184311432D
:1006A000084314D0184610431BD0009840210A1A62
:1006B00018460599FFF7AAFF05460E46009A0599C8
:1006C0000498FFF793FF084305D0012004E020467B
:1006D000394607B0F0BD0020C11705430E432C4337
:1006E000374300990E986305401A7905E40A002201
:1006F0000C43FD0A0A3002D500200146E9E7010556
:10070000101969410C9C0D9D00196941FFF7A2FF6A
:10071000DFE70000F8B50546480040080C462843CE
:1007200004D06000184A400D904201DD2846F8BD13
:1007300015493539884210DC88420BDB290D20032E
:1007400008432903014305D0E00F1049C0074118B1
:100750000020F8BD00200146F8BD161A4020821B7B
:1007600028462146FFF742FF0746009128462146CA
:100770003246FFF74BFF3A46009BFFF76BFF3246CE
:10078000FFF734FFF8BD0000330400000000F03F25
:10079000064C0125064E05E0E36807CC2B430C3CD4
:1007A00098471034B442F7D3FFF788FCD4360008DA
:1007B000F4360008704700000022054B04E00021D9
:1007C000491C9942FCD3521C8242F8D37047000066
:1007D000BC110000704700000149C860704700006C
:1007E0000020024004200849CA68D20701D0012035
:1007F0007047CA68D20601D502207047C968490708
:10080000FBD5032070470000002002400248016928
:10081000802211430161704700200240F0B5054677
:100820000E460B273F04384600F022F804280CD16E
:10083000064C20690121084320612E80384600F0D3
:1008400017F82169490849002161F0BD00200240E4
:1008500004480169090603D5034941600349416021
:10086000704700000020024023016745AB89EFCDAF
:1008700000B50346FFF7B6FF02E0FFF7B3FF5B1ECC
:10088000012801D1002BF8D1002B00D1052000BD9B
:10089000F0B500220325012393400C681C409C42C4
:1008A0002AD10C79012C01D0022C12D18768540076
:1008B0002E46A640B74387604E79A64084682643FB
:1008C000866084889C43848084888B7993401C4311
:1008D0008480066853002C469C40A64306600E792F
:1008E00007689E403E430660C668A643C660CC7952
:1008F0009C40C3681C43C460521C102ACBD3F0BD7B
:1009000010B54B07DB0E9A40C90889000818016A28
:100910000F249C40A1430162016A1143016210BD92
:1009200002460020128A0A4200D001207047002AA5
:1009300001D081617047018570470000FEB5002538
:10094000684685710124C4714471047110200090BF
:100950000927FF0669463846FFF79AFF0122102152
:100960003846FFF7E4FF68468571C471447104712D
:100970000226009669462948FFF78AFF6846857176
:10098000C47144710571009469463846FFF780FFD1
:1009900068468571C4714471057100966946384690
:1009A000FFF776FF68468571C47144710571009642
:1009B00069461B48FFF76CFF68468571C471447136
:1009C00006712020009069463846FFF761FF00223B
:1009D00005213846FFF794FF68468571C47144715C
:1009E00006718020009069463846FFF751FF0022CB
:1009F00007213846FFF784FF68468571C47144714A
:100A000006714020009069463846FFF741FF0022FA
:100A100006213846FFF774FFFEBD000000140048B1
:100A20000004004803490A680B689B1A8342FBD301
:100A3000704700002800002010B501F0F7FC4B20A3
:100A4000C00101F01FFE01F045FD00F08DF8FFF739
:100A500075FF00F071FF012000F050F8002803D06E
:100A600004A001F0D3FE10BD05A001F0CFFE02F0FE
:100A70002FFD10BD313177616B6575700A00000084
:100A800031313148575F696E740A0000FEE77047E4
:100A900030B5827801240178002A16D08B080E4ADE
:100AA0009B009A1813688907C90EFF258D40AB4338
:100AB0004578AD072D0E8D401D4315600078C006AA
:100AC000C00E84400548046030BDC806C00E844096
:100AD00002488030046030BD00E400E000E100E046
:100AE00005498A15002803D008681043086070473C
:100AF000086890430860704700700040014600207D
:100B0000024A52680A4200D001207047007000403B
:100B100070470000054A002903D051690143516123
:100B200070475169814351617047000000100240D5
:100B3000054A002903D0D1690143D1617047D169C9
:100B40008143D1617047000000100240054A00292E
:100B500003D091690143916170479169814391612B
:100B6000704700000010024010B52720012140040A
:100B7000FFF7D0FF01210248FFF7E8FF10BD00009A
:100B80000110000012480168012211430160416810
:100B9000104A1140416001680F4A1140016001682C
:100BA000012292049143016041683F221204914363
:100BB0004160C16A09090901C162016B074A11401C
:100BC0000163416B4908490041630021816070471E
:100BD000001002400CB8FF08FFFFF6FEACFEF0FF6D
:100BE000F8B5044600215C4E70680C2210405B4D45
:100BF000002821D05A4A042820D0082820D00C28C8
:100C000039D025607068F02210400009554B1F5CF8
:100C100020680246FA4094466260726807273F02E5
:100C20003A40120A9B5C6246DA40A260336BDB05F5
:100C300024D44D4BE36029E02560E3E72260E1E73F
:100C400071680F208004014070680323DB031840A3
:100C50008F0CBF1C00280AD0F06A0107090F491C3D
:100C60001046FFF75DFA784301462160CAE73F4826
:100C700039464143F9E73E482060C3E773685B04A7
:100C800002D45308E36001E09308E360336B5F062E
:100C9000384B03D4374F1237276100E02361376B9D
:100CA000FF0601D4656100E06061376BBF070ED0BD
:100CB000376BBF07BF0F012F0BD0376BBF07BF0FBD
:100CC000022F08D0376BFF43BF0706D006E0A261B2
:100CD00004E0A06102E0A36100E0A561376BBF03FF
:100CE000BF0F0FD0376BBF03BF0F012F0CD0376B77
:100CF000BF03BF0F022F09D0376BBF03BF0F032FF6
:100D000006D006E0E26104E0E06102E0E36100E0B9
:100D1000E561376B3F03BF0F0FD0326B1203920FA9
:100D2000012A0CD0306B0003800F022809D0306BF1
:100D30000003800F032806D006E0226204E0206250
:100D400002E0236200E02562306B000602D408480E
:100D50006062F8BD6162F8BD0010024000127A00C6
:100D6000001BB70014000020809FD50000093D0043
:100D7000006CDC02008000000346002059090B4A89
:100D800000290CD001290CD002290CD0516BDA06B5
:100D9000D20E012393400B4200D00120704711680E
:100DA000F5E7116AF3E7516AF1E70000001002402D
:100DB0000649002804D0486A01221043486270475F
:100DC000486A400840004862704700000010024036
:100DD000012206491206002803D008681043086063
:100DE0007047086890430860704700000010024098
:100DF00010B5054A53687B24E403A343536053684A
:100E000008430343536010BD00100240012206490D
:100E1000D203002803D0086A104308627047086AAA
:100E200090430862704700000010024002490A6ABD
:100E300002430A627047000000100240034A5168F2
:100E4000890889000143516070470000001002408A
:100E500001090A2251430007000F4018C0B2704731
:100E6000002103E0491CC9B20A38C0B20A28F9D2ED
:100E70000907090E08437047012101708170417014
:100E80000021C1707047000018B5002000900E4B83
:100E9000D868400615D40020C043D86040210C0219
:100EA000D8680840009A521C0092009AA24201D0D1
:100EB0000028F5D0D868400601D5012018BD0020D3
:100EC00018BD012018BD0000002800400248C1687C
:100ED00080229143C16070470028004010B502464F
:100EE0000C460F4801680F4801408802800E2070B0
:100EF0004B045B0E63704B065B0EA370090C402322
:100F00001940E170002A0AD1FFF7A2FF2070607833
:100F1000FFF79EFF6070A078FFF79AFFA07010BDEA
:100F2000002800407F7F7F0070B5054600260F4CEB
:100F3000CA20606253206062FFF7A6FF002811D02C
:100F4000A06840218843A060A06829680843A06089
:100F5000A86820612069A988090408432061FFF777
:100F6000B5FF0126FF206062304670BD00280040BA
:100F700070B505460C460026002D06D16078C106E6
:100F800003D5EF2108400A306070002D05D060784D
:100F9000FFF75EFFA078FFF75BFF002D0AD0E07837
:100FA000A5780004054360782178000249030843CE
:100FB00005430FE0E078FFF753FF05046078FFF783
:100FC0004FFF00020543A078FFF74AFF0543207852
:100FD000400305430D4CCA20606253206062FFF756
:100FE00053FF00280ED00A4805406560FFF76EFFEA
:100FF000A068800605D400F05FF8002802D0012622
:1010000000E00126FF206062304670BD00280040ED
:101010003FFFFF00F8B505460C4600260020244F90
:10102000002D06D0B968490608D52078FFF710FFD3
:1010300005E0B968490602D4E07000E0E070002DD8
:101040000AD02078A578000405436078E178000292
:101050000904084305430FE02078FFF701FF05046A
:101060006078FFF7FDFE00020543A078FFF7F8FE69
:101070000543E07800040543CA2078625320786273
:10108000FFF702FF00280ED00A4805403D60FFF739
:101090001DFFB868800605D400F00EF8002802D0C5
:1010A000012600E00126FF2078623046F8BD0000EE
:1010B000002800407F7F7F0018B500200090114B72
:1010C0009868800601D5012018BDCA2058625320B7
:1010D0005862D868A0218843D86020218C02D86843
:1010E0000840009A521C0092009AA24201D00028A7
:1010F000F5D0D868800601D5012000E00020FF214E
:10110000596218BD002800400120704700280FD008
:1011100000210B4ACB00D35883420BD84B1CDB0079
:10112000D358834206D9491CC800801800797047FB
:101130001F207047491CC9B21529EBD3FEE70000F8
:10114000D435000810B500F0D3FC032809D00428DA
:1011500003D0052803D0002010BD022010BD0120BF
:1011600010BD032010BD03207047000010B50E4CC9
:1011700020610E4800F04CFD002000F0C1FF01206E
:1011800000F03BFF0021084600F0F4FD04210020A0
:1011900000F0F4FF064800231A46014600F043FE23
:1011A0000020A07010BD000038000020C51200080B
:1011B000FFFF0000F8B509200121C006FFF7B0FBD2
:1011C000012865D1334D0020A87000F084FC04464E
:1011D000314800F075FCE00706D02869002803D0EC
:1011E0000068002800D08047A00718D5FF22694674
:1011F0002A4800F0CBFC2948143800F081FC28690B
:1012000000280CD08668002E09D024480D231438FD
:101210000C22C3568256684601782048B0476006C3
:1012200006D52869002803D00069002800D080472F
:1012300020060AD52869002807D08169002904D032
:10124000E043C005C017401C8847A00517D500F033
:101250004FFC042804D000F04BFC052808D00EE019
:10126000286900280BD04068002808D0804706E095
:101270002869002803D0C068002800D08047A00655
:1012800006D52869002803D0C068002800D0804710
:10129000F8BD000038000020FFFF0000040100201E
:1012A00070B50D46012400F0A7F8284600F088F834
:1012B000002000F033F80120FFF7B4FB00F04EFAF5
:1012C000204670BD01490120887070473800002019
:1012D00070B50025012000F08FF8002000F0C0FE5E
:1012E00000240120FFF79EFB00F066FCC007C00F42
:1012F000A0400543641CE4B2202CF2D300F02EFA87
:10130000284670BD10B500F0E2FC10BD10B500F02D
:10131000E6FC10BD10B500F04FFC10BD10B5044642
:10132000084800231A46014600F07DFD0648407833
:10133000002803D0054800F093FE10BDA00100F086
:101340008FFE10BDFFFF000038000020FFFFFF00F0
:1013500010B50446084800231A46014600F063FD14
:1013600006484078002803D0054800F08BFE10BDE9
:10137000A00100F087FE10BDFFFF00003800002034
:10138000FFFFFF0070B505460C460B4800231A46C8
:10139000014600F048FD00F0F3FB0849012809D0A0
:1013A0000C72064800F0BAFD00222146284600F0E3
:1013B000D9FC70BDCC73F4E70102000004020020E8
:1013C00010B500F021FE10BD10B5094B094A0128E7
:1013D00008D0D079012804D119701172104600F09C
:1013E0009DFD10BD1970D173024800F097FD10BD2E
:1013F000380000200402002010B50A4C012805D056
:10140000002000F0E5FD0020607010BD012000F01C
:10141000DFFD617820788142F7D0607000F004F839
:1014200010BD00003B00002070B504460D4804705C
:1014300044700120FFF7E0FF1D208001451C002CB7
:1014400007D0342100F05DFF4421284600F059FF09
:1014500070BD142100F055FF2421284600F051FFF3
:1014600070BD00003B000020FFB583B01546159B02
:10147000109A0F465B494B700F99002902D05949C9
:101480000A7002E05749FF220A70574E3146283150
:10149000344620340291002814D001286FD1002056
:1014A00000F042FE0E98C0B200F0D1FC0121217282
:1014B000E8B220764D4AD25D6276069AA276002F77
:1014C0005FD062E0002000F02FFE00202072F56265
:1014D0000B2020753846FFF719FE6075002030702C
:1014E0000D98C000708004203071182070710020A9
:1014F000B0710F9801214840F0713A4F387830723E
:101500001198002802D0F220707200E07172002061
:10151000B07200F032F9207A002801D0012000E0FA
:101520000020FFF769FF029800F098FC2E4800F0B9
:10153000F5FC2FA003C801910090684600F0FBFD68
:101540002D4800F05DFE2846FEF7E0FF02460B4600
:1015500000202A49FEF738FF0322FEF7ADFF0446BC
:101560000D460E98FEF7D2FF22462B46FEF7C4FE2C
:101570000022234BFEF7C0FEFEF7D6FFF86007B04F
:10158000F0BD0B2D23D00C2D21D0012F01D10C2D1E
:101590001DD00022E276317005281AD0062818D016
:1015A0000D98B0810F98B0730E4C2078F07311989D
:1015B0003074149870740120FFF71EFF029800F039
:1015C0004DFC094800F0AAFC0E48E060D7E7E17640
:1015D000E1E70D980C2802D20C20B081E2E70D98CB
:1015E000B081DFE73800002004020020D035000879
:1015F000C194C10000000000FF0100000000F03FA6
:1016000000408F40FFFF000010B500F053FD10BDFB
:10161000FFB583B007460E9E0C98454D29462831EC
:101620002C4620340291002F02D0012F77D139E0CF
:1016300000272772E8620B2020751846FFF766FD29
:101640006075059828632F70F00068800420287169
:1016500018206871AF710F9901204140E97110990C
:10166000002902D0F221697200E06872A87200F0CD
:1016700084F8207A002801D0012000E00020FFF744
:10168000BBFE029800F0EAFB294800F047FC29A0C5
:1016900003C801910090684600F04DFD274800F016
:1016A000AFFD3CE001222272C1B22176244FFF5CE3
:1016B00067760D9FA776002B03D10B281DD00C2831
:1016C0001BD0012B01D10C2817D00020E0762A7006
:1016D000052914D0062912D0AE810F98A873194895
:1016E0000078E873109828741398687400F045F82F
:1016F000207A00280AD0012009E0E276E7E70C2EE4
:1017000002D20C20A881E8E7AE81E6E70020FFF7CF
:1017100073FE029800F0A2FB054800F0FFFB04985E
:1017200000F098FC07491498886007B0F0BD0000ED
:1017300004020020C194C10000000000FF0100006D
:10174000D03500083800002010B50C4600F05CFCD5
:10175000204600F07FFC00F009FD10BD08B5002018
:10176000009069460878042108430090009800F032
:10177000B9FC0220FFF756F908BD10B5002000F0B3
:10178000BFFC10BD10B500F0FFFA10BDF3B585B079
:1017900002460020002A2CD0012A63D15A4C302264
:1017A000607E0C23001F5043584A8218207E04900C
:1017B000181AC0001018C0C8204620388089FEF7CB
:1017C000A5FE0022524BFEF7E5FC32463B46FEF7F3
:1017D00093FD03910290A07E8007800F001DFEF70D
:1017E00095FE01910090E17E0498002943D00221EA
:1017F00042E045482038C06AFEF788FE06460F469C
:101800000698FEF783FE04463F480D46203841887F
:101810004079C0080818FEF779FE3B4A203AD27991
:10182000002A21D000223B4BFEF7B4FC22462B4677
:10183000FEF7B0FC344A203A527A022A17D000222E
:101840001346FEF7A7FC0322FEF736FE32463B4660
:10185000FEF7BAFD0022304BFEF74EFD01F01AFEF6
:10186000FEF762FE07B0F0BD00221346DCE700225F
:1018700001239B07E5E70021401A8000FEF732FEB6
:10188000044606980D46C10004988000091A1E48B7
:101890002038027C807B1201891801281AD0002090
:1018A000081A1C30FEF71EFE22462B46FEF78CFD62
:1018B00001F0A0FB019B009AFEF71EFD04460D46B9
:1018C0000022134620462946FEF74CFE04D220464D
:1018D000294603E01420E3E70020014600220F4BD5
:1018E000FEF758FC32463B46FEF706FD039B029A84
:1018F000FEF750FC0A4A0B4BFEF74CFC01F0DEFBF6
:10190000FEF712FEAEE70000240200205000002087
:10191000000011400000F03F00408F4000002040D8
:101920002B8716D9CEF7EF3F10B500F0EAFC10BDBB
:1019300010B500F0ECFC10BD10B586B000206A4672
:101940009080FF210531D18007210902118190810A
:10195000508101214902D181182111825082072032
:101960009082074C01A9204600F020F8A1142046DF
:1019700000F048F80121204600F005F806B010BD3F
:101980000030014070474022002903D001881143F4
:101990000180704701889143018070470246002012
:1019A00012890A4200D001207047000030B5038838
:1019B000C122920113400A88CC890D892243CC8828
:1019C0002C4322434C8922438C8922431A430280B0
:1019D0008288094B1A408B88134383800A8A0282CB
:1019E000028804239A43498811430180818B034A6A
:1019F0001140818330BD0000FFF00000FFF70000C0
:101A0000007B70478288034B1A40828082880A4399
:101A100082807047FFEF0000017370477047704786
:101A20007047000008B51949884205D9E120694688
:101A30000870E920487022E01549884205D9D7206E
:101A400069460870D820487019E01249884205D9C3
:101A5000C12069460870C520487010E00E498842D0
:101A600005D97520694608708120487007E00B4948
:101A7000884204D96B20694608706F2048700222A2
:101A80006946982000F01AFC08BD000000E9A43562
:101A900080F8A9328044E52D000B6B1B40FC5419E3
:101AA00010B500F025F8002803D000F021F8062832
:101AB00003D100F0C9FBFFF7B3FF00F0B9FB10BD85
:101AC00008B5010A6A461170507002226946104634
:101AD00000F0F4FB08BD08B502226946122000F0B0
:101AE000D1F86946087849780002084308BD00002B
:101AF0000148407870470000E00000200220704755
:101B000038B5044603226946142000F0BBF800F003
:101B100037F82070002808D0012816D0142120465C
:101B2000FEF72DFB0F20207038BD6846007820712D
:101B30006846407840424010A07168468078404234
:101B4000401060710020A06038BD684600784042B7
:101B50004010207368464078802802D28008607365
:101B600003E0FF3801388010607368468078404297
:101B70004010A07301484068206138BDE00000209B
:101B80000148807870470000E0000020F8B5054665
:101B90000E461446002000906946304600F018F8C2
:101BA0003278A24201D90120F8BD68462946007862
:101BB00000F040F80020F8BD08B501226946152064
:101BC00000F060F8684600784042401040B208BD1E
:101BD00038B504460D4602226946132000F052F83B
:101BE000FFF7CEFF01280AD1084800F070F8C009BD
:101BF00005D00648801E00F06AF8207002E06846B2
:101C00000078207068464078287038BD04070000CE
:101C100010B500F08FF800F017FB002000F070FA0C
:101C2000012000F0F9F802490120487010BD0000C1
:101C3000E0000020F8B504460D461646FFF730FFD9
:101C40000927FF06002210213846FEF770FE1E20ED
:101C500000F0D2FB204600F0CFFB002000F0CCFBD0
:101C6000002405E0002000F0C7FB2855641CA4B246
:101C7000B442F7D3012210213846FEF758FE00F097
:101C8000D7FAF8BDF8B504460D461646FFF708FF2B
:101C90000927FF06002210213846FEF748FE20469D
:101CA00000F0AAFB002000F0A7FB002405E00020C4
:101CB00000F0A2FB2855641CA4B2B442F7D3012261
:101CC00010213846FEF733FE00F0B2FAF8BD08B531
:101CD0000122694600F003F86846007808BDF8B5AF
:101CE00004460D461646FFF7DBFE0927FF060022D5
:101CF00010213846FEF71BFE1D2000F07DFB200A58
:101D000000F07AFBE0B200F077FB002000F074FBFB
:101D1000002405E0002000F06FFB2855641CA4B2ED
:101D2000B442F7D3012210213846FEF700FE00F03E
:101D30007FFAF8BD10B50A20FEF774FE084C0022A9
:101D400002212046FEF7F3FD1420FEF76BFE012270
:101D500002212046FEF7EBFD0A20FEF763FE10BDD0
:101D60000014004810B5144600F040F9204600F079
:101D7000EBF910BD08B56A46107051700222694631
:101D80008F2000F09BFA08BD10B500221146C52037
:101D900000F094FA01490720487010BDE0000020CF
:101DA0007CB5069C6D4628706970AA70EB70200C9B
:101DB0002871200A6871AC7105226946882000F0FC
:101DC0007DFA0249072048707CBD0000E000002039
:101DD00008B5010A6A4611705070FFF7D1FE00285D
:101DE00004D102226946024800F091FA08BD0000C1
:101DF000BE06000008B5010A6A4611705070FFF770
:101E0000BFFE002804D102226946024800F07FFA92
:101E100008BD0000BC06000001B5012269469D20F6
:101E200000F04CFA08BD7CB5050A6C462570607060
:101E3000080AA070E170100A20716271180AA0717E
:101E4000E37108226946104600F038FA7CBD01B5FE
:101E500001226946A02000F031FA08BD7CB5044695
:101E6000002000900190244920788978884201D090
:101E700000F0AEF8207800280FD001280CD1042201
:101E8000207C69460870607C4870A07C8870E07C8B
:101E9000C8708B2000F012FA7CBD08256068FEF740
:101EA00035FB02460B4600201449FEF78DFA052249
:101EB000FEF702FBFEF738FB010C6A461170010ABF
:101EC00051709070207BD070607B1071A068FEF71D
:101ED0001DFB00220A4BFEF777FAFEF725FB010CEB
:101EE0006A465171010A9171D0712A4669468B2068
:101EF00000F0E4F97CBD0000E000002080847E4119
:101F00008084EE3F38B56C4620706170A270E3703B
:101F100004226946952000F0D1F938BD3EB504464B
:101F2000002000900190029024492078897888420E
:101F300001D000F04DF82078002814D0012811D1EC
:101F40000622A0896B46010A19705870A07B987010
:101F5000E07BD870207C1871607C587169468C20B9
:101F600000F0ACF93EBD607AF12802D0F22808D02A
:101F70000EE01348FFF73EFF1248FFF729FF02204B
:101F800006E01148FFF736FF1048FFF721FF062053
:101F9000092261886B46090A1970A1785970217964
:101FA00099706179D970A1791971E1795971217AA2
:101FB0009971D871A07A1872D0E70000E000002073
:101FC000FFFF0000058000000F1D00002110000031
:101FD00001B56846044900788870012269468A2064
:101FE00000F06CF908BD0000E000002010B50A46C2
:101FF0000146002000F03EF910BD01B501226946FE
:10200000962000F05BF908BD38B505460F4C2078E6
:10201000002804D12846FFF705FD0121217028463C
:10202000FEF774FA00220A4BFEF7CEF9FEF77CFAAF
:10203000010E6A461170010C5170010A9170D07046
:1020400004226946862000F039F938BDE0000020FE
:102050008084EE3F10B5022100F090F810BD000022
:1020600008B5074A05215170010C6A461170010A32
:102070005170907003226946822000F01FF908BD5C
:10208000E000002038B50446084905204870962134
:10209000074800F036F9200C69460870200A48709D
:1020A0008C700322822000F009F938BDE000002086
:1020B000AC0800001CB5020C6B461A70020A5A707C
:1020C0009870080CD870080A187159710622694670
:1020D000942000F0F3F80249062048701CBD00006F
:1020E000E000002001B5FFF79AFC01226946842038
:1020F00000F0E4F801490020487008BDE00000202D
:1021000001B501226946802000F0D8F868460178C0
:102110000448002902D00221417008BD012141700C
:1021200008BD0000E000002001B5012269469F20A3
:1021300000F0C4F808BD10B501461B20082280013C
:1021400000F0E5F8002010BD08B5074A04215170E1
:10215000010C6A461170010A5170907003226946A1
:10216000832000F0ABF808BDE000002010B500228D
:102170001146D12000F0A2F810BD0000F8B50446C9
:102180000D460020FFF7BAFC02271C4EFF43012832
:1021900009D00123002207210420FFF7B3FE162CEB
:1021A0001CDD16241DE00F2C09D001231A46002146
:1021B0000420FFF7A7FE0E2C08DB0E2409E0012304
:1021C0001A4600210620FFF79DFEF4E7BC4200DA24
:1021D0003C461821304600F094F806E0BC4200DA94
:1021E0003C463821304600F08CF868460470457053
:1021F000022269468E2000F061F8F8BDE708000071
:1022000070B50446FFF7BCFC002810D1D725ED00BF
:102210002846FFF75CFD40084000E105C90F014377
:10222000284600F06EF8E1B2681C00F06AF870BD54
:1022300010B5044C02212046FEF772FB0128F9D0AC
:1022400010BD00000004004810B50924E406002277
:1022500010212046FEF76BFBC02000F0CDF80020D7
:1022600000F0CAF8012210212046FEF760FBFFF7BC
:10227000DFFF10BDF8B504460D461646FFF710FC0B
:102280000927FF06002210213846FEF750FB0E20DA
:1022900000F0B2F8204600F0AFF8002404E0285D1A
:1022A00000F0AAF8641CA4B2B442F8D301221021B1
:1022B0003846FEF73CFBFFF7BBFFF8BDF8B5074615
:1022C0000D461646FFF7ECFB092000221021C00640
:1022D000FEF72DFB384600F08FF8002404E0285D5F
:1022E00000F08AF8641CA4B2B442F8D30920012299
:1022F0001021C006FEF71BFB842F01D0FFF798FFCB
:10230000F8BD13B5012201A900F001F81CBDF8B514
:1023100004460D461646FFF7C3FB0927FF060022B9
:1023200010213846FEF703FB0D2000F065F8200A67
:1023300000F062F8E0B200F05FF8002404E0285DED
:1023400000F05AF8641CA4B2B442F8D30122102160
:102350003846FEF7ECFAFFF76BFFF8BD1CB500231B
:102360000193009322480168012212041143016085
:1023700051000524240302680A400092019A521C6D
:102380000192009A002A02D1019AA242F3D1016877
:10239000890302D50121009100E0009300990129F1
:1023A00025D1144911220A604168416041684160A9
:1023B00041687F22D2039143416041681122120497
:1023C0001143416001680122120611430160016856
:1023D0008901FCD541688908890041604168022271
:1023E0001143416041680907890F0229FAD11CBDD8
:1023F000001002400020024070B505460A4C022140
:102400002046FFF7CBFA0028F9D029462046FFF7EF
:1024100003FB01212046FFF7C1FA0028F9D020462E
:10242000FFF7EEFA70BD00000030014010B5FEF776
:10243000A9FB0020FEF7CCFC0521C9040020FEF713
:10244000D7FC0120FEF7C4FC1920FEF795FC0028FC
:10245000FAD00220FEF7F2FC10BD000003484168EC
:10246000491C41608168491C81607047240000203C
:1024700010B5144801680122114301604168124AF5
:10248000114041600168114A114001600168012258
:1024900092049143016041683F22120491434160DC
:1024A000C16A09090901C162016BFF2254329143DB
:1024B0000163416B49084900416300218160FFF7D6
:1024C0004DFF10BD001002400CB8FF08FFFFF6FEE4
:1024D0007047704710B50E487D21C9000068FDF7B0
:1024E0001FFE0C49401E884201D901200CE00A4918
:1024F00048610A480722C3691B021B0A4C04234394
:10250000C361002088610A61002800D0FEE710BD89
:1025100000000020FFFFFF0000E000E004ED00E00D
:1025200010B5074C0549204600F01AF8002804D0E1
:10253000204600F0A3F80349088010BD05010500FE
:102540000038014024000020002904D00168012245
:1025500011430160704701684908490001607047F4
:1025600030B500240A04130E01252A468A40012BA7
:102570000ED0022B0FD083681340090C8D40C06928
:102580002840002B02D0002800D00124204630BD76
:1025900003681340F1E743681340EEE710B50B04FE
:1025A0001C0E01238B40022C02D0032C02D002E02F
:1025B000001D00E00830002A03D0016819430160C3
:1025C00010BD01689943016010BD000030B58BB0AB
:1025D00004460D46206840084000206060680321E2
:1025E00009038843A9680143616020681E490840C7
:1025F000EA68696811432A69024311432160A068AF
:1026000003210902884369690143A16001A8FEF71B
:10261000E7FA1648844201D107980AE01448844238
:1026200001D1089805E01348844201D1099800E0DF
:1026300003982168090404D540002968FDF770FD5E
:1026400002E02968FDF76CFD2A6852088A4200D82A
:10265000401C2168090404D50107490F064A1040AF
:102660000843A0810BB030BDF3E9FFFF0038014003
:102670000044004000480040F0FF0000808CC0058E
:10268000C00D7047F1B58AB001214804FEF742FA47
:1026900001218803FEF75AFA092001220221C0060F
:1026A000FEF72EF9092001220321C006FEF728F9C2
:1026B0000C250795022608A80670002484700127BF
:1026C000C77003214170092007A9C006FEF7E0F892
:1026D0000A980190029403940494069405950C4C76
:1026E00001A92046FFF772FF01212046FFF72CFFCA
:1026F000012208492046FFF751FF1B2108A801715C
:102700004671877109A8FEF7C3F90BB0F0BD000050
:10271000003801400501050010B50446214606A019
:1027200000F074F8002C03D00D2000F037FD10BD30
:102730000C2000F033FD10BD636164646F6E655B57
:1027400025645D0A0000000070B505460C46FF22B6
:102750008132074907A000F059F822462946084867
:10276000FDF7F4FC07480470082000F017FD70BD69
:10277000B13600085B25735D5B25645D0A000000CF
:1027800088020020E800002010B5FF229C32044996
:1027900004A000F03BF80E2000F000FD10BD00008A
:1027A000C83600085B25735D5B25645D0A00000088
:1027B00010B5FF229332044904A000F027F80E2040
:1027C00000F0ECFC10BD0000BB3600085B25735D1B
:1027D0005B25645D0A00000010B5FF2278320449D1
:1027E00004A000F013F8062000F0D8FC10BD000093
:1027F000A73600085B25735D5B25645D0A00000059
:1028000000B50A2000F0CAFC00BD00000FB410B5EE
:1028100003A9044B044A029800F0A4F810BC08BCB9
:1028200004B0184785310008300000202021020C38
:1028300001D010211046020A01D0104608390209C1
:1028400001D01046091F820801D01046891E420897
:1028500001D0881E7047081A704702E008C8121F8E
:1028600008C1002AFAD170477047002001E001C179
:10287000121F002AFBD1704710B5012000F0A0FC08
:102880000A2000F08BFC002010BD000010B5FF22D4
:102890001C32044904A0FFF7B9FF0E2000F07EFCB3
:1028A000002010BD943600085B25735D5B25645DD8
:1028B0000A00000010B500F00BF80B2000F06EFCD1
:1028C000002010BD00B5022000F068FC002000BD13
:1028D00008B50AA0FFF79AFF0B4800231A460146E5
:1028E000FFF7A1FA002003460090142220210420C3
:1028F000FFF756FAFFF748FA08BD00006368656302
:102900006B5F6361640A0000FFFF000070B500F0B8
:10291000C5FD04460B4D6868A04201D1002070BD82
:1029200003212046FDF7FCFB07488089814206D140
:1029300006A0FFF76BFF0A2000F030FC6C6000205F
:1029400070BD0000E80000205C0200205F6964693F
:10295000655F66736D5F66756E635F73656E640A4F
:1029600000000000FFB591B00F460546002606E0C6
:1029700025280AD0149A139990476D1C761C287844
:102980000028F5D1304615B0F0BD00240094012197
:10299000F34A029400E004436D1C2B780846203B68
:1029A00098401042F7D128782A280ED002212878A2
:1029B0000246303A092A15D8009A0A235A43303A77
:1029C00080180C436D1C0090F1E701CF00900028A7
:1029D00005DA0120400304430098404200900220A1
:1029E00004436D1C28782E2815D1042004436878F0
:1029F0006D1C2A280AD101CF6D1C02900BE00299B0
:102A00000A225143303940186D1C02902878014643
:102A100030390929F3D928786C2810D006DC4C28E5
:102A20001AD068280ED06A2817D104E0742813D071
:102A30007A2812D110E00120400504430CE0012166
:102A4000090501E0032109050C436978814203D19E
:102A50000120000524186D1C6D1C287803906E2839
:102A60001ED00CDC632831D004DC00288AD0582822
:102A700011D1B2E064287BD069280CD178E07328AA
:102A80002DD004DC6F2870D0702804D1A7E0752801
:102A90006CD078286BD0149A13999047761C62E01A
:102AA0006002400F022807D003280AD004283868A3
:102AB0000AD006603F1D56E03868F1170660416095
:102AC000F8E738680680F5E70670F3E73878694676
:102AD00008740020487404A80390012003E03868BB
:102AE00003900020C0433F1D61070FD5002101E086
:102AF0000199491C029A0191914213DA8142F7DB54
:102B0000019A0399895C0029F2D10BE0002101E0D0
:102B10000199491C01918142FADB019A0399895C70
:102B20000029F5D101990098139A401A0090214686
:102B3000149B00F03BF901998019461807E00398AF
:102B400003990078491C0391149A139990470198AE
:102B5000401E0190401CF2D12146149B139A00980C
:102B600000F014F986196D1C09E741E033E034E008
:102B70000A200021049005916002410F022905D02E
:102B800001CFC2179446032905D007E0FF1DFF08B7
:102B9000FF0003CF06E000B2C2179446042902D119
:102BA00040B2C1178C4600226146944506DA0A46B7
:102BB0000021404291418C462D2102E0210504D59F
:102BC0002B216A461176012103E0E10701D0202183
:102BD000F7E7019154E00A200BE0102009E01020F3
:102BE000049000210420044308200591029003E092
:102BF00008200021059104906002410F022905D0B0
:102C000001CF00229446032906D006E0FF1DFF08ED
:102C1000FF0003CF8C4603E080B2042900D1C0B28C
:102C20000021019121072BD50399702906D0049A20
:102C30001021059B4A401A4305D00EE040216A4608
:102C40001176012108E06146014306D030216A4631
:102C500011760399517602210191049A0821059B6E
:102C60004A401A430CD16146014301D1610707D59F
:102C700030216A461176012101910299491E029183
:102C80000399582904D037A103910FA90F910DE0A2
:102C900039A1F9E76146059B049AFDF777FC039B90
:102CA0008C469B5C0F9A521E0F9213706146014333
:102CB000F0D10F9807A9081A20300390600704D5B7
:102CC000012000048443029801E00120029003994E
:102CD000884201DD401A00E000204118029001986E
:102CE00009180098401A0090E00306D42146149B6E
:102CF000139A009800F05AF886190020049008E012
:102D000006A9085C149A139990470498401C761CF5
:102D1000049001998842F3DBE0030CD52146149B13
:102D2000139A009800F042F8861904E0149A3020B3
:102D300013999047761C0299481E02900029F5DCF1
:102D400008E00F980F990078491C0F91149A139975
:102D50009047761C0399481E03900029F1DCFBE69E
:102D60000928010030313233343536373839616261
:102D70006364656600000000303132333435363725
:102D8000383941424344454600000000F8B5044646
:102D900000251E461746880404D405E03946202045
:102DA000B0476D1C641EF9D52846F8BDFFB5044632
:102DB000002581B01E46C80301D5302700E020273A
:102DC000880404D505E038460399B0476D1C641E9D
:102DD000F9D5284605B0F0BDF8B520A0FFF716FDDF
:102DE0000024214D214E04E0295D21A0FFF70EFDB6
:102DF000641C30788442F7DB1AA0FFF707FD00223D
:102E00000092307829182039487F0C2805D34022B9
:102E10006B46DA700C38187002E06B46DA70187086
:102E2000887F6A465070C87F9070684600F093FBB8
:102E30000D49E8782C398989884206D10EA0FFF720
:102E4000E5FC012000F0AAF905E00FA0FFF7DEFC89
:102E50000E2000F0A3F90020F8BD00007265637633
:102E60005F656E640A00000088020020E800002010
:102E70005B253032585D00006A6F696E2049444915
:102E8000455F46534D0A00006A6F696E2043414416
:102E90005F434845434B5F46534D0A0010B5054814
:102EA000416B7D20C0008847072000F077F90020A3
:102EB00010BD0000643500080020704700207047F6
:102EC0003EB51648007B029000200190009000F073
:102ED00089F9012202A9002000F0B0F900F098F968
:102EE000694601A800F076F90DA0FFF78FFC0024D9
:102EF00005E00198015D0CA0FFF788FC641C6846A2
:102F000000788442F5DB0AA0FFF780FC0948826A5A
:102F100068460178019890473EBD00005C020020A1
:102F200073656E643A0000005B253032585D000026
:102F30000A0000006435000800B5062000F02EF9F4
:102F4000002000BD10B5FFF7BBFF032000F026F9FD
:102F5000002010BD002070470020704710B500F021
:102F60008DF9044600F078FAA08110BD10B5FF225B
:102F70000632064906A0FFF749FC0848FDF71CFC8D
:102F80000A2000F00BF9002010BD00008436000874
:102F90005B25735D5B25645D0A00000060EA00004C
:102FA00010B50B4C2188002909D00AA0FFF72EFC90
:102FB0002088FF2804D000F055FA0020208010BDA2
:102FC00000F04AFA014606A0FFF720FCF5E70000F2
:102FD000240000207265635B253032585D0A0000D2
:102FE000726561645F666C6173685B253032585D41
:102FF0000A000000F8B54A002B4B520DD6182B4A98
:103000000C460546142E2BDA002E12DA284BFDF75B
:10301000C1F800221346FDF7A5FA40D2002C03DACE
:103020000124E40700253AE02046284337D0214C0C
:1030300014E0214F0B46F7403B402B4331D01C4B53
:10304000FDF7A8F800221346FDF78CFA27D2002CD2
:1030500003DD01200005F0400419BC4300251EE0FB
:10306000332E1EDC33460027143BFF43DF4038423B
:1030700017D00F4BFDF738F900221346FDF772FA0F
:103080000DD2002C0ADD142E0CD03420811B01201F
:1030900088404019A84200D2641C0546BD43214621
:1030A0002846F8BD641CF9E701FCFFFF9C75008809
:1030B0003CE4377E0000F03FFFFF0F00F8B54A0008
:1030C0002B4B520DD6182B4A0C460546142E2BDAE4
:1030D000002E12DA284BFDF75DF800221346FDF7AB
:1030E00041FA40D2002C02DB002425463BE0600080
:1030F0004008284337D0214C14E0214F0B46F740BD
:103100003B402B4331D01C4BFDF744F800221346C3
:10311000FDF728FA27D2002C03DA01200005F04041
:103120000419BC4300251EE0332E1EDC3346002765
:10313000143BFF43DF40384217D00F4BFDF7D4F864
:1031400000221346FDF70EFA0DD2002C0ADA142ED7
:103150000CD03420811B012088404019A84200D2A5
:10316000641C0546BD4321462846F8BD641CF9E7AA
:1031700001FCFFFF9C7500883CE4377E0000F0BF37
:10318000FFFF0F000449CA695206FCD5024AC1B2CA
:103190002032118170470000003801400149087059
:1031A000704700005C02002010B50346002000229A
:1031B00003E09C5C2018C0B2521C8A42F9DB10BDAF
:1031C00010B5044600F077F9041900F074F9A04234
:1031D000FBD910BD024A0260501E0078087070478B
:1031E0004102002010B519210848FCF7C8FF074824
:1031F0009F2301784A1C027009184B700178002344
:103200004A1C027008184370002010BD40020020C4
:1032100010B5094C217802290BD0A170601CFFF772
:10322000C3FF01462078421C227000194170002023
:1032300010BD0020C04310BD4002002070B51546EF
:103240000D4C6B1C2278D318182B12D8002910D0E3
:10325000002D0ED0531C2370121950702278601C60
:1032600010182A46FCF772FF2078401920700020C1
:1032700070BD0020C04370BD400200200048704770
:103280005C020020F0B58BB0264800240460446046
:103290008460C46001250570234910300160234912
:1032A0008160234941602349C16023490161234969
:1032B0008161234E31688847F16822488847224857
:1032C0000890059406940794082002AA31C20421AC
:1032D00001910920009000231621F7691A46012068
:1032E000B847069407940894099408200595029419
:1032F0000394049400940190042309220021B569E9
:103300000120A84708200290042109200191009083
:10331000039404940023162201210CA0FFF776FAEF
:103320000BB0F0BD5C020020D92700084927000837
:1033300001280008B127000889270008192700087C
:1033400064350008400ECF19B80B0000636F6E663D
:1033500069675B25645D5B25645D5B25645D5B255A
:10336000645D5B25645D5B25645D5B25645D5B2559
:10337000645D0A0010B52448007801281CD002289A
:103380001DD003281ED004281FD0052820D00628D1
:1033900021D0072822D0082823D0092824D0122899
:1033A00025D00A2826D00C2827D00D2828D00E2872
:1033B00001D1FFF761FA10BDFFF7A8FA10BDFFF7C2
:1033C000C1FD10BDFFF7C8FD10BDFFF7B5FD10BD75
:1033D000FFF7C0FD10BDFFF761FD10BDFFF76EFDEB
:1033E00010BDFFF7F9FC10BDFFF766FD10BDFFF73C
:1033F000BDFD10BDFFF75EFA10BDFFF763FA10BD0B
:10340000FFF744FA10BD00005C020020FDF714FB3A
:1034100008A0FFF7FBF9FFF735FF09A0FFF7F6F962
:10342000FFF79CFD0B4C206E8047FFF7A3FFFFF7D3
:10343000B7FDF8E76D61696E5F6F6B0A0000000011
:103440006C6F72615F6E6F64655F696E69745F6FE8
:103450006B0A0000643500080148C08B704700000B
:10346000E03F000810B50446FDF7F2F93420FDF7FF
:10347000B3F921460648FDF7D1F9042801D0FF2011
:1034800010BD3420FDF7A8F9FDF7C0F9002010BDEC
:10349000FE3F000810B5FDF73DF910BD08B56946BF
:1034A0000020FDF71BFD694608783C21484369462A
:1034B0004978401808BD08B569460020FDF70EFDA3
:1034C000694648783C21484369468978401808BDD8
:1034D00010B586B001210807FDF72AFB0120FDF792
:1034E000FFFA0120FDF764FC4120FDF745FC0028B0
:1034F000FAD001204002FDF799FC0120FDF786FC7F
:10350000FDF7DAFDFF20903005906320049003A8BA
:10351000FDF70AFD15206946C8710820487101248D
:103520008C710C7101A90120FDF722FD01A8FDF7A6
:10353000A3FC00206946C8720A2008720320487262
:103540008C7202A90120FDF765FD02A90020FDF79C
:10355000C5FC06B010BD10B501460120FDF75AFDAF
:1035600010BD00006D11000845110008F913000896
:10357000C1130008A1120008D11200086914000844
:1035800011160008091100088D170008851300089E
:103590005D1700087B1700081D1300088517000839
:1035A0004917000815130008291900080513000819
:1035B000311900080D130008C91300082914000868
:1035C00067110008B511000851130008091600081A
:1035D00004050600C01200001F000000A81600002D
:1035E00017000000841C00000F000000E42500000C
:1035F0001E000000B42D0000160000000839000075
:103600000E0000002C4C00001D000000685B000054
:1036100015000000747200000D00000058980000B2
:103620001C00000034B7000014000000E8E40000B3
:103630000C000000783101001B000000686E0100E2
:103640001300000034CA01000B00000028620200D1
:103650001A00000040DB0200120000003C9303004F
:103660000A000000C0C204001900000060B3050099
:1036700011000000382007000900000020A1070009
:10368000000000005F736C6565705F66736D5F6658
:10369000756E63005F6361645F627573795F667303
:1036A0006D5F66756E63005F4F6E5478446F6E6534
:1036B000005F4F6E5278446F6E65005F4F6E5278B8
:1036C00054696D656F7574005F4F6E527845727204
:1036D0006F720000F436000800000020F0000000C7
:1036E0005A280008E4370008F0000020B005000068
:1036F0006A280008006CDC020000000000000000E6
:103700000102030406070809000000000102030487
:103710000102030406070809000000000000000081
:10372000000000000000000000000000FF0000009A
:103730000000000000000000000000000000000089
:1037400000000000FCA9F1D24D624040FCA9F1D27A
:103750004D623040FCA9F1D24D622040FCA9F1D26B
:103760004D621040FCA9F1D24D620040FCA9F1D29B
:103770004D62F03FFCA9F1D24D623040FCA9F1D27C
:103780004D622040FCA9F1D24D621040FCA9F1D25B
:103790004D620040FCA9F1D24D62F03FFCA9F1D28C
:1037A0004D62E03FFCA9F1D24D622040FCA9F1D26C
:1037B0004D621040FCA9F1D24D620040FCA9F1D24B
:1037C0004D62F03FFCA9F1D24D62E03FFCA9F1D27D
:1037D0004D62D03F0000000000000000000000002B
:0437E00000000000E5
:04000005080000B53A
:00000001FF
