:020000040800F2
:10000000780600205D0100087D03000879030008E0
:1000100000000000000000000000000000000000E0
:1000200000000000000000000000000003050008C0
:1000300000000000000000007F03000845060008E3
:100040008D01000800000000DD0400088D0100089B
:100050008D010008290300088D0100088D010008AA
:10006000000000008D0100088D0100088D010008CE
:10007000270300088D0100088D0100080000000022
:10008000FD0600080000000000000000E106000876
:100090008D0100088D0100088D0100088D01000808
:1000A0008D0100088D010008010500089107000876
:1000B0008D01000800F002F800F041F80CA030C8F3
:1000C000083824182D18A246671EAB4654465D46D4
:1000D000AC4201D100F033F87E460F3E0FCCB6465D
:1000E0000126334200D0FB1AA246AB4633431847E1
:1000F00098070000B8070000103A02D378C878C10A
:10010000FAD8520701D330C830C101D504680C6059
:10011000704700000023002400250026103A01D378
:1001200078C1FBD8520700D330C100D50B607047AF
:1001300010B5002010BD1FB51FBD10B510BD00F0DB
:10014000BFF81146FFF7F7FF00F080FB00F0D7F88B
:1001500003B4FFF7F2FF03BC00F0DEF80F4880F3B2
:1001600008880F480168090E0E4A914205D10E48D1
:100170000E4901600E480F4901600F4880470F4843
:100180000047FEE7FEE7FEE7FEE7FEE7FEE70000CA
:100190000B480C490C4A0D4B7047000078060020B4
:1001A000040000001F0000001810024001000000C1
:1001B000000001400000000065060008B5000008CE
:1001C00078000020780600207802002078020020C5
:1001D0000FB4054910B503AA029800F041F810BC0D
:1001E00008BC04B01847000014000020F8B50E4603
:1001F0000446002020622046E1688847002829D074
:10020000252802D06268A16820E0E1682046002726
:10021000884705001ED028464138192802D80127F2
:10022000FF0220353246204627602946FFF780FF2F
:10023000002808D0012804D0F61DF608F60008367C
:10024000D9E7361DD7E762682846A1689047206A3B
:10025000401CCFE7206AF8BD704770477047000028
:10026000084B70B50D467B4400F013F80446284651
:1002700000F022F8002802D00020C04370BD2046C4
:1002800070BD0000C705000001694A1C02610878C2
:10029000704700B58FB00291002105910549019387
:1002A00079440391114604906846FFF79FFF0FB011
:1002B00000BD0000E5FFFFFFC068802108407047D7
:1002C000754600F025F8AE46050069465346C0085D
:1002D000C000854618B020B5FFF75AFF60BC002764
:1002E0004908B6460026C0C5C0C5C0C5C0C5C0C502
:1002F000C0C5C0C5C0C5403D49008D46704710B55A
:100300000446C046C0462046FFF722FF10BD00004D
:10031000004870471800002001491820ABBEFEE7D6
:10032000260002007047704710B5022000F00CF85C
:10033000002802D0022000F001F810BD01494861F8
:10034000704700000004014001460020044A526941
:100350000A40002A01D0012000E000207047000080
:1003600000040140002A01D0816100E0018570474E
:1003700010B500F033F910BD00BFFEE770477047BD
:100380001948006801210843174908600846406879
:100390001649084014494860084600681449084056
:1003A00011490860084600680121890488430E4904
:1003B0000860084640683F21090488430A494860AC
:1003C0000846C06A00090001C8620846006B094976
:1003D0000840054908630846406B400840004863F0
:1003E0000020886070470000001002400CB8FF0831
:1003F000FFFFF6FEACFEF0FF10B502460021002321
:1004000000205111002902D10C4C23680BE0012976
:1004100002D10A4C236A06E0022902D1074C636A22
:1004200001E0064C636BD106C90E01248C401C40D0
:10043000002C01D0012000E0002010BD001002407F
:10044000024840680C21084070470000001002403C
:10045000002806D00649096801221143044A1160A8
:1004600005E00349096849084900014A11607047DD
:1004700000100240002807D007490968012212062F
:100480001143054A116006E003490968012212067A
:100490009143014A1160704700100240074A5268B8
:1004A0007B23DB039A43054B5A601A465268034686
:1004B0000B431A43014B5A60704700000010024082
:1004C00001460020044A50688008800002460A4322
:1004D0001046014A506070470010024010B502A05B
:1004E000FFF776FE10BD000052544320414C4152AC
:1004F0004D20494E544552525550540D0A000000AB
:10050000704770470CB5002001900090314800689A
:100510000121090408432F49086000BF2D480068E5
:1005200001214904084000900198401C0190009866
:10053000002804D10521090301988842EED12548FD
:100540000068012149040840002802D001200090E1
:1005500001E0002000900098012839D111201E49A7
:1005600008601C4840681B4948600846406848606D
:10057000084640687F21C9038843164948600846F9
:100580004068112109040843124948600846006880
:100590000121090608430F49086000BF0D480068A3
:1005A0000121490608400028F8D00A484068800820
:1005B0008000084948600846406802210843054910
:1005C000486000BF034840680C2108400828F9D162
:1005D0000CBD0000001002400020024010B5FFF7E3
:1005E000CFFE0120FFF734FF00E000BF0120FFF73E
:1005F00003FF0028F9D01120104908601048406816
:100600000F4948600846406848600521C904002039
:10061000FFF744FF0120FFF72DFF00E000BF192086
:10062000FFF7EAFE0028F9D00220FFF749FF00E0BB
:1006300000BFFFF705FF0828FAD110BD00200240D7
:100640000010024005480068401C04490860044846
:100650000068401C0249086070470000000000204C
:100660000400002010B51B48006801210843194907
:10067000086008464068184908401649486008461E
:1006800000681649084013490860084600680121BF
:10069000890488430F490860084640683F210904DF
:1006A00088430C4948600846C06A00090001C862D6
:1006B0000846006BFF215431884306490863084609
:1006C000406B40084000486300208860FFF71AFF35
:1006D00010BD0000001002400CB8FF08FFFFF6FE3E
:1006E00010B50121044800F040F8002803D0012192
:1006F000014800F037F810BD0020004010B501217E
:10070000154800F032F8002825D00121124800F0E9
:1007100029F812480068401C104908600846006823
:10072000642801D1002008600D480068002809D124
:1007300001200B4908600022C1030920C006FFF711
:1007400011FE08E00020064908600122D1030920BB
:10075000C006FFF707FE10BD00040040080000209F
:1007600010000020CA430282704730B502460020C4
:1007700000230024158A0D402B4695890D402C46F8
:10078000002B03D0002C01D0012000E0002030BD60
:1007900010B500240549064800F00EF8002804D0E2
:1007A000034800F030F80349088010BD050105003A
:1007B000003801400C00002070B502460B460024B2
:1007C0000021002500201E04350ED9B201268E40DE
:1007D0003146012D02D11668314006E0022D02D1CA
:1007E0005668314001E0966831401C0C0126A64055
:1007F0003446D6693440002903D0002C01D00120B2
:1008000000E0002070BD0146888CC005C00D704717
:100810000021002200BF06E0002200E0521C034B32
:100820009A42FBD3491C8142F6D37047BC110000A9
:1008300000BF054AD26940231A40002AF9D0C2B24B
:10084000014B20331A817047003801407D20400160
:10085000FFF7DEFFFFF78CFD72B60020012181401B
:10086000074A116000BF07484468254601460868EA
:1008700080F3088800BFA84700E000BFFDE7000044
:1008800080E100E000200008A80800080000002027
:1008900018000000F8000008C00800081800002038
:1008A00060060000140100080000000000000000C5
:1008B0000000000000000000000000000000000038
:04000005080000B53A
:00000001FF
