:020000040800F2
:100000007006002059010008AD0200088D020008AA
:1000100000000000000000000000000000000000E0
:100020000000000000000000000000006303000862
:100030000000000000000000AF0200086904000892
:1000400089010008000000008901000889010008FA
:10005000890100083D0200088901000889010008A3
:1000600000000000890100088901000889010008DA
:100070003B02000889010008890100080000000017
:100080002105000800000000000000000505000830
:100090008901000889010008890100088901000818
:1000A000890100088901000861030008B5050008FE
:1000B0008901000800F002F800F03EF80CA030C8FA
:1000C000083824182D18A246671EAB4654465D46D4
:1000D000AC4201D100F030F87E460F3E0FCCB64660
:1000E0000126334200D0FB1AA246AB4633431847E1
:1000F000D8040000F8040000103A02D378C878C190
:10010000FAD8520701D330C830C101D504680C6059
:10011000704700000023002400250026103A01D378
:1001200078C1FBD8520700D330C100D50B607047AF
:100130001FB51FBD10B510BD00F050F81146FFF7F8
:10014000F7FF00F038FA00F068F803B4FFF7F2FFA9
:1001500003BC00F06BF800000F4880F308880F48DC
:100160000168090E0E4A914205D10E480E49016000
:100170000E480F4901600F4880470F480047FEE7CF
:10018000FEE7FEE7FEE7FEE7FEE700000B480C494E
:100190000C4A0D4B70470000700600200400000060
:1001A0001F00000018100240010000000000014084
:1001B0000000000089040008B5000008700000205D
:1001C0007006002070020020700200207047704707
:1001D0007047000000487047100000207546FFF788
:1001E000F9FFAE46050069465346C008C000854683
:1001F00018B020B5FFF7CAFF60BC00274908B64613
:100200000026C0C5C0C5C0C5C0C5C0C5C0C5C0C525
:10021000C0C5403D49008D46704710B50446C046F4
:10022000C0462046FFF791FF10BD0000014918208D
:10023000ABBEFEE7260002007047704710B50220F3
:1002400000F00CF8002802D0022000F001F810BDE8
:100250000149486170470000000401400146002048
:10026000044A52690A40002A01D0012000E000201F
:100270007047000000040140002A01D0816100E0C5
:100280000185704710B500F0D9F810BD00BFFEE73A
:1002900070B50548446825460146086880F308881B
:1002A00000BFA84770BD00000020000870477047DD
:1002B00010B502460021002300205111002902D16F
:1002C0000C4C23680BE0012902D10A4C236A06E09A
:1002D000022902D1074C636A01E0064C636BD10628
:1002E000C90E01248C401C40002C01D0012000E0EC
:1002F000002010BD00100240002807D007490968FF
:10030000012212061143054A116006E003490968FB
:10031000012212069143014A116070470010024009
:10032000074A52687B23DB039A43054B5A601A46FF
:10033000526803460B431A43014B5A607047000052
:100340000010024001460020044A506880088000E6
:1003500002460A431046014A5060704700100240AE
:10036000704770470CB5002001900090314800683C
:100370000121090408432F49086000BF2D48006887
:1003800001214904084000900198401C0190009808
:10039000002804D10521090301988842EED125489F
:1003A0000068012149040840002802D00120009083
:1003B00001E0002000900098012839D111201E4949
:1003C00008601C4840681B4948600846406848600F
:1003D000084640687F21C90388431649486008469B
:1003E0004068112109040843124948600846006822
:1003F0000121090608430F49086000BF0D48006845
:100400000121490608400028F8D00A4840688008C1
:1004100080000849486008464068022108430549B1
:10042000486000BF034840680C2108400828F9D103
:100430000CBD0000001002400020024010B500205A
:10044000FFF75AFF0521C9040020FFF769FF0120CB
:10045000FFF752FF00BF1920FFF72AFF0028FAD04C
:100460000220FFF76FFF10BD05480068401C0449DB
:10047000086004480068401C02490860704700009A
:10048000000000200400002010B51B480068012176
:100490000843194908600846406818490840164949
:1004A0004860084600681649084013490860084635
:1004B00000680121890488430F49086008464068A4
:1004C0003F21090488430C4948600846C06A000976
:1004D0000001C8620846006BFF2154318843064979
:1004E00008630846406B400840004863002088606D
:1004F000FFF738FF10BD0000001002400CB8FF08E5
:10050000FFFFF6FE10B50121044800F040F8002876
:1005100003D00121014800F037F810BD0020004051
:1005200010B50121154800F032F8002825D001212E
:10053000124800F029F812480068401C1049086071
:1005400008460068642801D1002008600D48006852
:10055000002809D101200B4908600022C1030920AD
:10056000C006FFF789FE08E0002006490860012266
:10057000D1030920C006FFF77FFE10BD0004004034
:10058000080000200C000020CA430282704730B5EA
:100590000246002000230024158A0D402B46958931
:1005A0000D402C46002B03D0002C01D0012000E090
:1005B000002030BD704710B5FFF764FE72B6FFF73C
:1005C00067FE002010BD0000E805000800000020C4
:1005D00010000000F8000008F805000810000020D6
:1005E0006006000014010008000000000000000088
:0805F000000000000000000003
:04000005080000B53A
:00000001FF
