:020000040800F2
:10000000980600205901000825060008210600086E
:1000100000000000000000000000000000000000E0
:10002000000000000000000000000000710F000848
:1000300000000000000000003907000879100008E7
:1000400089010008000000008901000889010008FA
:10005000890100089503000889010008890100084A
:1000600000000000890100088901000889010008DA
:1000700093030008890100088901000800000000BE
:1000800031110008000000000000000015110008F8
:100090008901000889010008890100088901000818
:1000A0008901000889010008950E0008C1120008A6
:1000B0008901000800F002F800F03EF80CA030C8FA
:1000C000083824182D18A246671EAB4654465D46D4
:1000D000AC4201D100F030F87E460F3E0FCCB64660
:1000E0000126334200D0FB1AA246AB4633431847E1
:1000F0005C1400007C140000103A02D378C878C168
:10010000FAD8520701D330C830C101D504680C6059
:10011000704700000023002400250026103A01D378
:1001200078C1FBD8520700D330C100D50B607047AF
:100130001FB51FBD10B510BD00F0FCF81146FFF74C
:10014000F7FF01F083F900F014F903B4FFF7F2FFB1
:1001500003BC00F017F900000F4880F308880F482F
:100160000168090E0E4A914205D10E480E49016000
:100170000E480F4901600F4880470F480047FEE7CF
:10018000FEE7FEE7FEE7FEE7FEE700000B480C494E
:100190000C4A0D4B70470000980600200400000038
:1001A0001F00000018100240010000000000014084
:1001B0000000000099100008B50000089800002019
:1001C00098060020980200209802002000220309CF
:1001D0008B422CD3030A8B4211D300239C464EE062
:1001E00003460B433CD4002243088B4231D303091E
:1001F0008B421CD3030A8B4201D394463FE0C309D0
:100200008B4201D3CB01C01A524183098B4201D3E7
:100210008B01C01A524143098B4201D34B01C01AD2
:10022000524103098B4201D30B01C01A5241C3084A
:100230008B4201D3CB00C01A524183088B4201D3B9
:100240008B00C01A524143088B4201D34B00C01AA5
:100250005241411A00D201465241104670475DE0BA
:10026000CA0F00D04942031000D34042534000223D
:100270009C4603098B422DD3030A8B4212D3FC22E6
:10028000890112BA030A8B420CD3890192118B4265
:1002900008D3890192118B4204D389013AD092117B
:1002A00000E08909C3098B4201D3CB01C01A524136
:1002B00083098B4201D38B01C01A524143098B42FF
:1002C00001D34B01C01A524103098B4201D30B01E8
:1002D000C01A5241C3088B4201D3CB00C01A52410D
:1002E00083088B4201D38B00C01A5241D9D24308F4
:1002F0008B4201D34B00C01A5241411A00D2014631
:10030000634652415B10104601D34042002B00D59A
:100310004942704763465B1000D3404201B500205C
:10032000C046C04602BD70477047704700487047DE
:10033000340000207546FFF7F9FFAE460500694618
:100340005346C008C000854618B020B5FFF71EFF11
:1003500060BC00274908B6460026C0C5C0C5C0C558
:10036000C0C5C0C5C0C5C0C5C0C5403D49008D465B
:10037000704710B50446C046C0462046FFF7E5FE6C
:1003800010BD000001491820ABBEFEE726000200A8
:100390007047704710B5022000F00CF8002802D01A
:1003A000022000F001F810BD0149486170470000CB
:1003B0000004014001460020044A52690A40002A14
:1003C00001D0012000E0002070470000000401403F
:1003D000F0B50A4600210023002400BF3DE00125BE
:1003E0008D402B4615681D402C469C4234D1157912
:1003F000012D02D01579022D16D185684F000326F4
:10040000BE40B543856055794E00B540866835439A
:100410008560858801268E40B543858085889679DC
:100420008E40B6B23543858005684F000326BE4036
:10043000B543056015794E00B54006683543056043
:10044000C5684F000326BE40B543C560D5794E0050
:10045000B540C6683543C560491C1029BFD3F0BDFF
:10046000F0B5002300244D07EE0E1546B5402B468F
:10047000CD10AE0005462035AD594E07F70E0F26BC
:10048000BE40B543CE10B60007462037BD51CD1053
:10049000AE003D46AD591D432C46CD10AD003E4645
:1004A0007451F0BD002A01D0816100E001857047E0
:1004B0001CB50021684681710121C1714171017132
:1004C0000803009069464B48FFF782FF01221103A1
:1004D0004848FFF7E7FF0021684681710121C1719B
:1004E000417101710420009069464248FFF770FF96
:1004F0000021684681710121C171417100210171A2
:100500000120009069460920C006FFF761FF002125
:10051000684681710121C171417100210171012081
:10052000009069463348FFF753FF00216846817108
:100530000121C171417100210171012080020090EF
:1005400069462C48FFF744FF00216846817101216C
:10055000C17141710221017108030090694625486B
:10056000FFF736FF00220D212248FFF779FF002117
:10057000684681710121C1714171022101718803B5
:10058000009069461B48FFF723FF00220F211948FE
:10059000FFF766FF0021684681710121C171417139
:1005A000022101714803009069461248FFF710FFCD
:1005B00000220E210F48FFF753FF0021684681718A
:1005C0000121C17141710171022000906946094801
:1005D000FFF7FEFE0021684681710121C171417162
:1005E0000171C803009069460920C006FFF7F0FEBC
:1005F0001CBD00000004004810B500F027FD00F00D
:1006000039FE00F0CBF8FFF753FF00F045FC4B201C
:10061000C00100F0DFFE00F071FF00F029FF10BD07
:1006200000BFFEE77047000000218278002A27D033
:10063000184A03231B02D21803789B109B00D15841
:1006400002789207D30EFF229A400B469343194635
:1006500042789207120E03789B07DB0E9A401143F3
:100660000C4A03231B02D21803789B109B00D15025
:100670000278D306DB0E01229A40064B1A6007E08F
:100680000278D306DB0E01229A40024B80331A60B7
:100690007047000000E100E010B5002819DA1A4A9E
:1006A00003071B0F083B9B089B00D2588307DC0EF7
:1006B000FF23A3409A438B071B0E8407E40EA3403D
:1006C0001A43114B0407240F083CA408A4001A5134
:1006D00018E00E4A03231B02D21883089B00D2584D
:1006E0008307DC0EFF23A3409A438B071B0E84076E
:1006F000E40EA3401A43054B032424021B1984086B
:10070000A4001A5110BD00001CED00E000E100E063
:10071000002807D007490968FF2201321143054A22
:10072000116006E003490968FF2201329143014A42
:10073000116070470070004070470000002905D02C
:10074000054A52690243044B5A6104E0024A526965
:100750008243014B5A61704700100240002905D0C6
:10076000054AD2690243044BDA6104E0024AD269C5
:100770008243014BDA61704700100240002905D026
:10078000054A92690243044B9A6104E0024A926965
:100790008243014B9A6170470010024010B501215D
:1007A00027204004FFF7CAFF01210448FFF7D6FFC6
:1007B00001210348FFF7E2FF10BD000000400010D8
:1007C00001400000FEB504460025002600200290EE
:1007D000019000900027864840680C21084005469B
:1007E000002D06D0042D07D0082D08D00C2D2CD1BB
:1007F00028E0804820602BE07F48206028E07C488B
:1008000040680F2189040840064679484068032162
:10081000C90308400290B00C861C0298002803D13E
:100820007648374647430BE07148C06A0007000F1F
:10083000401C019070480199FFF7C8FC70430746BF
:10084000276005E06E48206002E06A48206000BF33
:1008500000BF67484068F021084005462D096948F7
:10086000405D009020680099C84060606048406822
:1008700007210902084005462D0A6248405D0090A4
:1008800061680098C140A1605948006BFF210131A7
:100890000840884202D05C48E0600DE0544840685F
:1008A000012189030840884203D0A0684008E06025
:1008B00002E0A0688008E0604D48006B40210840DD
:1008C000402802D05148206102E00120C00320618D
:1008D0004748006B10210840102802D0454860614D
:1008E00001E0206860614248006B8007800F0028AB
:1008F00002D1A068A06119E03D48006B8007800F1D
:10090000012802D12068A06110E03948006B8007FF
:10091000800F022802D18003A06107E03448006BF9
:100920008007800F032801D13248A0613048006B56
:10093000032109040840002802D1A068E06120E0FA
:100940002B48006B03210904084001210904884257
:1009500002D12068E06114E02548006B03210904FE
:10096000084001214904884202D18010E06108E07A
:100970001F48006B032109040840884201D11D482B
:10098000E0611B48006B032189040840002802D164
:10099000A068206220E01648006B0321890408400B
:1009A00001218904884202D12068206214E01048A5
:1009B000006B0321890408400121C904884202D147
:1009C0000011206208E00A48006B032189040840F6
:1009D000884201D1074820620548006B8021084009
:1009E000802802D00648606200E06762FEBD000019
:1009F0000010024000127A00001BB70000093D0001
:100A0000006CDC0214000020809FD50012800000E2
:100A100010B502460021002300205111002902D107
:100A20000C4C23680BE0012902D10A4C236A06E032
:100A3000022902D1074C636A01E0064C636BD106C0
:100A4000C90E01248C401C40002C01D0012000E084
:100A5000002010BD00100240002806D00649496A57
:100A600001221143044A516205E00349496A4908D9
:100A70004900014A5162704700100240002807D027
:100A800007490968012212061143054A116006E070
:100A900003490968012212069143014A1160704717
:100AA00000100240074A52687B23DB039A43054B40
:100AB0005A601A46526803460B431A43014B5A6068
:100AC0007047000000100240002807D00749096A5B
:100AD0000122D2031143054A116206E00349096A63
:100AE0000122D2039143014A116270470010024073
:100AF0000249096A0143014A11627047001002402D
:100B000001460020044A50688008800002460A43DB
:100B10001046014A5060704700100240014600BF75
:100B2000F020084000110A23584302460807000F2E
:100B30008018C0B270470146002204E0501CC2B2C7
:100B400008460A38C1B20A29F8DA1007000E08432D
:100B5000704701210170817041700021C1707047A0
:100B600008B50022009200200021124AD2684023DA
:100B70001A40002A1BD1421E0E4BDA6000BF0D4AFC
:100B8000D26840231A401146009A521C00921B0260
:100B9000009A9A4201D00029F1D0064AD268402337
:100BA0001A40002A01D0012002E0002000E00120CC
:100BB00008BD0000002800400348C0688021884329
:100BC0000149C860704700000028004070B5064623
:100BD0000C460025124800681249084005463F208F
:100BE00000042840000C20707F2000022840000AEA
:100BF00060706806400EA070012080052840000C3F
:100C0000E070002E0BD12078FFF788FF207060780D
:100C1000FFF784FF6070A078FFF780FFA07070BDC1
:100C2000002800407F7F7F0030B504460025CA20A1
:100C30001249486253204862FFF792FF002800D112
:100C400017E00E488068402188430C4988600846B8
:100C500080682168084309498860A06808610846DF
:100C60000069A1880904084304490861FFF7A4FF4B
:100C70000125FF2001494862284630BD0028004078
:100C8000F8B505460C46002600200090002D08D13E
:100C9000607810210840102803D1607888430A301A
:100CA0006070002D00D108E06078FFF737FF06463E
:100CB000A078FFF733FF064600BF002D0BD0E07889
:100CC0000004617809020843A178084321784903A8
:100CD0000843064610E0E078FFF72DFF0704607830
:100CE000FFF729FF00020743A078FFF724FF07431F
:100CF0002078400307433E46CA20134948625320E8
:100D00004862FFF72DFF002801D1009016E00F4840
:100D100030400D494860FFF74FFF0B4880682021A5
:100D20000840002808D100F07FF8002801D1009089
:100D300004E00120009001E001200090FF20024922
:100D400048620098F8BD0000002800403FFFFF0007
:100D5000F8B505460C46002600200090002D0AD16B
:100D60002F48806840210840002800D002E0002081
:100D7000E07000BF0EE02A4880684021084000284B
:100D800004D02078FFF7CAFE064602E00020E0709B
:100D900000BF00BF002D0BD020780004617809024D
:100DA0000843A1780843E17809040843064610E0A7
:100DB0002078FFF7C0FE07046078FFF7BCFE000252
:100DC0000743A078FFF7B7FE0743E0780004074326
:100DD0003E46CA201249486253204862FFF7C0FECF
:100DE000002801D1009016E00E4830400C49086000
:100DF000FFF7E2FE0A48806820210840002808D159
:100E000000F012F8002801D1009004E001200090C9
:100E100001E001200090FF20014948620098F8BDE0
:100E2000002800407F7F7F0008B50022009200204C
:100E30000021174A926820231A40002A01D001207D
:100E400025E0CA22124B5A6253225A621A46D268CD
:100E5000A0239A430E4BDA6000BF0D4AD2682023CC
:100E60001A401146009A521C00929B02009A9A4224
:100E700001D00029F1D0064AD26820231A40002A66
:100E800001D0012000E00020FF22014B5A6208BD82
:100E9000002800407047000000B585B0002168467A
:100EA0000180FF2105314180072109028180002155
:100EB0000181C180012149024181182181810021E4
:100EC000C181072101826946064800F01BF8012113
:100ED0000903044800F042F80121024800F004F838
:100EE00005B000BD00380040002904D0028840232E
:100EF0001A43028003E00288014B1A4002807047C7
:100F0000BFFF000010B500220288C1239B011A40D8
:100F10000B88CC892343CC8823430C8923434C89F9
:100F200023438C8923431A4302808288084B1A404A
:100F30008B881A4382800B8A03820288054B1A40F1
:100F40004B881A430280838B034C2340838310BD5C
:100F5000FFF00000FBFF0000FFF700008288034B5A
:100F60001A40828082880A4382807047FFEF000027
:100F7000704700000CB500200190009031480068D7
:100F80000121090408432F49086000BF2D4800686B
:100F900001214904084000900198401C01900098EC
:100FA000002804D10521090301988842EED1254883
:100FB0000068012149040840002802D00120009067
:100FC00001E0002000900098012839D111201E492D
:100FD00008601C4840681B494860084640684860F3
:100FE000084640687F21C90388431649486008467F
:100FF0004068112109040843124948600846006806
:101000000121090608430F49086000BF0D48006828
:101010000121490608400028F8D00A4840688008A5
:101020008000084948600846406802210843054995
:10103000486000BF034840680C2108400828F9D1E7
:101040000CBD0000001002400020024010B500203E
:10105000FFF714FD0521C9040020FFF723FD01203F
:10106000FFF70CFD00BF1920FFF7D2FC0028FAD0D3
:101070000220FFF745FD10BD05480068401C0449EB
:10108000086004480068401C02490860704700007E
:10109000240000202800002010B51B480068012112
:1010A000084319490860084640681849084016492D
:1010B0004860084600681649084013490860084619
:1010C00000680121890488430F4908600846406888
:1010D0003F21090488430C4948600846C06A00095A
:1010E0000001C8620846006BFF215431884306495D
:1010F00008630846406B4008400048630020886051
:10110000FFF738FF10BD0000001002400CB8FF08C8
:10111000FFFFF6FE10B50121044800F04FF800284B
:1011200003D00121014800F037F810BD0020004035
:1011300010B50121154800F041F8002825D0012103
:10114000124800F029F812480068401C1049086055
:1011500008460068642801D1002008600D48006836
:10116000002809D101200B4908600022C103092091
:10117000C006FFF797F908E0002006490860012241
:10118000D1030920C006FFF78DF910BD000400400F
:101190002C00002030000020CA430282704700006B
:1011A000002904D0028801231A43028003E0028848
:1011B000014B1A4002807047FEFF000030B5024626
:1011C000002000230024158A0D402B4695890D40F0
:1011D0002C46002B03D0002C01D0012000E0002081
:1011E00030BD002A03D083890B43838102E08389C9
:1011F0008B4383817047000000220288154B984280
:1012000006D001239B07984202D0134B984203D18A
:10121000124B1A404B881A43114B984203D0114B82
:101220001A400B891A4302804B68C3620B880385FE
:10123000084B984208D00C4B984205D00B4B984273
:1012400002D00B4B984201D18B7A03860123838213
:1012500070470000002C0140000400408FFF000098
:1012600000100040FFFC000000400140004401402D
:101270000048014010B57D21C9000E480068FEF706
:10128000A5FF0446601E0C49884201D901200CE0EC
:10129000601E0A4948610321081FFFF7FDF900207D
:1012A00006498861072008610020002801D000BF9E
:1012B000FEE710BD00000020FFFFFF0000E000E09F
:1012C0007047002904D0026801231A43026003E03A
:1012D000026852085200026070470000F0B58BB0FF
:1012E00004460D46002700200A900026206840088A
:1012F00040002060666803210903304688430646A3
:10130000A8680643666026682D480640E968686854
:1013100008432969084306432660A6680321090299
:1013200030468843064668690643A6606846FFF76C
:1013300049FA2448844202D106980A900DE02248D6
:10134000844202D107980A9007E02048844202D1E3
:1013500008980A9001E002980A9020680121C903C8
:10136000084000280CD029680A9A5000FEF72EFF8A
:10137000074629680A9A5000FEF728FF0E4609E042
:1013800029680A98FEF722FF074629680A98FEF79F
:101390001DFF0E4628684008B04200D87F1C206818
:1013A0000121C9030840002806D03807460F3846F7
:1013B0000749084030430746A7810BB0F0BD000045
:1013C000F3E9FFFF003801400044004000480040BE
:1013D000F0FF000010B588B0044601214804FFF773
:1013E000ADF901218803FFF7C9F901220921C806D7
:1013F000FFF736F801220A210920C006FFF730F86E
:10140000032040020690022168460177002181777F
:101410000121C1770321417706A90920C006FEF703
:10142000D7FF0094002001900290039005900C20BB
:10143000049069460448FFF751FF01210248FFF775
:1014400040FF08B010BD000000380140FFF7D4F89D
:1014500072B60648446825460146086880F3088845
:1014600000BFA84700E000BFFDE7000000500008F3
:1014700000B585B001210807FFF770F90120FFF7DB
:1014800047F90120FFF7E8FA00BF4120FFF7C0FA53
:101490000028FAD001204002FFF72AFB0120FFF7C5
:1014A00013FBFFF7C1FCFF209030049063200390F2
:1014B00002A8FFF7B9FB15216846C17008214170E9
:1014C00001218170017069460120FFF7D9FB684650
:1014D000FFF73FFB00216846C1710A21017103211A
:1014E00041710121817101A90120FFF731FC01A99E
:1014F0004020FFF76BFB05B000BD00001FB50121C8
:101500000220FFF72BF9132002900E4968468180D4
:1015100000218181C18001A90B48FFF76DFE0122E6
:1015200011460948FFF75DFE102168460170012150
:1015300081704170FFF778F801210348FFF730FE12
:101540001FBD0000BF120000000400406C15000821
:101550000000002034000000F8000008A01500087A
:10156000340000206406000014010008006CDC0256
:101570000000000000000000010203040607080943
:101580000000000001020304010203040607080929
:10159000000000000000000000000000000000004B
:04000005080000B53A
:00000001FF
